{"contracts/test/TikTrixEscrow.sol":{"TikTrixEscrow":{"abi":[{"inputs":[],"stateMutability":"nonpayable","type":"constructor"},{"inputs":[],"name":"AccessControlBadConfirmation","type":"error"},{"inputs":[{"internalType":"address","name":"account","type":"address"},{"internalType":"bytes32","name":"neededRole","type":"bytes32"}],"name":"AccessControlUnauthorizedAccount","type":"error"},{"anonymous":false,"inputs":[{"indexed":false,"internalType":"uint256","name":"baseDate","type":"uint256"},{"indexed":false,"internalType":"uint256","name":"gameSeq","type":"uint256"},{"indexed":false,"internalType":"uint256","name":"count","type":"uint256"},{"indexed":false,"internalType":"uint256","name":"totalAmount","type":"uint256"}],"name":"BatchDepositsReturned","type":"event"},{"anonymous":false,"inputs":[{"indexed":false,"internalType":"address","name":"sender","type":"address"}],"name":"CalledFrom","type":"event"},{"anonymous":false,"inputs":[{"indexed":false,"internalType":"uint256","name":"baseDate","type":"uint256"},{"indexed":false,"internalType":"uint256","name":"gameSeq","type":"uint256"},{"indexed":false,"internalType":"uint256","name":"memberSeq","type":"uint256"},{"indexed":false,"internalType":"uint256","name":"amount","type":"uint256"}],"name":"DepositMade","type":"event"},{"anonymous":false,"inputs":[{"indexed":false,"internalType":"uint256","name":"baseDate","type":"uint256"},{"indexed":false,"internalType":"uint256","name":"gameSeq","type":"uint256"},{"indexed":false,"internalType":"uint256","name":"memberSeq","type":"uint256"},{"indexed":false,"internalType":"uint256","name":"amount","type":"uint256"}],"name":"DepositReturned","type":"event"},{"anonymous":false,"inputs":[{"indexed":true,"internalType":"bytes32","name":"role","type":"bytes32"},{"indexed":true,"internalType":"bytes32","name":"previousAdminRole","type":"bytes32"},{"indexed":true,"internalType":"bytes32","name":"newAdminRole","type":"bytes32"}],"name":"RoleAdminChanged","type":"event"},{"anonymous":false,"inputs":[{"indexed":true,"internalType":"bytes32","name":"role","type":"bytes32"},{"indexed":true,"internalType":"address","name":"account","type":"address"},{"indexed":true,"internalType":"address","name":"sender","type":"address"}],"name":"RoleGranted","type":"event"},{"anonymous":false,"inputs":[{"indexed":true,"internalType":"bytes32","name":"role","type":"bytes32"},{"indexed":true,"internalType":"address","name":"account","type":"address"},{"indexed":true,"internalType":"address","name":"sender","type":"address"}],"name":"RoleRevoked","type":"event"},{"inputs":[],"name":"ADMIN_ROLE","outputs":[{"internalType":"bytes32","name":"","type":"bytes32"}],"stateMutability":"view","type":"function"},{"inputs":[],"name":"DEFAULT_ADMIN_ROLE","outputs":[{"internalType":"bytes32","name":"","type":"bytes32"}],"stateMutability":"view","type":"function"},{"inputs":[{"internalType":"uint256","name":"baseDate","type":"uint256"},{"internalType":"uint256","name":"gameSeq","type":"uint256"},{"internalType":"uint256[]","name":"memberSeqs","type":"uint256[]"}],"name":"batchReturnDepositFee","outputs":[],"stateMutability":"nonpayable","type":"function"},{"inputs":[{"internalType":"uint256","name":"baseDate","type":"uint256"},{"internalType":"uint256","name":"gameSeq","type":"uint256"},{"internalType":"uint256","name":"memberSeq","type":"uint256"}],"name":"depositFee","outputs":[],"stateMutability":"payable","type":"function"},{"inputs":[{"internalType":"uint256","name":"","type":"uint256"},{"internalType":"uint256","name":"","type":"uint256"},{"internalType":"uint256","name":"","type":"uint256"}],"name":"deposits","outputs":[{"internalType":"uint256","name":"amount","type":"uint256"},{"internalType":"bool","name":"isReturned","type":"bool"},{"internalType":"address","name":"depositor","type":"address"}],"stateMutability":"view","type":"function"},{"inputs":[{"internalType":"uint256","name":"baseDate","type":"uint256"},{"internalType":"uint256","name":"gameSeq","type":"uint256"},{"internalType":"uint256","name":"memberSeq","type":"uint256"}],"name":"getDepositFee","outputs":[{"internalType":"uint256","name":"amount","type":"uint256"},{"internalType":"bool","name":"isReturned","type":"bool"}],"stateMutability":"view","type":"function"},{"inputs":[{"internalType":"bytes32","name":"role","type":"bytes32"}],"name":"getRoleAdmin","outputs":[{"internalType":"bytes32","name":"","type":"bytes32"}],"stateMutability":"view","type":"function"},{"inputs":[{"internalType":"address","name":"account","type":"address"}],"name":"grantAdminRole","outputs":[],"stateMutability":"nonpayable","type":"function"},{"inputs":[{"internalType":"bytes32","name":"role","type":"bytes32"},{"internalType":"address","name":"account","type":"address"}],"name":"grantRole","outputs":[],"stateMutability":"nonpayable","type":"function"},{"inputs":[{"internalType":"bytes32","name":"role","type":"bytes32"},{"internalType":"address","name":"account","type":"address"}],"name":"hasRole","outputs":[{"internalType":"bool","name":"","type":"bool"}],"stateMutability":"view","type":"function"},{"inputs":[],"name":"justemit","outputs":[],"stateMutability":"nonpayable","type":"function"},{"inputs":[],"name":"owner","outputs":[{"internalType":"address","name":"","type":"address"}],"stateMutability":"view","type":"function"},{"inputs":[{"internalType":"bytes32","name":"role","type":"bytes32"},{"internalType":"address","name":"callerConfirmation","type":"address"}],"name":"renounceRole","outputs":[],"stateMutability":"nonpayable","type":"function"},{"inputs":[{"internalType":"uint256","name":"baseDate","type":"uint256"},{"internalType":"uint256","name":"gameSeq","type":"uint256"},{"internalType":"uint256","name":"memberSeq","type":"uint256"}],"name":"returnDepositFee","outputs":[],"stateMutability":"nonpayable","type":"function"},{"inputs":[{"internalType":"address","name":"account","type":"address"}],"name":"revokeAdminRole","outputs":[],"stateMutability":"nonpayable","type":"function"},{"inputs":[{"internalType":"bytes32","name":"role","type":"bytes32"},{"internalType":"address","name":"account","type":"address"}],"name":"revokeRole","outputs":[],"stateMutability":"nonpayable","type":"function"},{"inputs":[{"internalType":"bytes4","name":"interfaceId","type":"bytes4"}],"name":"supportsInterface","outputs":[{"internalType":"bool","name":"","type":"bool"}],"stateMutability":"view","type":"function"}],"evm":{"bytecode":{"linkReferences":{},"object":"608060405234801561001057600080fd5b50600180546001600160a01b0319163390811790915561003290600090610063565b5061005d7fa49807205ce4d355092ef5a8a18f56e8913cf4a201fbe287825b095693c2177533610063565b5061010f565b6000828152602081815260408083206001600160a01b038516845290915281205460ff16610105576000838152602081815260408083206001600160a01b03861684529091529020805460ff191660011790556100bd3390565b6001600160a01b0316826001600160a01b0316847f2f8788117e7eff1d82e926ec794901d17c78024a50270940304540a733656f0d60405160405180910390a4506001610109565b5060005b92915050565b6112d88061011e6000396000f3fe60806040526004361061010e5760003560e01c806375b238fc116100a5578063a217fddf11610074578063add52e9111610059578063add52e9114610449578063c634b78e14610469578063d547741f1461048957600080fd5b8063a217fddf14610414578063a63addf91461042957600080fd5b806375b238fc1461031d5780638da5cb5b1461035157806391d14854146103a35780639a19c7b0146103f457600080fd5b8063248a9ca3116100e1578063248a9ca31461028a578063278ddd3c146102c85780632f2ff15d146102dd57806336568abe146102fd57600080fd5b806301ffc9a7146101135780630e8e2307146101485780630f430645146101df57806310795c4c14610275575b600080fd5b34801561011f57600080fd5b5061013361012e3660046110b8565b6104a9565b60405190151581526020015b60405180910390f35b34801561015457600080fd5b506101ca610163366004611101565b6000928352600260209081526040808520938552928152828420918452908152918190208151606081018352815480825260019092015460ff81161515948201859052610100900473ffffffffffffffffffffffffffffffffffffffff1692019190915291565b6040805192835290151560208301520161013f565b3480156101eb57600080fd5b506102446101fa366004611101565b60026020908152600093845260408085208252928452828420905282529020805460019091015460ff811690610100900473ffffffffffffffffffffffffffffffffffffffff1683565b60408051938452911515602084015273ffffffffffffffffffffffffffffffffffffffff169082015260600161013f565b610288610283366004611101565b610542565b005b34801561029657600080fd5b506102ba6102a536600461112d565b60009081526020819052604090206001015490565b60405190815260200161013f565b3480156102d457600080fd5b50610288610762565b3480156102e957600080fd5b506102886102f836600461116f565b610797565b34801561030957600080fd5b5061028861031836600461116f565b6107c2565b34801561032957600080fd5b506102ba7fa49807205ce4d355092ef5a8a18f56e8913cf4a201fbe287825b095693c2177581565b34801561035d57600080fd5b5060015461037e9073ffffffffffffffffffffffffffffffffffffffff1681565b60405173ffffffffffffffffffffffffffffffffffffffff909116815260200161013f565b3480156103af57600080fd5b506101336103be36600461116f565b60009182526020828152604080842073ffffffffffffffffffffffffffffffffffffffff93909316845291905290205460ff1690565b34801561040057600080fd5b5061028861040f36600461119b565b610820565b34801561042057600080fd5b506102ba600081565b34801561043557600080fd5b50610288610444366004611101565b610859565b34801561045557600080fd5b506102886104643660046111b6565b610b4b565b34801561047557600080fd5b5061028861048436600461119b565b610e14565b34801561049557600080fd5b506102886104a436600461116f565b610e49565b60007fffffffff0000000000000000000000000000000000000000000000000000000082167f7965db0b00000000000000000000000000000000000000000000000000000000148061053c57507f01ffc9a7000000000000000000000000000000000000000000000000000000007fffffffff000000000000000000000000000000000000000000000000000000008316145b92915050565b600034116105d7576040517f08c379a000000000000000000000000000000000000000000000000000000000815260206004820152602560248201527f4465706f73697420616d6f756e74206d7573742062652067726561746572207460448201527f68616e203000000000000000000000000000000000000000000000000000000060648201526084015b60405180910390fd5b6000838152600260209081526040808320858452825280832084845290915290205415610660576040517f08c379a000000000000000000000000000000000000000000000000000000000815260206004820152601660248201527f4465706f73697420616c7265616479206578697374730000000000000000000060448201526064016105ce565b60408051606080820183523480835260006020808501828152338688019081528a8452600283528784208a85528352878420898552835292879020955186555160019095018054925173ffffffffffffffffffffffffffffffffffffffff16610100027fffffffffffffffffffffff0000000000000000000000000000000000000000ff961515969096167fffffffffffffffffffffff0000000000000000000000000000000000000000009093169290921794909417905583518781529283018690529282018490528101919091527fee3ad54d0e96073bc1fb6a26d9bb92792dfdbf00358eb0ae9af753d5e478da9a9060800160405180910390a1505050565b6040513381527ffb3b4d6258432a9a3d78dd9bffbcb6cfb1bd94f58da35fd530d08da7d1d058329060200160405180910390a1565b6000828152602081905260409020600101546107b281610e6e565b6107bc8383610e7b565b50505050565b73ffffffffffffffffffffffffffffffffffffffff81163314610811576040517f6697b23200000000000000000000000000000000000000000000000000000000815260040160405180910390fd5b61081b8282610f77565b505050565b600061082b81610e6e565b6108557fa49807205ce4d355092ef5a8a18f56e8913cf4a201fbe287825b095693c2177583610e49565b5050565b7fa49807205ce4d355092ef5a8a18f56e8913cf4a201fbe287825b095693c2177561088381610e6e565b600084815260026020908152604080832086845282528083208584529091529020805461090c576040517f08c379a000000000000000000000000000000000000000000000000000000000815260206004820152601060248201527f4e6f206465706f73697420666f756e640000000000000000000000000000000060448201526064016105ce565b600181015460ff161561097b576040517f08c379a000000000000000000000000000000000000000000000000000000000815260206004820152601860248201527f4465706f73697420616c72656164792072657475726e6564000000000000000060448201526064016105ce565b8054600180830180547fffffffffffffffffffffffffffffffffffffffffffffffffffffffffffffff001690911790819055610100900473ffffffffffffffffffffffffffffffffffffffff1680610a2f576040517f08c379a000000000000000000000000000000000000000000000000000000000815260206004820152601960248201527f496e76616c6964206465706f7369746f7220616464726573730000000000000060448201526064016105ce565b60008173ffffffffffffffffffffffffffffffffffffffff168360405160006040518083038185875af1925050503d8060008114610a89576040519150601f19603f3d011682016040523d82523d6000602084013e610a8e565b606091505b5050905080610af9576040517f08c379a000000000000000000000000000000000000000000000000000000000815260206004820152601660248201527f52657475726e207472616e73666572206661696c65640000000000000000000060448201526064016105ce565b6040805189815260208101899052908101879052606081018490527f785bac1762ba7e9fadd8b93290d1a6f64b30de50316fb2fb57ea0152edbd80389060800160405180910390a15050505050505050565b7fa49807205ce4d355092ef5a8a18f56e8913cf4a201fbe287825b095693c21775610b7581610e6e565b6000805b83811015610dc3576000858583818110610b9557610b95611239565b60008b81526002602090815260408083208d845282528083209382029590950135808352929052929092208054929350911580159150610bda5750600181015460ff16155b15610db9578054600180830180547fffffffffffffffffffffffffffffffffffffffffffffffffffffffffffffff00169091179055610c198186611268565b6001830154909550610100900473ffffffffffffffffffffffffffffffffffffffff1680610ca3576040517f08c379a000000000000000000000000000000000000000000000000000000000815260206004820152601960248201527f496e76616c6964206465706f7369746f7220616464726573730000000000000060448201526064016105ce565b60008173ffffffffffffffffffffffffffffffffffffffff168360405160006040518083038185875af1925050503d8060008114610cfd576040519150601f19603f3d011682016040523d82523d6000602084013e610d02565b606091505b5050905080610d6d576040517f08c379a000000000000000000000000000000000000000000000000000000000815260206004820152601660248201527f52657475726e207472616e73666572206661696c65640000000000000000000060448201526064016105ce565b604080518d8152602081018d9052908101869052606081018490527f785bac1762ba7e9fadd8b93290d1a6f64b30de50316fb2fb57ea0152edbd80389060800160405180910390a15050505b5050600101610b79565b506040805187815260208101879052908101849052606081018290527fca499d39b6ca1f53e5441b6aa760fe14b9dcfd8bfa63ea382e3f4a801e50a07e9060800160405180910390a1505050505050565b6000610e1f81610e6e565b6108557fa49807205ce4d355092ef5a8a18f56e8913cf4a201fbe287825b095693c2177583610797565b600082815260208190526040902060010154610e6481610e6e565b6107bc8383610f77565b610e788133611032565b50565b60008281526020818152604080832073ffffffffffffffffffffffffffffffffffffffff8516845290915281205460ff16610f6f5760008381526020818152604080832073ffffffffffffffffffffffffffffffffffffffff86168452909152902080547fffffffffffffffffffffffffffffffffffffffffffffffffffffffffffffff00166001179055610f0d3390565b73ffffffffffffffffffffffffffffffffffffffff168273ffffffffffffffffffffffffffffffffffffffff16847f2f8788117e7eff1d82e926ec794901d17c78024a50270940304540a733656f0d60405160405180910390a450600161053c565b50600061053c565b60008281526020818152604080832073ffffffffffffffffffffffffffffffffffffffff8516845290915281205460ff1615610f6f5760008381526020818152604080832073ffffffffffffffffffffffffffffffffffffffff8616808552925280832080547fffffffffffffffffffffffffffffffffffffffffffffffffffffffffffffff0016905551339286917ff6391f5c32d9c69d2a47ea670b442974b53935d1edc7fd64eb21e047a839171b9190a450600161053c565b60008281526020818152604080832073ffffffffffffffffffffffffffffffffffffffff8516845290915290205460ff16610855576040517fe2517d3f00000000000000000000000000000000000000000000000000000000815273ffffffffffffffffffffffffffffffffffffffff82166004820152602481018390526044016105ce565b6000602082840312156110ca57600080fd5b81357fffffffff00000000000000000000000000000000000000000000000000000000811681146110fa57600080fd5b9392505050565b60008060006060848603121561111657600080fd5b505081359360208301359350604090920135919050565b60006020828403121561113f57600080fd5b5035919050565b803573ffffffffffffffffffffffffffffffffffffffff8116811461116a57600080fd5b919050565b6000806040838503121561118257600080fd5b8235915061119260208401611146565b90509250929050565b6000602082840312156111ad57600080fd5b6110fa82611146565b600080600080606085870312156111cc57600080fd5b8435935060208501359250604085013567ffffffffffffffff808211156111f257600080fd5b818701915087601f83011261120657600080fd5b81358181111561121557600080fd5b8860208260051b850101111561122a57600080fd5b95989497505060200194505050565b7f4e487b7100000000000000000000000000000000000000000000000000000000600052603260045260246000fd5b8082018082111561053c577f4e487b7100000000000000000000000000000000000000000000000000000000600052601160045260246000fdfea26469706673582212205ddd7b7fd73f6221fb77d23933a86583120765b8b38eefe2fc4ac2eef8350bed64736f6c63430008170033","opcodes":"PUSH1 0x80 PUSH1 0x40 MSTORE CALLVALUE DUP1 ISZERO PUSH2 0x10 JUMPI PUSH1 0x0 DUP1 REVERT JUMPDEST POP PUSH1 0x1 DUP1 SLOAD PUSH1 0x1 PUSH1 0x1 PUSH1 0xA0 SHL SUB NOT AND CALLER SWAP1 DUP2 OR SWAP1 SWAP2 SSTORE PUSH2 0x32 SWAP1 PUSH1 0x0 SWAP1 PUSH2 0x63 JUMP JUMPDEST POP PUSH2 0x5D PUSH32 0xA49807205CE4D355092EF5A8A18F56E8913CF4A201FBE287825B095693C21775 CALLER PUSH2 0x63 JUMP JUMPDEST POP PUSH2 0x10F JUMP JUMPDEST PUSH1 0x0 DUP3 DUP2 MSTORE PUSH1 0x20 DUP2 DUP2 MSTORE PUSH1 0x40 DUP1 DUP4 KECCAK256 PUSH1 0x1 PUSH1 0x1 PUSH1 0xA0 SHL SUB DUP6 AND DUP5 MSTORE SWAP1 SWAP2 MSTORE DUP2 KECCAK256 SLOAD PUSH1 0xFF AND PUSH2 0x105 JUMPI PUSH1 0x0 DUP4 DUP2 MSTORE PUSH1 0x20 DUP2 DUP2 MSTORE PUSH1 0x40 DUP1 DUP4 KECCAK256 PUSH1 0x1 PUSH1 0x1 PUSH1 0xA0 SHL SUB DUP7 AND DUP5 MSTORE SWAP1 SWAP2 MSTORE SWAP1 KECCAK256 DUP1 SLOAD PUSH1 0xFF NOT AND PUSH1 0x1 OR SWAP1 SSTORE PUSH2 0xBD CALLER SWAP1 JUMP JUMPDEST PUSH1 0x1 PUSH1 0x1 PUSH1 0xA0 SHL SUB AND DUP3 PUSH1 0x1 PUSH1 0x1 PUSH1 0xA0 SHL SUB AND DUP5 PUSH32 0x2F8788117E7EFF1D82E926EC794901D17C78024A50270940304540A733656F0D PUSH1 0x40 MLOAD PUSH1 0x40 MLOAD DUP1 SWAP2 SUB SWAP1 LOG4 POP PUSH1 0x1 PUSH2 0x109 JUMP JUMPDEST POP PUSH1 0x0 JUMPDEST SWAP3 SWAP2 POP POP JUMP JUMPDEST PUSH2 0x12D8 DUP1 PUSH2 0x11E PUSH1 0x0 CODECOPY PUSH1 0x0 RETURN INVALID PUSH1 0x80 PUSH1 0x40 MSTORE PUSH1 0x4 CALLDATASIZE LT PUSH2 0x10E JUMPI PUSH1 0x0 CALLDATALOAD PUSH1 0xE0 SHR DUP1 PUSH4 0x75B238FC GT PUSH2 0xA5 JUMPI DUP1 PUSH4 0xA217FDDF GT PUSH2 0x74 JUMPI DUP1 PUSH4 0xADD52E91 GT PUSH2 0x59 JUMPI DUP1 PUSH4 0xADD52E91 EQ PUSH2 0x449 JUMPI DUP1 PUSH4 0xC634B78E EQ PUSH2 0x469 JUMPI DUP1 PUSH4 0xD547741F EQ PUSH2 0x489 JUMPI PUSH1 0x0 DUP1 REVERT JUMPDEST DUP1 PUSH4 0xA217FDDF EQ PUSH2 0x414 JUMPI DUP1 PUSH4 0xA63ADDF9 EQ PUSH2 0x429 JUMPI PUSH1 0x0 DUP1 REVERT JUMPDEST DUP1 PUSH4 0x75B238FC EQ PUSH2 0x31D JUMPI DUP1 PUSH4 0x8DA5CB5B EQ PUSH2 0x351 JUMPI DUP1 PUSH4 0x91D14854 EQ PUSH2 0x3A3 JUMPI DUP1 PUSH4 0x9A19C7B0 EQ PUSH2 0x3F4 JUMPI PUSH1 0x0 DUP1 REVERT JUMPDEST DUP1 PUSH4 0x248A9CA3 GT PUSH2 0xE1 JUMPI DUP1 PUSH4 0x248A9CA3 EQ PUSH2 0x28A JUMPI DUP1 PUSH4 0x278DDD3C EQ PUSH2 0x2C8 JUMPI DUP1 PUSH4 0x2F2FF15D EQ PUSH2 0x2DD JUMPI DUP1 PUSH4 0x36568ABE EQ PUSH2 0x2FD JUMPI PUSH1 0x0 DUP1 REVERT JUMPDEST DUP1 PUSH4 0x1FFC9A7 EQ PUSH2 0x113 JUMPI DUP1 PUSH4 0xE8E2307 EQ PUSH2 0x148 JUMPI DUP1 PUSH4 0xF430645 EQ PUSH2 0x1DF JUMPI DUP1 PUSH4 0x10795C4C EQ PUSH2 0x275 JUMPI JUMPDEST PUSH1 0x0 DUP1 REVERT JUMPDEST CALLVALUE DUP1 ISZERO PUSH2 0x11F JUMPI PUSH1 0x0 DUP1 REVERT JUMPDEST POP PUSH2 0x133 PUSH2 0x12E CALLDATASIZE PUSH1 0x4 PUSH2 0x10B8 JUMP JUMPDEST PUSH2 0x4A9 JUMP JUMPDEST PUSH1 0x40 MLOAD SWAP1 ISZERO ISZERO DUP2 MSTORE PUSH1 0x20 ADD JUMPDEST PUSH1 0x40 MLOAD DUP1 SWAP2 SUB SWAP1 RETURN JUMPDEST CALLVALUE DUP1 ISZERO PUSH2 0x154 JUMPI PUSH1 0x0 DUP1 REVERT JUMPDEST POP PUSH2 0x1CA PUSH2 0x163 CALLDATASIZE PUSH1 0x4 PUSH2 0x1101 JUMP JUMPDEST PUSH1 0x0 SWAP3 DUP4 MSTORE PUSH1 0x2 PUSH1 0x20 SWAP1 DUP2 MSTORE PUSH1 0x40 DUP1 DUP6 KECCAK256 SWAP4 DUP6 MSTORE SWAP3 DUP2 MSTORE DUP3 DUP5 KECCAK256 SWAP2 DUP5 MSTORE SWAP1 DUP2 MSTORE SWAP2 DUP2 SWAP1 KECCAK256 DUP2 MLOAD PUSH1 0x60 DUP2 ADD DUP4 MSTORE DUP2 SLOAD DUP1 DUP3 MSTORE PUSH1 0x1 SWAP1 SWAP3 ADD SLOAD PUSH1 0xFF DUP2 AND ISZERO ISZERO SWAP5 DUP3 ADD DUP6 SWAP1 MSTORE PUSH2 0x100 SWAP1 DIV PUSH20 0xFFFFFFFFFFFFFFFFFFFFFFFFFFFFFFFFFFFFFFFF AND SWAP3 ADD SWAP2 SWAP1 SWAP2 MSTORE SWAP2 JUMP JUMPDEST PUSH1 0x40 DUP1 MLOAD SWAP3 DUP4 MSTORE SWAP1 ISZERO ISZERO PUSH1 0x20 DUP4 ADD MSTORE ADD PUSH2 0x13F JUMP JUMPDEST CALLVALUE DUP1 ISZERO PUSH2 0x1EB JUMPI PUSH1 0x0 DUP1 REVERT JUMPDEST POP PUSH2 0x244 PUSH2 0x1FA CALLDATASIZE PUSH1 0x4 PUSH2 0x1101 JUMP JUMPDEST PUSH1 0x2 PUSH1 0x20 SWAP1 DUP2 MSTORE PUSH1 0x0 SWAP4 DUP5 MSTORE PUSH1 0x40 DUP1 DUP6 KECCAK256 DUP3 MSTORE SWAP3 DUP5 MSTORE DUP3 DUP5 KECCAK256 SWAP1 MSTORE DUP3 MSTORE SWAP1 KECCAK256 DUP1 SLOAD PUSH1 0x1 SWAP1 SWAP2 ADD SLOAD PUSH1 0xFF DUP2 AND SWAP1 PUSH2 0x100 SWAP1 DIV PUSH20 0xFFFFFFFFFFFFFFFFFFFFFFFFFFFFFFFFFFFFFFFF AND DUP4 JUMP JUMPDEST PUSH1 0x40 DUP1 MLOAD SWAP4 DUP5 MSTORE SWAP2 ISZERO ISZERO PUSH1 0x20 DUP5 ADD MSTORE PUSH20 0xFFFFFFFFFFFFFFFFFFFFFFFFFFFFFFFFFFFFFFFF AND SWAP1 DUP3 ADD MSTORE PUSH1 0x60 ADD PUSH2 0x13F JUMP JUMPDEST PUSH2 0x288 PUSH2 0x283 CALLDATASIZE PUSH1 0x4 PUSH2 0x1101 JUMP JUMPDEST PUSH2 0x542 JUMP JUMPDEST STOP JUMPDEST CALLVALUE DUP1 ISZERO PUSH2 0x296 JUMPI PUSH1 0x0 DUP1 REVERT JUMPDEST POP PUSH2 0x2BA PUSH2 0x2A5 CALLDATASIZE PUSH1 0x4 PUSH2 0x112D JUMP JUMPDEST PUSH1 0x0 SWAP1 DUP2 MSTORE PUSH1 0x20 DUP2 SWAP1 MSTORE PUSH1 0x40 SWAP1 KECCAK256 PUSH1 0x1 ADD SLOAD SWAP1 JUMP JUMPDEST PUSH1 0x40 MLOAD SWAP1 DUP2 MSTORE PUSH1 0x20 ADD PUSH2 0x13F JUMP JUMPDEST CALLVALUE DUP1 ISZERO PUSH2 0x2D4 JUMPI PUSH1 0x0 DUP1 REVERT JUMPDEST POP PUSH2 0x288 PUSH2 0x762 JUMP JUMPDEST CALLVALUE DUP1 ISZERO PUSH2 0x2E9 JUMPI PUSH1 0x0 DUP1 REVERT JUMPDEST POP PUSH2 0x288 PUSH2 0x2F8 CALLDATASIZE PUSH1 0x4 PUSH2 0x116F JUMP JUMPDEST PUSH2 0x797 JUMP JUMPDEST CALLVALUE DUP1 ISZERO PUSH2 0x309 JUMPI PUSH1 0x0 DUP1 REVERT JUMPDEST POP PUSH2 0x288 PUSH2 0x318 CALLDATASIZE PUSH1 0x4 PUSH2 0x116F JUMP JUMPDEST PUSH2 0x7C2 JUMP JUMPDEST CALLVALUE DUP1 ISZERO PUSH2 0x329 JUMPI PUSH1 0x0 DUP1 REVERT JUMPDEST POP PUSH2 0x2BA PUSH32 0xA49807205CE4D355092EF5A8A18F56E8913CF4A201FBE287825B095693C21775 DUP2 JUMP JUMPDEST CALLVALUE DUP1 ISZERO PUSH2 0x35D JUMPI PUSH1 0x0 DUP1 REVERT JUMPDEST POP PUSH1 0x1 SLOAD PUSH2 0x37E SWAP1 PUSH20 0xFFFFFFFFFFFFFFFFFFFFFFFFFFFFFFFFFFFFFFFF AND DUP2 JUMP JUMPDEST PUSH1 0x40 MLOAD PUSH20 0xFFFFFFFFFFFFFFFFFFFFFFFFFFFFFFFFFFFFFFFF SWAP1 SWAP2 AND DUP2 MSTORE PUSH1 0x20 ADD PUSH2 0x13F JUMP JUMPDEST CALLVALUE DUP1 ISZERO PUSH2 0x3AF JUMPI PUSH1 0x0 DUP1 REVERT JUMPDEST POP PUSH2 0x133 PUSH2 0x3BE CALLDATASIZE PUSH1 0x4 PUSH2 0x116F JUMP JUMPDEST PUSH1 0x0 SWAP2 DUP3 MSTORE PUSH1 0x20 DUP3 DUP2 MSTORE PUSH1 0x40 DUP1 DUP5 KECCAK256 PUSH20 0xFFFFFFFFFFFFFFFFFFFFFFFFFFFFFFFFFFFFFFFF SWAP4 SWAP1 SWAP4 AND DUP5 MSTORE SWAP2 SWAP1 MSTORE SWAP1 KECCAK256 SLOAD PUSH1 0xFF AND SWAP1 JUMP JUMPDEST CALLVALUE DUP1 ISZERO PUSH2 0x400 JUMPI PUSH1 0x0 DUP1 REVERT JUMPDEST POP PUSH2 0x288 PUSH2 0x40F CALLDATASIZE PUSH1 0x4 PUSH2 0x119B JUMP JUMPDEST PUSH2 0x820 JUMP JUMPDEST CALLVALUE DUP1 ISZERO PUSH2 0x420 JUMPI PUSH1 0x0 DUP1 REVERT JUMPDEST POP PUSH2 0x2BA PUSH1 0x0 DUP2 JUMP JUMPDEST CALLVALUE DUP1 ISZERO PUSH2 0x435 JUMPI PUSH1 0x0 DUP1 REVERT JUMPDEST POP PUSH2 0x288 PUSH2 0x444 CALLDATASIZE PUSH1 0x4 PUSH2 0x1101 JUMP JUMPDEST PUSH2 0x859 JUMP JUMPDEST CALLVALUE DUP1 ISZERO PUSH2 0x455 JUMPI PUSH1 0x0 DUP1 REVERT JUMPDEST POP PUSH2 0x288 PUSH2 0x464 CALLDATASIZE PUSH1 0x4 PUSH2 0x11B6 JUMP JUMPDEST PUSH2 0xB4B JUMP JUMPDEST CALLVALUE DUP1 ISZERO PUSH2 0x475 JUMPI PUSH1 0x0 DUP1 REVERT JUMPDEST POP PUSH2 0x288 PUSH2 0x484 CALLDATASIZE PUSH1 0x4 PUSH2 0x119B JUMP JUMPDEST PUSH2 0xE14 JUMP JUMPDEST CALLVALUE DUP1 ISZERO PUSH2 0x495 JUMPI PUSH1 0x0 DUP1 REVERT JUMPDEST POP PUSH2 0x288 PUSH2 0x4A4 CALLDATASIZE PUSH1 0x4 PUSH2 0x116F JUMP JUMPDEST PUSH2 0xE49 JUMP JUMPDEST PUSH1 0x0 PUSH32 0xFFFFFFFF00000000000000000000000000000000000000000000000000000000 DUP3 AND PUSH32 0x7965DB0B00000000000000000000000000000000000000000000000000000000 EQ DUP1 PUSH2 0x53C JUMPI POP PUSH32 0x1FFC9A700000000000000000000000000000000000000000000000000000000 PUSH32 0xFFFFFFFF00000000000000000000000000000000000000000000000000000000 DUP4 AND EQ JUMPDEST SWAP3 SWAP2 POP POP JUMP JUMPDEST PUSH1 0x0 CALLVALUE GT PUSH2 0x5D7 JUMPI PUSH1 0x40 MLOAD PUSH32 0x8C379A000000000000000000000000000000000000000000000000000000000 DUP2 MSTORE PUSH1 0x20 PUSH1 0x4 DUP3 ADD MSTORE PUSH1 0x25 PUSH1 0x24 DUP3 ADD MSTORE PUSH32 0x4465706F73697420616D6F756E74206D75737420626520677265617465722074 PUSH1 0x44 DUP3 ADD MSTORE PUSH32 0x68616E2030000000000000000000000000000000000000000000000000000000 PUSH1 0x64 DUP3 ADD MSTORE PUSH1 0x84 ADD JUMPDEST PUSH1 0x40 MLOAD DUP1 SWAP2 SUB SWAP1 REVERT JUMPDEST PUSH1 0x0 DUP4 DUP2 MSTORE PUSH1 0x2 PUSH1 0x20 SWAP1 DUP2 MSTORE PUSH1 0x40 DUP1 DUP4 KECCAK256 DUP6 DUP5 MSTORE DUP3 MSTORE DUP1 DUP4 KECCAK256 DUP5 DUP5 MSTORE SWAP1 SWAP2 MSTORE SWAP1 KECCAK256 SLOAD ISZERO PUSH2 0x660 JUMPI PUSH1 0x40 MLOAD PUSH32 0x8C379A000000000000000000000000000000000000000000000000000000000 DUP2 MSTORE PUSH1 0x20 PUSH1 0x4 DUP3 ADD MSTORE PUSH1 0x16 PUSH1 0x24 DUP3 ADD MSTORE PUSH32 0x4465706F73697420616C72656164792065786973747300000000000000000000 PUSH1 0x44 DUP3 ADD MSTORE PUSH1 0x64 ADD PUSH2 0x5CE JUMP JUMPDEST PUSH1 0x40 DUP1 MLOAD PUSH1 0x60 DUP1 DUP3 ADD DUP4 MSTORE CALLVALUE DUP1 DUP4 MSTORE PUSH1 0x0 PUSH1 0x20 DUP1 DUP6 ADD DUP3 DUP2 MSTORE CALLER DUP7 DUP9 ADD SWAP1 DUP2 MSTORE DUP11 DUP5 MSTORE PUSH1 0x2 DUP4 MSTORE DUP8 DUP5 KECCAK256 DUP11 DUP6 MSTORE DUP4 MSTORE DUP8 DUP5 KECCAK256 DUP10 DUP6 MSTORE DUP4 MSTORE SWAP3 DUP8 SWAP1 KECCAK256 SWAP6 MLOAD DUP7 SSTORE MLOAD PUSH1 0x1 SWAP1 SWAP6 ADD DUP1 SLOAD SWAP3 MLOAD PUSH20 0xFFFFFFFFFFFFFFFFFFFFFFFFFFFFFFFFFFFFFFFF AND PUSH2 0x100 MUL PUSH32 0xFFFFFFFFFFFFFFFFFFFFFF0000000000000000000000000000000000000000FF SWAP7 ISZERO ISZERO SWAP7 SWAP1 SWAP7 AND PUSH32 0xFFFFFFFFFFFFFFFFFFFFFF000000000000000000000000000000000000000000 SWAP1 SWAP4 AND SWAP3 SWAP1 SWAP3 OR SWAP5 SWAP1 SWAP5 OR SWAP1 SSTORE DUP4 MLOAD DUP8 DUP2 MSTORE SWAP3 DUP4 ADD DUP7 SWAP1 MSTORE SWAP3 DUP3 ADD DUP5 SWAP1 MSTORE DUP2 ADD SWAP2 SWAP1 SWAP2 MSTORE PUSH32 0xEE3AD54D0E96073BC1FB6A26D9BB92792DFDBF00358EB0AE9AF753D5E478DA9A SWAP1 PUSH1 0x80 ADD PUSH1 0x40 MLOAD DUP1 SWAP2 SUB SWAP1 LOG1 POP POP POP JUMP JUMPDEST PUSH1 0x40 MLOAD CALLER DUP2 MSTORE PUSH32 0xFB3B4D6258432A9A3D78DD9BFFBCB6CFB1BD94F58DA35FD530D08DA7D1D05832 SWAP1 PUSH1 0x20 ADD PUSH1 0x40 MLOAD DUP1 SWAP2 SUB SWAP1 LOG1 JUMP JUMPDEST PUSH1 0x0 DUP3 DUP2 MSTORE PUSH1 0x20 DUP2 SWAP1 MSTORE PUSH1 0x40 SWAP1 KECCAK256 PUSH1 0x1 ADD SLOAD PUSH2 0x7B2 DUP2 PUSH2 0xE6E JUMP JUMPDEST PUSH2 0x7BC DUP4 DUP4 PUSH2 0xE7B JUMP JUMPDEST POP POP POP POP JUMP JUMPDEST PUSH20 0xFFFFFFFFFFFFFFFFFFFFFFFFFFFFFFFFFFFFFFFF DUP2 AND CALLER EQ PUSH2 0x811 JUMPI PUSH1 0x40 MLOAD PUSH32 0x6697B23200000000000000000000000000000000000000000000000000000000 DUP2 MSTORE PUSH1 0x4 ADD PUSH1 0x40 MLOAD DUP1 SWAP2 SUB SWAP1 REVERT JUMPDEST PUSH2 0x81B DUP3 DUP3 PUSH2 0xF77 JUMP JUMPDEST POP POP POP JUMP JUMPDEST PUSH1 0x0 PUSH2 0x82B DUP2 PUSH2 0xE6E JUMP JUMPDEST PUSH2 0x855 PUSH32 0xA49807205CE4D355092EF5A8A18F56E8913CF4A201FBE287825B095693C21775 DUP4 PUSH2 0xE49 JUMP JUMPDEST POP POP JUMP JUMPDEST PUSH32 0xA49807205CE4D355092EF5A8A18F56E8913CF4A201FBE287825B095693C21775 PUSH2 0x883 DUP2 PUSH2 0xE6E JUMP JUMPDEST PUSH1 0x0 DUP5 DUP2 MSTORE PUSH1 0x2 PUSH1 0x20 SWAP1 DUP2 MSTORE PUSH1 0x40 DUP1 DUP4 KECCAK256 DUP7 DUP5 MSTORE DUP3 MSTORE DUP1 DUP4 KECCAK256 DUP6 DUP5 MSTORE SWAP1 SWAP2 MSTORE SWAP1 KECCAK256 DUP1 SLOAD PUSH2 0x90C JUMPI PUSH1 0x40 MLOAD PUSH32 0x8C379A000000000000000000000000000000000000000000000000000000000 DUP2 MSTORE PUSH1 0x20 PUSH1 0x4 DUP3 ADD MSTORE PUSH1 0x10 PUSH1 0x24 DUP3 ADD MSTORE PUSH32 0x4E6F206465706F73697420666F756E6400000000000000000000000000000000 PUSH1 0x44 DUP3 ADD MSTORE PUSH1 0x64 ADD PUSH2 0x5CE JUMP JUMPDEST PUSH1 0x1 DUP2 ADD SLOAD PUSH1 0xFF AND ISZERO PUSH2 0x97B JUMPI PUSH1 0x40 MLOAD PUSH32 0x8C379A000000000000000000000000000000000000000000000000000000000 DUP2 MSTORE PUSH1 0x20 PUSH1 0x4 DUP3 ADD MSTORE PUSH1 0x18 PUSH1 0x24 DUP3 ADD MSTORE PUSH32 0x4465706F73697420616C72656164792072657475726E65640000000000000000 PUSH1 0x44 DUP3 ADD MSTORE PUSH1 0x64 ADD PUSH2 0x5CE JUMP JUMPDEST DUP1 SLOAD PUSH1 0x1 DUP1 DUP4 ADD DUP1 SLOAD PUSH32 0xFFFFFFFFFFFFFFFFFFFFFFFFFFFFFFFFFFFFFFFFFFFFFFFFFFFFFFFFFFFFFF00 AND SWAP1 SWAP2 OR SWAP1 DUP2 SWAP1 SSTORE PUSH2 0x100 SWAP1 DIV PUSH20 0xFFFFFFFFFFFFFFFFFFFFFFFFFFFFFFFFFFFFFFFF AND DUP1 PUSH2 0xA2F JUMPI PUSH1 0x40 MLOAD PUSH32 0x8C379A000000000000000000000000000000000000000000000000000000000 DUP2 MSTORE PUSH1 0x20 PUSH1 0x4 DUP3 ADD MSTORE PUSH1 0x19 PUSH1 0x24 DUP3 ADD MSTORE PUSH32 0x496E76616C6964206465706F7369746F72206164647265737300000000000000 PUSH1 0x44 DUP3 ADD MSTORE PUSH1 0x64 ADD PUSH2 0x5CE JUMP JUMPDEST PUSH1 0x0 DUP2 PUSH20 0xFFFFFFFFFFFFFFFFFFFFFFFFFFFFFFFFFFFFFFFF AND DUP4 PUSH1 0x40 MLOAD PUSH1 0x0 PUSH1 0x40 MLOAD DUP1 DUP4 SUB DUP2 DUP6 DUP8 GAS CALL SWAP3 POP POP POP RETURNDATASIZE DUP1 PUSH1 0x0 DUP2 EQ PUSH2 0xA89 JUMPI PUSH1 0x40 MLOAD SWAP2 POP PUSH1 0x1F NOT PUSH1 0x3F RETURNDATASIZE ADD AND DUP3 ADD PUSH1 0x40 MSTORE RETURNDATASIZE DUP3 MSTORE RETURNDATASIZE PUSH1 0x0 PUSH1 0x20 DUP5 ADD RETURNDATACOPY PUSH2 0xA8E JUMP JUMPDEST PUSH1 0x60 SWAP2 POP JUMPDEST POP POP SWAP1 POP DUP1 PUSH2 0xAF9 JUMPI PUSH1 0x40 MLOAD PUSH32 0x8C379A000000000000000000000000000000000000000000000000000000000 DUP2 MSTORE PUSH1 0x20 PUSH1 0x4 DUP3 ADD MSTORE PUSH1 0x16 PUSH1 0x24 DUP3 ADD MSTORE PUSH32 0x52657475726E207472616E73666572206661696C656400000000000000000000 PUSH1 0x44 DUP3 ADD MSTORE PUSH1 0x64 ADD PUSH2 0x5CE JUMP JUMPDEST PUSH1 0x40 DUP1 MLOAD DUP10 DUP2 MSTORE PUSH1 0x20 DUP2 ADD DUP10 SWAP1 MSTORE SWAP1 DUP2 ADD DUP8 SWAP1 MSTORE PUSH1 0x60 DUP2 ADD DUP5 SWAP1 MSTORE PUSH32 0x785BAC1762BA7E9FADD8B93290D1A6F64B30DE50316FB2FB57EA0152EDBD8038 SWAP1 PUSH1 0x80 ADD PUSH1 0x40 MLOAD DUP1 SWAP2 SUB SWAP1 LOG1 POP POP POP POP POP POP POP POP JUMP JUMPDEST PUSH32 0xA49807205CE4D355092EF5A8A18F56E8913CF4A201FBE287825B095693C21775 PUSH2 0xB75 DUP2 PUSH2 0xE6E JUMP JUMPDEST PUSH1 0x0 DUP1 JUMPDEST DUP4 DUP2 LT ISZERO PUSH2 0xDC3 JUMPI PUSH1 0x0 DUP6 DUP6 DUP4 DUP2 DUP2 LT PUSH2 0xB95 JUMPI PUSH2 0xB95 PUSH2 0x1239 JUMP JUMPDEST PUSH1 0x0 DUP12 DUP2 MSTORE PUSH1 0x2 PUSH1 0x20 SWAP1 DUP2 MSTORE PUSH1 0x40 DUP1 DUP4 KECCAK256 DUP14 DUP5 MSTORE DUP3 MSTORE DUP1 DUP4 KECCAK256 SWAP4 DUP3 MUL SWAP6 SWAP1 SWAP6 ADD CALLDATALOAD DUP1 DUP4 MSTORE SWAP3 SWAP1 MSTORE SWAP3 SWAP1 SWAP3 KECCAK256 DUP1 SLOAD SWAP3 SWAP4 POP SWAP2 ISZERO DUP1 ISZERO SWAP2 POP PUSH2 0xBDA JUMPI POP PUSH1 0x1 DUP2 ADD SLOAD PUSH1 0xFF AND ISZERO JUMPDEST ISZERO PUSH2 0xDB9 JUMPI DUP1 SLOAD PUSH1 0x1 DUP1 DUP4 ADD DUP1 SLOAD PUSH32 0xFFFFFFFFFFFFFFFFFFFFFFFFFFFFFFFFFFFFFFFFFFFFFFFFFFFFFFFFFFFFFF00 AND SWAP1 SWAP2 OR SWAP1 SSTORE PUSH2 0xC19 DUP2 DUP7 PUSH2 0x1268 JUMP JUMPDEST PUSH1 0x1 DUP4 ADD SLOAD SWAP1 SWAP6 POP PUSH2 0x100 SWAP1 DIV PUSH20 0xFFFFFFFFFFFFFFFFFFFFFFFFFFFFFFFFFFFFFFFF AND DUP1 PUSH2 0xCA3 JUMPI PUSH1 0x40 MLOAD PUSH32 0x8C379A000000000000000000000000000000000000000000000000000000000 DUP2 MSTORE PUSH1 0x20 PUSH1 0x4 DUP3 ADD MSTORE PUSH1 0x19 PUSH1 0x24 DUP3 ADD MSTORE PUSH32 0x496E76616C6964206465706F7369746F72206164647265737300000000000000 PUSH1 0x44 DUP3 ADD MSTORE PUSH1 0x64 ADD PUSH2 0x5CE JUMP JUMPDEST PUSH1 0x0 DUP2 PUSH20 0xFFFFFFFFFFFFFFFFFFFFFFFFFFFFFFFFFFFFFFFF AND DUP4 PUSH1 0x40 MLOAD PUSH1 0x0 PUSH1 0x40 MLOAD DUP1 DUP4 SUB DUP2 DUP6 DUP8 GAS CALL SWAP3 POP POP POP RETURNDATASIZE DUP1 PUSH1 0x0 DUP2 EQ PUSH2 0xCFD JUMPI PUSH1 0x40 MLOAD SWAP2 POP PUSH1 0x1F NOT PUSH1 0x3F RETURNDATASIZE ADD AND DUP3 ADD PUSH1 0x40 MSTORE RETURNDATASIZE DUP3 MSTORE RETURNDATASIZE PUSH1 0x0 PUSH1 0x20 DUP5 ADD RETURNDATACOPY PUSH2 0xD02 JUMP JUMPDEST PUSH1 0x60 SWAP2 POP JUMPDEST POP POP SWAP1 POP DUP1 PUSH2 0xD6D JUMPI PUSH1 0x40 MLOAD PUSH32 0x8C379A000000000000000000000000000000000000000000000000000000000 DUP2 MSTORE PUSH1 0x20 PUSH1 0x4 DUP3 ADD MSTORE PUSH1 0x16 PUSH1 0x24 DUP3 ADD MSTORE PUSH32 0x52657475726E207472616E73666572206661696C656400000000000000000000 PUSH1 0x44 DUP3 ADD MSTORE PUSH1 0x64 ADD PUSH2 0x5CE JUMP JUMPDEST PUSH1 0x40 DUP1 MLOAD DUP14 DUP2 MSTORE PUSH1 0x20 DUP2 ADD DUP14 SWAP1 MSTORE SWAP1 DUP2 ADD DUP7 SWAP1 MSTORE PUSH1 0x60 DUP2 ADD DUP5 SWAP1 MSTORE PUSH32 0x785BAC1762BA7E9FADD8B93290D1A6F64B30DE50316FB2FB57EA0152EDBD8038 SWAP1 PUSH1 0x80 ADD PUSH1 0x40 MLOAD DUP1 SWAP2 SUB SWAP1 LOG1 POP POP POP JUMPDEST POP POP PUSH1 0x1 ADD PUSH2 0xB79 JUMP JUMPDEST POP PUSH1 0x40 DUP1 MLOAD DUP8 DUP2 MSTORE PUSH1 0x20 DUP2 ADD DUP8 SWAP1 MSTORE SWAP1 DUP2 ADD DUP5 SWAP1 MSTORE PUSH1 0x60 DUP2 ADD DUP3 SWAP1 MSTORE PUSH32 0xCA499D39B6CA1F53E5441B6AA760FE14B9DCFD8BFA63EA382E3F4A801E50A07E SWAP1 PUSH1 0x80 ADD PUSH1 0x40 MLOAD DUP1 SWAP2 SUB SWAP1 LOG1 POP POP POP POP POP POP JUMP JUMPDEST PUSH1 0x0 PUSH2 0xE1F DUP2 PUSH2 0xE6E JUMP JUMPDEST PUSH2 0x855 PUSH32 0xA49807205CE4D355092EF5A8A18F56E8913CF4A201FBE287825B095693C21775 DUP4 PUSH2 0x797 JUMP JUMPDEST PUSH1 0x0 DUP3 DUP2 MSTORE PUSH1 0x20 DUP2 SWAP1 MSTORE PUSH1 0x40 SWAP1 KECCAK256 PUSH1 0x1 ADD SLOAD PUSH2 0xE64 DUP2 PUSH2 0xE6E JUMP JUMPDEST PUSH2 0x7BC DUP4 DUP4 PUSH2 0xF77 JUMP JUMPDEST PUSH2 0xE78 DUP2 CALLER PUSH2 0x1032 JUMP JUMPDEST POP JUMP JUMPDEST PUSH1 0x0 DUP3 DUP2 MSTORE PUSH1 0x20 DUP2 DUP2 MSTORE PUSH1 0x40 DUP1 DUP4 KECCAK256 PUSH20 0xFFFFFFFFFFFFFFFFFFFFFFFFFFFFFFFFFFFFFFFF DUP6 AND DUP5 MSTORE SWAP1 SWAP2 MSTORE DUP2 KECCAK256 SLOAD PUSH1 0xFF AND PUSH2 0xF6F JUMPI PUSH1 0x0 DUP4 DUP2 MSTORE PUSH1 0x20 DUP2 DUP2 MSTORE PUSH1 0x40 DUP1 DUP4 KECCAK256 PUSH20 0xFFFFFFFFFFFFFFFFFFFFFFFFFFFFFFFFFFFFFFFF DUP7 AND DUP5 MSTORE SWAP1 SWAP2 MSTORE SWAP1 KECCAK256 DUP1 SLOAD PUSH32 0xFFFFFFFFFFFFFFFFFFFFFFFFFFFFFFFFFFFFFFFFFFFFFFFFFFFFFFFFFFFFFF00 AND PUSH1 0x1 OR SWAP1 SSTORE PUSH2 0xF0D CALLER SWAP1 JUMP JUMPDEST PUSH20 0xFFFFFFFFFFFFFFFFFFFFFFFFFFFFFFFFFFFFFFFF AND DUP3 PUSH20 0xFFFFFFFFFFFFFFFFFFFFFFFFFFFFFFFFFFFFFFFF AND DUP5 PUSH32 0x2F8788117E7EFF1D82E926EC794901D17C78024A50270940304540A733656F0D PUSH1 0x40 MLOAD PUSH1 0x40 MLOAD DUP1 SWAP2 SUB SWAP1 LOG4 POP PUSH1 0x1 PUSH2 0x53C JUMP JUMPDEST POP PUSH1 0x0 PUSH2 0x53C JUMP JUMPDEST PUSH1 0x0 DUP3 DUP2 MSTORE PUSH1 0x20 DUP2 DUP2 MSTORE PUSH1 0x40 DUP1 DUP4 KECCAK256 PUSH20 0xFFFFFFFFFFFFFFFFFFFFFFFFFFFFFFFFFFFFFFFF DUP6 AND DUP5 MSTORE SWAP1 SWAP2 MSTORE DUP2 KECCAK256 SLOAD PUSH1 0xFF AND ISZERO PUSH2 0xF6F JUMPI PUSH1 0x0 DUP4 DUP2 MSTORE PUSH1 0x20 DUP2 DUP2 MSTORE PUSH1 0x40 DUP1 DUP4 KECCAK256 PUSH20 0xFFFFFFFFFFFFFFFFFFFFFFFFFFFFFFFFFFFFFFFF DUP7 AND DUP1 DUP6 MSTORE SWAP3 MSTORE DUP1 DUP4 KECCAK256 DUP1 SLOAD PUSH32 0xFFFFFFFFFFFFFFFFFFFFFFFFFFFFFFFFFFFFFFFFFFFFFFFFFFFFFFFFFFFFFF00 AND SWAP1 SSTORE MLOAD CALLER SWAP3 DUP7 SWAP2 PUSH32 0xF6391F5C32D9C69D2A47EA670B442974B53935D1EDC7FD64EB21E047A839171B SWAP2 SWAP1 LOG4 POP PUSH1 0x1 PUSH2 0x53C JUMP JUMPDEST PUSH1 0x0 DUP3 DUP2 MSTORE PUSH1 0x20 DUP2 DUP2 MSTORE PUSH1 0x40 DUP1 DUP4 KECCAK256 PUSH20 0xFFFFFFFFFFFFFFFFFFFFFFFFFFFFFFFFFFFFFFFF DUP6 AND DUP5 MSTORE SWAP1 SWAP2 MSTORE SWAP1 KECCAK256 SLOAD PUSH1 0xFF AND PUSH2 0x855 JUMPI PUSH1 0x40 MLOAD PUSH32 0xE2517D3F00000000000000000000000000000000000000000000000000000000 DUP2 MSTORE PUSH20 0xFFFFFFFFFFFFFFFFFFFFFFFFFFFFFFFFFFFFFFFF DUP3 AND PUSH1 0x4 DUP3 ADD MSTORE PUSH1 0x24 DUP2 ADD DUP4 SWAP1 MSTORE PUSH1 0x44 ADD PUSH2 0x5CE JUMP JUMPDEST PUSH1 0x0 PUSH1 0x20 DUP3 DUP5 SUB SLT ISZERO PUSH2 0x10CA JUMPI PUSH1 0x0 DUP1 REVERT JUMPDEST DUP2 CALLDATALOAD PUSH32 0xFFFFFFFF00000000000000000000000000000000000000000000000000000000 DUP2 AND DUP2 EQ PUSH2 0x10FA JUMPI PUSH1 0x0 DUP1 REVERT JUMPDEST SWAP4 SWAP3 POP POP POP JUMP JUMPDEST PUSH1 0x0 DUP1 PUSH1 0x0 PUSH1 0x60 DUP5 DUP7 SUB SLT ISZERO PUSH2 0x1116 JUMPI PUSH1 0x0 DUP1 REVERT JUMPDEST POP POP DUP2 CALLDATALOAD SWAP4 PUSH1 0x20 DUP4 ADD CALLDATALOAD SWAP4 POP PUSH1 0x40 SWAP1 SWAP3 ADD CALLDATALOAD SWAP2 SWAP1 POP JUMP JUMPDEST PUSH1 0x0 PUSH1 0x20 DUP3 DUP5 SUB SLT ISZERO PUSH2 0x113F JUMPI PUSH1 0x0 DUP1 REVERT JUMPDEST POP CALLDATALOAD SWAP2 SWAP1 POP JUMP JUMPDEST DUP1 CALLDATALOAD PUSH20 0xFFFFFFFFFFFFFFFFFFFFFFFFFFFFFFFFFFFFFFFF DUP2 AND DUP2 EQ PUSH2 0x116A JUMPI PUSH1 0x0 DUP1 REVERT JUMPDEST SWAP2 SWAP1 POP JUMP JUMPDEST PUSH1 0x0 DUP1 PUSH1 0x40 DUP4 DUP6 SUB SLT ISZERO PUSH2 0x1182 JUMPI PUSH1 0x0 DUP1 REVERT JUMPDEST DUP3 CALLDATALOAD SWAP2 POP PUSH2 0x1192 PUSH1 0x20 DUP5 ADD PUSH2 0x1146 JUMP JUMPDEST SWAP1 POP SWAP3 POP SWAP3 SWAP1 POP JUMP JUMPDEST PUSH1 0x0 PUSH1 0x20 DUP3 DUP5 SUB SLT ISZERO PUSH2 0x11AD JUMPI PUSH1 0x0 DUP1 REVERT JUMPDEST PUSH2 0x10FA DUP3 PUSH2 0x1146 JUMP JUMPDEST PUSH1 0x0 DUP1 PUSH1 0x0 DUP1 PUSH1 0x60 DUP6 DUP8 SUB SLT ISZERO PUSH2 0x11CC JUMPI PUSH1 0x0 DUP1 REVERT JUMPDEST DUP5 CALLDATALOAD SWAP4 POP PUSH1 0x20 DUP6 ADD CALLDATALOAD SWAP3 POP PUSH1 0x40 DUP6 ADD CALLDATALOAD PUSH8 0xFFFFFFFFFFFFFFFF DUP1 DUP3 GT ISZERO PUSH2 0x11F2 JUMPI PUSH1 0x0 DUP1 REVERT JUMPDEST DUP2 DUP8 ADD SWAP2 POP DUP8 PUSH1 0x1F DUP4 ADD SLT PUSH2 0x1206 JUMPI PUSH1 0x0 DUP1 REVERT JUMPDEST DUP2 CALLDATALOAD DUP2 DUP2 GT ISZERO PUSH2 0x1215 JUMPI PUSH1 0x0 DUP1 REVERT JUMPDEST DUP9 PUSH1 0x20 DUP3 PUSH1 0x5 SHL DUP6 ADD ADD GT ISZERO PUSH2 0x122A JUMPI PUSH1 0x0 DUP1 REVERT JUMPDEST SWAP6 SWAP9 SWAP5 SWAP8 POP POP PUSH1 0x20 ADD SWAP5 POP POP POP JUMP JUMPDEST PUSH32 0x4E487B7100000000000000000000000000000000000000000000000000000000 PUSH1 0x0 MSTORE PUSH1 0x32 PUSH1 0x4 MSTORE PUSH1 0x24 PUSH1 0x0 REVERT JUMPDEST DUP1 DUP3 ADD DUP1 DUP3 GT ISZERO PUSH2 0x53C JUMPI PUSH32 0x4E487B7100000000000000000000000000000000000000000000000000000000 PUSH1 0x0 MSTORE PUSH1 0x11 PUSH1 0x4 MSTORE PUSH1 0x24 PUSH1 0x0 REVERT INVALID LOG2 PUSH5 0x6970667358 0x22 SLT KECCAK256 0x5D 0xDD PUSH28 0x7FD73F6221FB77D23933A86583120765B8B38EEFE2FC4AC2EEF8350B 0xED PUSH5 0x736F6C6343 STOP ADDMOD OR STOP CALLER "},"methodIdentifiers":{"ADMIN_ROLE()":"75b238fc","DEFAULT_ADMIN_ROLE()":"a217fddf","batchReturnDepositFee(uint256,uint256,uint256[])":"add52e91","depositFee(uint256,uint256,uint256)":"10795c4c","deposits(uint256,uint256,uint256)":"0f430645","getDepositFee(uint256,uint256,uint256)":"0e8e2307","getRoleAdmin(bytes32)":"248a9ca3","grantAdminRole(address)":"c634b78e","grantRole(bytes32,address)":"2f2ff15d","hasRole(bytes32,address)":"91d14854","justemit()":"278ddd3c","owner()":"8da5cb5b","renounceRole(bytes32,address)":"36568abe","returnDepositFee(uint256,uint256,uint256)":"a63addf9","revokeAdminRole(address)":"9a19c7b0","revokeRole(bytes32,address)":"d547741f","supportsInterface(bytes4)":"01ffc9a7"}}}}}