{"contracts/samples/SimpleAccount.sol":{"SimpleAccount":{"abi":[{"inputs":[{"internalType":"contract IEntryPoint","name":"anEntryPoint","type":"address"}],"stateMutability":"nonpayable","type":"constructor"},{"anonymous":false,"inputs":[{"indexed":false,"internalType":"address","name":"previousAdmin","type":"address"},{"indexed":false,"internalType":"address","name":"newAdmin","type":"address"}],"name":"AdminChanged","type":"event"},{"anonymous":false,"inputs":[{"indexed":true,"internalType":"address","name":"beacon","type":"address"}],"name":"BeaconUpgraded","type":"event"},{"anonymous":false,"inputs":[{"indexed":false,"internalType":"uint8","name":"version","type":"uint8"}],"name":"Initialized","type":"event"},{"anonymous":false,"inputs":[{"indexed":true,"internalType":"contract IEntryPoint","name":"entryPoint","type":"address"},{"indexed":true,"internalType":"address","name":"owner","type":"address"}],"name":"SimpleAccountInitialized","type":"event"},{"anonymous":false,"inputs":[{"indexed":true,"internalType":"address","name":"implementation","type":"address"}],"name":"Upgraded","type":"event"},{"inputs":[],"name":"addDeposit","outputs":[],"stateMutability":"payable","type":"function"},{"inputs":[],"name":"entryPoint","outputs":[{"internalType":"contract IEntryPoint","name":"","type":"address"}],"stateMutability":"view","type":"function"},{"inputs":[{"internalType":"address","name":"dest","type":"address"},{"internalType":"uint256","name":"value","type":"uint256"},{"internalType":"bytes","name":"func","type":"bytes"}],"name":"execute","outputs":[],"stateMutability":"nonpayable","type":"function"},{"inputs":[{"internalType":"address[]","name":"dest","type":"address[]"},{"internalType":"uint256[]","name":"value","type":"uint256[]"},{"internalType":"bytes[]","name":"func","type":"bytes[]"}],"name":"executeBatch","outputs":[],"stateMutability":"nonpayable","type":"function"},{"inputs":[],"name":"getDeposit","outputs":[{"internalType":"uint256","name":"","type":"uint256"}],"stateMutability":"view","type":"function"},{"inputs":[],"name":"getNonce","outputs":[{"internalType":"uint256","name":"","type":"uint256"}],"stateMutability":"view","type":"function"},{"inputs":[{"internalType":"address","name":"anOwner","type":"address"}],"name":"initialize","outputs":[],"stateMutability":"nonpayable","type":"function"},{"inputs":[{"internalType":"address","name":"","type":"address"},{"internalType":"address","name":"","type":"address"},{"internalType":"uint256[]","name":"","type":"uint256[]"},{"internalType":"uint256[]","name":"","type":"uint256[]"},{"internalType":"bytes","name":"","type":"bytes"}],"name":"onERC1155BatchReceived","outputs":[{"internalType":"bytes4","name":"","type":"bytes4"}],"stateMutability":"pure","type":"function"},{"inputs":[{"internalType":"address","name":"","type":"address"},{"internalType":"address","name":"","type":"address"},{"internalType":"uint256","name":"","type":"uint256"},{"internalType":"uint256","name":"","type":"uint256"},{"internalType":"bytes","name":"","type":"bytes"}],"name":"onERC1155Received","outputs":[{"internalType":"bytes4","name":"","type":"bytes4"}],"stateMutability":"pure","type":"function"},{"inputs":[{"internalType":"address","name":"","type":"address"},{"internalType":"address","name":"","type":"address"},{"internalType":"uint256","name":"","type":"uint256"},{"internalType":"bytes","name":"","type":"bytes"}],"name":"onERC721Received","outputs":[{"internalType":"bytes4","name":"","type":"bytes4"}],"stateMutability":"pure","type":"function"},{"inputs":[],"name":"owner","outputs":[{"internalType":"address","name":"","type":"address"}],"stateMutability":"view","type":"function"},{"inputs":[],"name":"proxiableUUID","outputs":[{"internalType":"bytes32","name":"","type":"bytes32"}],"stateMutability":"view","type":"function"},{"inputs":[{"internalType":"bytes4","name":"interfaceId","type":"bytes4"}],"name":"supportsInterface","outputs":[{"internalType":"bool","name":"","type":"bool"}],"stateMutability":"view","type":"function"},{"inputs":[{"internalType":"address","name":"newImplementation","type":"address"}],"name":"upgradeTo","outputs":[],"stateMutability":"nonpayable","type":"function"},{"inputs":[{"internalType":"address","name":"newImplementation","type":"address"},{"internalType":"bytes","name":"data","type":"bytes"}],"name":"upgradeToAndCall","outputs":[],"stateMutability":"payable","type":"function"},{"inputs":[{"components":[{"internalType":"address","name":"sender","type":"address"},{"internalType":"uint256","name":"nonce","type":"uint256"},{"internalType":"bytes","name":"initCode","type":"bytes"},{"internalType":"bytes","name":"callData","type":"bytes"},{"internalType":"bytes32","name":"accountGasLimits","type":"bytes32"},{"internalType":"uint256","name":"preVerificationGas","type":"uint256"},{"internalType":"bytes32","name":"gasFees","type":"bytes32"},{"internalType":"bytes","name":"paymasterAndData","type":"bytes"},{"internalType":"bytes","name":"signature","type":"bytes"}],"internalType":"struct PackedUserOperation","name":"userOp","type":"tuple"},{"internalType":"bytes32","name":"userOpHash","type":"bytes32"},{"internalType":"uint256","name":"missingAccountFunds","type":"uint256"}],"name":"validateUserOp","outputs":[{"internalType":"uint256","name":"validationData","type":"uint256"}],"stateMutability":"nonpayable","type":"function"},{"inputs":[{"internalType":"address payable","name":"withdrawAddress","type":"address"},{"internalType":"uint256","name":"amount","type":"uint256"}],"name":"withdrawDepositTo","outputs":[],"stateMutability":"nonpayable","type":"function"},{"stateMutability":"payable","type":"receive"}],"evm":{"bytecode":{"linkReferences":{},"object":"60c03461016157601f6200216038819003918201601f19168301916001600160401b038311848410176101665780849260209460405283398101031261016157516001600160a01b0381168103610161573060805260a05260005460ff8160081c1661010c5760ff808216106100d1575b604051611fe390816200017d82396080518181816104a701528181610b280152610d05015260a0518181816103670152818161081d015281816108fc01528181610e7a015281816110510152818161128c015281816117b2015261198a0152f35b60ff90811916176000557f7f26b83ff96e1f2b6a682f133852f6798a09c465da95921460cefb3847402498602060405160ff8152a138610070565b60405162461bcd60e51b815260206004820152602760248201527f496e697469616c697a61626c653a20636f6e747261637420697320696e697469604482015266616c697a696e6760c81b6064820152608490fd5b600080fd5b634e487b7160e01b600052604160045260246000fdfe6080604052600436101561001b575b361561001957600080fd5b005b60003560e01c806301ffc9a71461012b578063150b7a021461012657806319822f7c146101215780633659cfe61461011c57806347e1da2a146101175780634a58db19146101125780634d44560d1461010d5780634f1ef2861461010857806352d1902d146101035780638da5cb5b146100fe578063b0d691fe146100f9578063b61d27f6146100f4578063bc197c81146100ef578063c399ec88146100ea578063c4d66de8146100e5578063d087d288146100e05763f23a6e610361000e576112ef565b61120d565b6110aa565b610fd9565b610f12565b610e9e565b610e2f565b610dda565b610cbf565b610aa7565b61089e565b6107db565b610690565b610453565b6102fd565b61026c565b3461021b5760207ffffffffffffffffffffffffffffffffffffffffffffffffffffffffffffffffc36011261021b576004357fffffffff00000000000000000000000000000000000000000000000000000000811680910361021b57807f150b7a0200000000000000000000000000000000000000000000000000000000602092149081156101f1575b81156101c7575b506040519015158152f35b7f01ffc9a700000000000000000000000000000000000000000000000000000000915014386101bc565b7f4e2312e000000000000000000000000000000000000000000000000000000000811491506101b5565b600080fd5b73ffffffffffffffffffffffffffffffffffffffff81160361021b57565b9181601f8401121561021b5782359167ffffffffffffffff831161021b576020838186019501011161021b57565b3461021b5760807ffffffffffffffffffffffffffffffffffffffffffffffffffffffffffffffffc36011261021b576102a6600435610220565b6102b1602435610220565b60643567ffffffffffffffff811161021b576102d190369060040161023e565b505060206040517f150b7a02000000000000000000000000000000000000000000000000000000008152f35b3461021b577ffffffffffffffffffffffffffffffffffffffffffffffffffffffffffffffffc60608136011261021b576004359067ffffffffffffffff821161021b5761012090823603011261021b5760443573ffffffffffffffffffffffffffffffffffffffff7f00000000000000000000000000000000000000000000000000000000000000001633036103f5576103a06103b8926024359060040161165e565b90806103bc575b506040519081529081906020820190565b0390f35b600080808093337ffffffffffffffffffffffffffffffffffffffffffffffffffffffffffffffffff1506103ee6116df565b50386103a7565b60646040517f08c379a000000000000000000000000000000000000000000000000000000000815260206004820152601c60248201527f6163636f756e743a206e6f742066726f6d20456e747279506f696e74000000006044820152fd5b3461021b5760207ffffffffffffffffffffffffffffffffffffffffffffffffffffffffffffffffc36011261021b5760043561048e81610220565b73ffffffffffffffffffffffffffffffffffffffff90817f000000000000000000000000000000000000000000000000000000000000000016916104d483301415611380565b6105037f360894a13ba1a3210667c828492db98dca3e2076cc3735a920a3ca505d382bbc93828554161461140b565b61050b611892565b60405190610518826109bd565b600082527f4910fdfa16fed3260ed0e7147f7cc6da11a60208b5b9406d12a635614ffd91435460ff16156105525750506100199150611b10565b6020600491604094939451928380927f52d1902d00000000000000000000000000000000000000000000000000000000825286165afa6000918161062e575b5061061b576040517f08c379a000000000000000000000000000000000000000000000000000000000815260206004820152602e60248201527f45524331393637557067726164653a206e657720696d706c656d656e7461746960448201527f6f6e206973206e6f7420555550530000000000000000000000000000000000006064820152608490fd5b61001993610629911461170f565b6119d1565b61065191925060203d602011610658575b61064981836109f5565b8101906115c4565b9038610591565b503d61063f565b9181601f8401121561021b5782359167ffffffffffffffff831161021b576020808501948460051b01011161021b57565b3461021b5760607ffffffffffffffffffffffffffffffffffffffffffffffffffffffffffffffffc36011261021b5767ffffffffffffffff60043581811161021b576106e090369060040161065f565b60249291923582811161021b576106fb90369060040161065f565b9260443590811161021b5761071490369060040161065f565b93909161071f61179a565b848414806107ca575b61073190611496565b8161077e57505060005b82811061074457005b8061077861075d610758600194878a61152a565b61153f565b61077261076b84898861159d565b3691610a70565b90611853565b0161073b565b91909460009493945b85811061079057005b806107c46107a46107586001948a8761152a565b6107af838b8961152a565b356107be61076b858b8a61159d565b9161187b565b01610787565b508115806107285750818514610728565b6000807ffffffffffffffffffffffffffffffffffffffffffffffffffffffffffffffffc36011261089b5773ffffffffffffffffffffffffffffffffffffffff7f00000000000000000000000000000000000000000000000000000000000000001681813b1561089b57602491604051928380927fb760faf900000000000000000000000000000000000000000000000000000000825230600483015234905af180156108965761088a575080f35b610893906109a4565b80f35b6115b8565b80fd5b3461021b57600060407ffffffffffffffffffffffffffffffffffffffffffffffffffffffffffffffffc36011261089b576004356108db81610220565b6108e3611892565b8173ffffffffffffffffffffffffffffffffffffffff807f00000000000000000000000000000000000000000000000000000000000000001692833b15610971576044908360405195869485937f205c287800000000000000000000000000000000000000000000000000000000855216600484015260243560248401525af180156108965761088a575080f35b8280fd5b7f4e487b7100000000000000000000000000000000000000000000000000000000600052604160045260246000fd5b67ffffffffffffffff81116109b857604052565b610975565b6020810190811067ffffffffffffffff8211176109b857604052565b6060810190811067ffffffffffffffff8211176109b857604052565b90601f7fffffffffffffffffffffffffffffffffffffffffffffffffffffffffffffffe0910116810190811067ffffffffffffffff8211176109b857604052565b67ffffffffffffffff81116109b857601f017fffffffffffffffffffffffffffffffffffffffffffffffffffffffffffffffe01660200190565b929192610a7c82610a36565b91610a8a60405193846109f5565b82948184528183011161021b578281602093846000960137010152565b60407ffffffffffffffffffffffffffffffffffffffffffffffffffffffffffffffffc36011261021b57600435610add81610220565b60243567ffffffffffffffff811161021b573660238201121561021b57610b0e903690602481600401359101610a70565b9073ffffffffffffffffffffffffffffffffffffffff91827f00000000000000000000000000000000000000000000000000000000000000001692610b5584301415611380565b610b847f360894a13ba1a3210667c828492db98dca3e2076cc3735a920a3ca505d382bbc94828654161461140b565b610b8c611892565b7f4910fdfa16fed3260ed0e7147f7cc6da11a60208b5b9406d12a635614ffd91435460ff1615610bc25750506100199150611b10565b6020600491604094939451928380927f52d1902d00000000000000000000000000000000000000000000000000000000825286165afa60009181610c9e575b50610c8b576040517f08c379a000000000000000000000000000000000000000000000000000000000815260206004820152602e60248201527f45524331393637557067726164653a206e657720696d706c656d656e7461746960448201527f6f6e206973206e6f7420555550530000000000000000000000000000000000006064820152608490fd5b61001993610c99911461170f565b611ab0565b610cb891925060203d6020116106585761064981836109f5565b9038610c01565b3461021b5760007ffffffffffffffffffffffffffffffffffffffffffffffffffffffffffffffffc36011261021b5773ffffffffffffffffffffffffffffffffffffffff7f0000000000000000000000000000000000000000000000000000000000000000163003610d56576040517f360894a13ba1a3210667c828492db98dca3e2076cc3735a920a3ca505d382bbc8152602090f35b60846040517f08c379a000000000000000000000000000000000000000000000000000000000815260206004820152603860248201527f555550535570677261646561626c653a206d757374206e6f742062652063616c60448201527f6c6564207468726f7567682064656c656761746563616c6c00000000000000006064820152fd5b3461021b5760007ffffffffffffffffffffffffffffffffffffffffffffffffffffffffffffffffc36011261021b57602073ffffffffffffffffffffffffffffffffffffffff60005460101c16604051908152f35b3461021b5760007ffffffffffffffffffffffffffffffffffffffffffffffffffffffffffffffffc36011261021b57602060405173ffffffffffffffffffffffffffffffffffffffff7f0000000000000000000000000000000000000000000000000000000000000000168152f35b3461021b5760607ffffffffffffffffffffffffffffffffffffffffffffffffffffffffffffffffc36011261021b57600435610ed981610220565b6044359067ffffffffffffffff821161021b57610f08610f0061001993369060040161023e565b61076b61179a565b906024359061187b565b3461021b5760a07ffffffffffffffffffffffffffffffffffffffffffffffffffffffffffffffffc36011261021b57610f4c600435610220565b610f57602435610220565b67ffffffffffffffff60443581811161021b57610f7890369060040161065f565b505060643581811161021b57610f9290369060040161065f565b505060843590811161021b57610fac90369060040161023e565b50506040517fbc197c81000000000000000000000000000000000000000000000000000000008152602090f35b3461021b5760007ffffffffffffffffffffffffffffffffffffffffffffffffffffffffffffffffc36011261021b576040517f70a0823100000000000000000000000000000000000000000000000000000000815230600482015260208160248173ffffffffffffffffffffffffffffffffffffffff7f0000000000000000000000000000000000000000000000000000000000000000165afa80156108965760209160009161108d575b50604051908152f35b6110a49150823d84116106585761064981836109f5565b38611084565b3461021b5760207ffffffffffffffffffffffffffffffffffffffffffffffffffffffffffffffffc36011261021b576004356110e581610220565b6111476000549161110d60ff8460081c1615809481956111ff575b81156111df575b506115d3565b8261113e60017fffffffffffffffffffffffffffffffffffffffffffffffffffffffffffffff006000541617600055565b6111a957611925565b61114d57005b61117a7fffffffffffffffffffffffffffffffffffffffffffffffffffffffffffff00ff60005416600055565b604051600181527f7f26b83ff96e1f2b6a682f133852f6798a09c465da95921460cefb384740249890602090a1005b6111da6101007fffffffffffffffffffffffffffffffffffffffffffffffffffffffffffff00ff6000541617600055565b611925565b303b159150816111f1575b5038611107565b6001915060ff1614386111ea565b600160ff8216109150611100565b3461021b5760007ffffffffffffffffffffffffffffffffffffffffffffffffffffffffffffffffc36011261021b576040517f35567e1a0000000000000000000000000000000000000000000000000000000081523060048201526000602482015260208160448173ffffffffffffffffffffffffffffffffffffffff7f0000000000000000000000000000000000000000000000000000000000000000165afa8015610896576103b8916000916112d057506040519081529081906020820190565b6112e9915060203d6020116106585761064981836109f5565b386103a7565b3461021b5760a07ffffffffffffffffffffffffffffffffffffffffffffffffffffffffffffffffc36011261021b57611329600435610220565b611334602435610220565b60843567ffffffffffffffff811161021b5761135490369060040161023e565b505060206040517ff23a6e61000000000000000000000000000000000000000000000000000000008152f35b1561138757565b60846040517f08c379a000000000000000000000000000000000000000000000000000000000815260206004820152602c60248201527f46756e6374696f6e206d7573742062652063616c6c6564207468726f7567682060448201527f64656c656761746563616c6c00000000000000000000000000000000000000006064820152fd5b1561141257565b60846040517f08c379a000000000000000000000000000000000000000000000000000000000815260206004820152602c60248201527f46756e6374696f6e206d7573742062652063616c6c6564207468726f7567682060448201527f6163746976652070726f787900000000000000000000000000000000000000006064820152fd5b1561149d57565b60646040517f08c379a000000000000000000000000000000000000000000000000000000000815260206004820152601360248201527f77726f6e67206172726179206c656e67746873000000000000000000000000006044820152fd5b7f4e487b7100000000000000000000000000000000000000000000000000000000600052603260045260246000fd5b919081101561153a5760051b0190565b6114fb565b3561154981610220565b90565b9035907fffffffffffffffffffffffffffffffffffffffffffffffffffffffffffffffe18136030182121561021b570180359067ffffffffffffffff821161021b5760200191813603831361021b57565b9082101561153a576115b49160051b81019061154c565b9091565b6040513d6000823e3d90fd5b9081602091031261021b575190565b156115da57565b60846040517f08c379a000000000000000000000000000000000000000000000000000000000815260206004820152602e60248201527f496e697469616c697a61626c653a20636f6e747261637420697320616c72656160448201527f647920696e697469616c697a65640000000000000000000000000000000000006064820152fd5b907f19457468657265756d205369676e6564204d6573736167653a0a333200000000600052601c52603c6000206116cf6116c773ffffffffffffffffffffffffffffffffffffffff926116c161076b8560005460101c169661010081019061154c565b90611bfc565b919091611c69565b16036116da57600090565b600190565b3d1561170a573d906116f082610a36565b916116fe60405193846109f5565b82523d6000602084013e565b606090565b1561171657565b60846040517f08c379a000000000000000000000000000000000000000000000000000000000815260206004820152602960248201527f45524331393637557067726164653a20756e737570706f727465642070726f7860448201527f6961626c655555494400000000000000000000000000000000000000000000006064820152fd5b73ffffffffffffffffffffffffffffffffffffffff807f0000000000000000000000000000000000000000000000000000000000000000163314908115611842575b50156117e457565b60646040517f08c379a000000000000000000000000000000000000000000000000000000000815260206004820152602060248201527f6163636f756e743a206e6f74204f776e6572206f7220456e747279506f696e746044820152fd5b905060005460101c163314386117dc565b600091829182602083519301915af161186a6116df565b90156118735750565b602081519101fd5b916000928392602083519301915af161186a6116df565b73ffffffffffffffffffffffffffffffffffffffff60005460101c163314801561191c575b156118be57565b60646040517f08c379a000000000000000000000000000000000000000000000000000000000815260206004820152600a60248201527f6f6e6c79206f776e6572000000000000000000000000000000000000000000006044820152fd5b503033146118b7565b7fffffffffffffffffffff0000000000000000000000000000000000000000ffff75ffffffffffffffffffffffffffffffffffffffff00006000549260101b169116178060005573ffffffffffffffffffffffffffffffffffffffff809160101c16907f0000000000000000000000000000000000000000000000000000000000000000167f47e55c76e7a6f1fd8996a1da8008c1ea29699cca35e7bcd057f2dec313b6e5de600080a3565b906119db82611b10565b73ffffffffffffffffffffffffffffffffffffffff82167fbc7cd75a20ee27fd9adebab32041f755214dbc6bffa90cc0225b39da2e5c2d3b600080a2805115801590611aa8575b611a2a575050565b611aa59160008060405193611a3e856109d9565b602785527f416464726573733a206c6f772d6c6576656c2064656c65676174652063616c6c60208601527f206661696c6564000000000000000000000000000000000000000000000000006040860152602081519101845af4611a9f6116df565b91611ee6565b50565b506000611a22565b90611aba82611b10565b73ffffffffffffffffffffffffffffffffffffffff82167fbc7cd75a20ee27fd9adebab32041f755214dbc6bffa90cc0225b39da2e5c2d3b600080a2805115801590611b0857611a2a575050565b506001611a22565b803b15611b785773ffffffffffffffffffffffffffffffffffffffff7f360894a13ba1a3210667c828492db98dca3e2076cc3735a920a3ca505d382bbc91167fffffffffffffffffffffffff0000000000000000000000000000000000000000825416179055565b60846040517f08c379a000000000000000000000000000000000000000000000000000000000815260206004820152602d60248201527f455243313936373a206e657720696d706c656d656e746174696f6e206973206e60448201527f6f74206120636f6e7472616374000000000000000000000000000000000000006064820152fd5b906041815114600014611c26576115b4916020820151906060604084015193015160001a90611df2565b5050600090600290565b60051115611c3a57565b7f4e487b7100000000000000000000000000000000000000000000000000000000600052602160045260246000fd5b611c7281611c30565b80611c7a5750565b611c8381611c30565b60018103611cea576040517f08c379a000000000000000000000000000000000000000000000000000000000815260206004820152601860248201527f45434453413a20696e76616c6964207369676e617475726500000000000000006044820152606490fd5b611cf381611c30565b60028103611d5a576040517f08c379a000000000000000000000000000000000000000000000000000000000815260206004820152601f60248201527f45434453413a20696e76616c6964207369676e6174757265206c656e677468006044820152606490fd5b80611d66600392611c30565b14611d6d57565b6040517f08c379a000000000000000000000000000000000000000000000000000000000815260206004820152602260248201527f45434453413a20696e76616c6964207369676e6174757265202773272076616c60448201527f75650000000000000000000000000000000000000000000000000000000000006064820152608490fd5b9291907f7fffffffffffffffffffffffffffffff5d576e7357a4501ddfe92f46681b20a08311611e755791608094939160ff602094604051948552168484015260408301526060820152600093849182805260015afa1561089657815173ffffffffffffffffffffffffffffffffffffffff811615611e6f579190565b50600190565b50505050600090600390565b15611e8857565b60646040517f08c379a000000000000000000000000000000000000000000000000000000000815260206004820152601d60248201527f416464726573733a2063616c6c20746f206e6f6e2d636f6e74726163740000006044820152fd5b91929015611f065750815115611efa575090565b611549903b1515611e81565b825190915015611f195750805190602001fd5b604051907f08c379a000000000000000000000000000000000000000000000000000000000825281602080600483015282519283602484015260005b848110611f96575050507fffffffffffffffffffffffffffffffffffffffffffffffffffffffffffffffe0601f836000604480968601015201168101030190fd5b818101830151868201604401528593508201611f5556fea264697066735822122069392a2190d57d3efc1c92af9ef5ae5c082f6d5904d3fb0e8f85d44a4848f4af64736f6c63430008170033","opcodes":"PUSH1 0xC0 CALLVALUE PUSH2 0x161 JUMPI PUSH1 0x1F PUSH3 0x2160 CODESIZE DUP2 SWAP1 SUB SWAP2 DUP3 ADD PUSH1 0x1F NOT AND DUP4 ADD SWAP2 PUSH1 0x1 PUSH1 0x1 PUSH1 0x40 SHL SUB DUP4 GT DUP5 DUP5 LT OR PUSH2 0x166 JUMPI DUP1 DUP5 SWAP3 PUSH1 0x20 SWAP5 PUSH1 0x40 MSTORE DUP4 CODECOPY DUP2 ADD SUB SLT PUSH2 0x161 JUMPI MLOAD PUSH1 0x1 PUSH1 0x1 PUSH1 0xA0 SHL SUB DUP2 AND DUP2 SUB PUSH2 0x161 JUMPI ADDRESS PUSH1 0x80 MSTORE PUSH1 0xA0 MSTORE PUSH1 0x0 SLOAD PUSH1 0xFF DUP2 PUSH1 0x8 SHR AND PUSH2 0x10C JUMPI PUSH1 0xFF DUP1 DUP3 AND LT PUSH2 0xD1 JUMPI JUMPDEST PUSH1 0x40 MLOAD PUSH2 0x1FE3 SWAP1 DUP2 PUSH3 0x17D DUP3 CODECOPY PUSH1 0x80 MLOAD DUP2 DUP2 DUP2 PUSH2 0x4A7 ADD MSTORE DUP2 DUP2 PUSH2 0xB28 ADD MSTORE PUSH2 0xD05 ADD MSTORE PUSH1 0xA0 MLOAD DUP2 DUP2 DUP2 PUSH2 0x367 ADD MSTORE DUP2 DUP2 PUSH2 0x81D ADD MSTORE DUP2 DUP2 PUSH2 0x8FC ADD MSTORE DUP2 DUP2 PUSH2 0xE7A ADD MSTORE DUP2 DUP2 PUSH2 0x1051 ADD MSTORE DUP2 DUP2 PUSH2 0x128C ADD MSTORE DUP2 DUP2 PUSH2 0x17B2 ADD MSTORE PUSH2 0x198A ADD MSTORE RETURN JUMPDEST PUSH1 0xFF SWAP1 DUP2 NOT AND OR PUSH1 0x0 SSTORE PUSH32 0x7F26B83FF96E1F2B6A682F133852F6798A09C465DA95921460CEFB3847402498 PUSH1 0x20 PUSH1 0x40 MLOAD PUSH1 0xFF DUP2 MSTORE LOG1 CODESIZE PUSH2 0x70 JUMP JUMPDEST PUSH1 0x40 MLOAD PUSH3 0x461BCD PUSH1 0xE5 SHL DUP2 MSTORE PUSH1 0x20 PUSH1 0x4 DUP3 ADD MSTORE PUSH1 0x27 PUSH1 0x24 DUP3 ADD MSTORE PUSH32 0x496E697469616C697A61626C653A20636F6E747261637420697320696E697469 PUSH1 0x44 DUP3 ADD MSTORE PUSH7 0x616C697A696E67 PUSH1 0xC8 SHL PUSH1 0x64 DUP3 ADD MSTORE PUSH1 0x84 SWAP1 REVERT JUMPDEST PUSH1 0x0 DUP1 REVERT JUMPDEST PUSH4 0x4E487B71 PUSH1 0xE0 SHL PUSH1 0x0 MSTORE PUSH1 0x41 PUSH1 0x4 MSTORE PUSH1 0x24 PUSH1 0x0 REVERT INVALID PUSH1 0x80 PUSH1 0x40 MSTORE PUSH1 0x4 CALLDATASIZE LT ISZERO PUSH2 0x1B JUMPI JUMPDEST CALLDATASIZE ISZERO PUSH2 0x19 JUMPI PUSH1 0x0 DUP1 REVERT JUMPDEST STOP JUMPDEST PUSH1 0x0 CALLDATALOAD PUSH1 0xE0 SHR DUP1 PUSH4 0x1FFC9A7 EQ PUSH2 0x12B JUMPI DUP1 PUSH4 0x150B7A02 EQ PUSH2 0x126 JUMPI DUP1 PUSH4 0x19822F7C EQ PUSH2 0x121 JUMPI DUP1 PUSH4 0x3659CFE6 EQ PUSH2 0x11C JUMPI DUP1 PUSH4 0x47E1DA2A EQ PUSH2 0x117 JUMPI DUP1 PUSH4 0x4A58DB19 EQ PUSH2 0x112 JUMPI DUP1 PUSH4 0x4D44560D EQ PUSH2 0x10D JUMPI DUP1 PUSH4 0x4F1EF286 EQ PUSH2 0x108 JUMPI DUP1 PUSH4 0x52D1902D EQ PUSH2 0x103 JUMPI DUP1 PUSH4 0x8DA5CB5B EQ PUSH2 0xFE JUMPI DUP1 PUSH4 0xB0D691FE EQ PUSH2 0xF9 JUMPI DUP1 PUSH4 0xB61D27F6 EQ PUSH2 0xF4 JUMPI DUP1 PUSH4 0xBC197C81 EQ PUSH2 0xEF JUMPI DUP1 PUSH4 0xC399EC88 EQ PUSH2 0xEA JUMPI DUP1 PUSH4 0xC4D66DE8 EQ PUSH2 0xE5 JUMPI DUP1 PUSH4 0xD087D288 EQ PUSH2 0xE0 JUMPI PUSH4 0xF23A6E61 SUB PUSH2 0xE JUMPI PUSH2 0x12EF JUMP JUMPDEST PUSH2 0x120D JUMP JUMPDEST PUSH2 0x10AA JUMP JUMPDEST PUSH2 0xFD9 JUMP JUMPDEST PUSH2 0xF12 JUMP JUMPDEST PUSH2 0xE9E JUMP JUMPDEST PUSH2 0xE2F JUMP JUMPDEST PUSH2 0xDDA JUMP JUMPDEST PUSH2 0xCBF JUMP JUMPDEST PUSH2 0xAA7 JUMP JUMPDEST PUSH2 0x89E JUMP JUMPDEST PUSH2 0x7DB JUMP JUMPDEST PUSH2 0x690 JUMP JUMPDEST PUSH2 0x453 JUMP JUMPDEST PUSH2 0x2FD JUMP JUMPDEST PUSH2 0x26C JUMP JUMPDEST CALLVALUE PUSH2 0x21B JUMPI PUSH1 0x20 PUSH32 0xFFFFFFFFFFFFFFFFFFFFFFFFFFFFFFFFFFFFFFFFFFFFFFFFFFFFFFFFFFFFFFFC CALLDATASIZE ADD SLT PUSH2 0x21B JUMPI PUSH1 0x4 CALLDATALOAD PUSH32 0xFFFFFFFF00000000000000000000000000000000000000000000000000000000 DUP2 AND DUP1 SWAP2 SUB PUSH2 0x21B JUMPI DUP1 PUSH32 0x150B7A0200000000000000000000000000000000000000000000000000000000 PUSH1 0x20 SWAP3 EQ SWAP1 DUP2 ISZERO PUSH2 0x1F1 JUMPI JUMPDEST DUP2 ISZERO PUSH2 0x1C7 JUMPI JUMPDEST POP PUSH1 0x40 MLOAD SWAP1 ISZERO ISZERO DUP2 MSTORE RETURN JUMPDEST PUSH32 0x1FFC9A700000000000000000000000000000000000000000000000000000000 SWAP2 POP EQ CODESIZE PUSH2 0x1BC JUMP JUMPDEST PUSH32 0x4E2312E000000000000000000000000000000000000000000000000000000000 DUP2 EQ SWAP2 POP PUSH2 0x1B5 JUMP JUMPDEST PUSH1 0x0 DUP1 REVERT JUMPDEST PUSH20 0xFFFFFFFFFFFFFFFFFFFFFFFFFFFFFFFFFFFFFFFF DUP2 AND SUB PUSH2 0x21B JUMPI JUMP JUMPDEST SWAP2 DUP2 PUSH1 0x1F DUP5 ADD SLT ISZERO PUSH2 0x21B JUMPI DUP3 CALLDATALOAD SWAP2 PUSH8 0xFFFFFFFFFFFFFFFF DUP4 GT PUSH2 0x21B JUMPI PUSH1 0x20 DUP4 DUP2 DUP7 ADD SWAP6 ADD ADD GT PUSH2 0x21B JUMPI JUMP JUMPDEST CALLVALUE PUSH2 0x21B JUMPI PUSH1 0x80 PUSH32 0xFFFFFFFFFFFFFFFFFFFFFFFFFFFFFFFFFFFFFFFFFFFFFFFFFFFFFFFFFFFFFFFC CALLDATASIZE ADD SLT PUSH2 0x21B JUMPI PUSH2 0x2A6 PUSH1 0x4 CALLDATALOAD PUSH2 0x220 JUMP JUMPDEST PUSH2 0x2B1 PUSH1 0x24 CALLDATALOAD PUSH2 0x220 JUMP JUMPDEST PUSH1 0x64 CALLDATALOAD PUSH8 0xFFFFFFFFFFFFFFFF DUP2 GT PUSH2 0x21B JUMPI PUSH2 0x2D1 SWAP1 CALLDATASIZE SWAP1 PUSH1 0x4 ADD PUSH2 0x23E JUMP JUMPDEST POP POP PUSH1 0x20 PUSH1 0x40 MLOAD PUSH32 0x150B7A0200000000000000000000000000000000000000000000000000000000 DUP2 MSTORE RETURN JUMPDEST CALLVALUE PUSH2 0x21B JUMPI PUSH32 0xFFFFFFFFFFFFFFFFFFFFFFFFFFFFFFFFFFFFFFFFFFFFFFFFFFFFFFFFFFFFFFFC PUSH1 0x60 DUP2 CALLDATASIZE ADD SLT PUSH2 0x21B JUMPI PUSH1 0x4 CALLDATALOAD SWAP1 PUSH8 0xFFFFFFFFFFFFFFFF DUP3 GT PUSH2 0x21B JUMPI PUSH2 0x120 SWAP1 DUP3 CALLDATASIZE SUB ADD SLT PUSH2 0x21B JUMPI PUSH1 0x44 CALLDATALOAD PUSH20 0xFFFFFFFFFFFFFFFFFFFFFFFFFFFFFFFFFFFFFFFF PUSH32 0x0 AND CALLER SUB PUSH2 0x3F5 JUMPI PUSH2 0x3A0 PUSH2 0x3B8 SWAP3 PUSH1 0x24 CALLDATALOAD SWAP1 PUSH1 0x4 ADD PUSH2 0x165E JUMP JUMPDEST SWAP1 DUP1 PUSH2 0x3BC JUMPI JUMPDEST POP PUSH1 0x40 MLOAD SWAP1 DUP2 MSTORE SWAP1 DUP2 SWAP1 PUSH1 0x20 DUP3 ADD SWAP1 JUMP JUMPDEST SUB SWAP1 RETURN JUMPDEST PUSH1 0x0 DUP1 DUP1 DUP1 SWAP4 CALLER PUSH32 0xFFFFFFFFFFFFFFFFFFFFFFFFFFFFFFFFFFFFFFFFFFFFFFFFFFFFFFFFFFFFFFFF CALL POP PUSH2 0x3EE PUSH2 0x16DF JUMP JUMPDEST POP CODESIZE PUSH2 0x3A7 JUMP JUMPDEST PUSH1 0x64 PUSH1 0x40 MLOAD PUSH32 0x8C379A000000000000000000000000000000000000000000000000000000000 DUP2 MSTORE PUSH1 0x20 PUSH1 0x4 DUP3 ADD MSTORE PUSH1 0x1C PUSH1 0x24 DUP3 ADD MSTORE PUSH32 0x6163636F756E743A206E6F742066726F6D20456E747279506F696E7400000000 PUSH1 0x44 DUP3 ADD MSTORE REVERT JUMPDEST CALLVALUE PUSH2 0x21B JUMPI PUSH1 0x20 PUSH32 0xFFFFFFFFFFFFFFFFFFFFFFFFFFFFFFFFFFFFFFFFFFFFFFFFFFFFFFFFFFFFFFFC CALLDATASIZE ADD SLT PUSH2 0x21B JUMPI PUSH1 0x4 CALLDATALOAD PUSH2 0x48E DUP2 PUSH2 0x220 JUMP JUMPDEST PUSH20 0xFFFFFFFFFFFFFFFFFFFFFFFFFFFFFFFFFFFFFFFF SWAP1 DUP2 PUSH32 0x0 AND SWAP2 PUSH2 0x4D4 DUP4 ADDRESS EQ ISZERO PUSH2 0x1380 JUMP JUMPDEST PUSH2 0x503 PUSH32 0x360894A13BA1A3210667C828492DB98DCA3E2076CC3735A920A3CA505D382BBC SWAP4 DUP3 DUP6 SLOAD AND EQ PUSH2 0x140B JUMP JUMPDEST PUSH2 0x50B PUSH2 0x1892 JUMP JUMPDEST PUSH1 0x40 MLOAD SWAP1 PUSH2 0x518 DUP3 PUSH2 0x9BD JUMP JUMPDEST PUSH1 0x0 DUP3 MSTORE PUSH32 0x4910FDFA16FED3260ED0E7147F7CC6DA11A60208B5B9406D12A635614FFD9143 SLOAD PUSH1 0xFF AND ISZERO PUSH2 0x552 JUMPI POP POP PUSH2 0x19 SWAP2 POP PUSH2 0x1B10 JUMP JUMPDEST PUSH1 0x20 PUSH1 0x4 SWAP2 PUSH1 0x40 SWAP5 SWAP4 SWAP5 MLOAD SWAP3 DUP4 DUP1 SWAP3 PUSH32 0x52D1902D00000000000000000000000000000000000000000000000000000000 DUP3 MSTORE DUP7 AND GAS STATICCALL PUSH1 0x0 SWAP2 DUP2 PUSH2 0x62E JUMPI JUMPDEST POP PUSH2 0x61B JUMPI PUSH1 0x40 MLOAD PUSH32 0x8C379A000000000000000000000000000000000000000000000000000000000 DUP2 MSTORE PUSH1 0x20 PUSH1 0x4 DUP3 ADD MSTORE PUSH1 0x2E PUSH1 0x24 DUP3 ADD MSTORE PUSH32 0x45524331393637557067726164653A206E657720696D706C656D656E74617469 PUSH1 0x44 DUP3 ADD MSTORE PUSH32 0x6F6E206973206E6F742055555053000000000000000000000000000000000000 PUSH1 0x64 DUP3 ADD MSTORE PUSH1 0x84 SWAP1 REVERT JUMPDEST PUSH2 0x19 SWAP4 PUSH2 0x629 SWAP2 EQ PUSH2 0x170F JUMP JUMPDEST PUSH2 0x19D1 JUMP JUMPDEST PUSH2 0x651 SWAP2 SWAP3 POP PUSH1 0x20 RETURNDATASIZE PUSH1 0x20 GT PUSH2 0x658 JUMPI JUMPDEST PUSH2 0x649 DUP2 DUP4 PUSH2 0x9F5 JUMP JUMPDEST DUP2 ADD SWAP1 PUSH2 0x15C4 JUMP JUMPDEST SWAP1 CODESIZE PUSH2 0x591 JUMP JUMPDEST POP RETURNDATASIZE PUSH2 0x63F JUMP JUMPDEST SWAP2 DUP2 PUSH1 0x1F DUP5 ADD SLT ISZERO PUSH2 0x21B JUMPI DUP3 CALLDATALOAD SWAP2 PUSH8 0xFFFFFFFFFFFFFFFF DUP4 GT PUSH2 0x21B JUMPI PUSH1 0x20 DUP1 DUP6 ADD SWAP5 DUP5 PUSH1 0x5 SHL ADD ADD GT PUSH2 0x21B JUMPI JUMP JUMPDEST CALLVALUE PUSH2 0x21B JUMPI PUSH1 0x60 PUSH32 0xFFFFFFFFFFFFFFFFFFFFFFFFFFFFFFFFFFFFFFFFFFFFFFFFFFFFFFFFFFFFFFFC CALLDATASIZE ADD SLT PUSH2 0x21B JUMPI PUSH8 0xFFFFFFFFFFFFFFFF PUSH1 0x4 CALLDATALOAD DUP2 DUP2 GT PUSH2 0x21B JUMPI PUSH2 0x6E0 SWAP1 CALLDATASIZE SWAP1 PUSH1 0x4 ADD PUSH2 0x65F JUMP JUMPDEST PUSH1 0x24 SWAP3 SWAP2 SWAP3 CALLDATALOAD DUP3 DUP2 GT PUSH2 0x21B JUMPI PUSH2 0x6FB SWAP1 CALLDATASIZE SWAP1 PUSH1 0x4 ADD PUSH2 0x65F JUMP JUMPDEST SWAP3 PUSH1 0x44 CALLDATALOAD SWAP1 DUP2 GT PUSH2 0x21B JUMPI PUSH2 0x714 SWAP1 CALLDATASIZE SWAP1 PUSH1 0x4 ADD PUSH2 0x65F JUMP JUMPDEST SWAP4 SWAP1 SWAP2 PUSH2 0x71F PUSH2 0x179A JUMP JUMPDEST DUP5 DUP5 EQ DUP1 PUSH2 0x7CA JUMPI JUMPDEST PUSH2 0x731 SWAP1 PUSH2 0x1496 JUMP JUMPDEST DUP2 PUSH2 0x77E JUMPI POP POP PUSH1 0x0 JUMPDEST DUP3 DUP2 LT PUSH2 0x744 JUMPI STOP JUMPDEST DUP1 PUSH2 0x778 PUSH2 0x75D PUSH2 0x758 PUSH1 0x1 SWAP5 DUP8 DUP11 PUSH2 0x152A JUMP JUMPDEST PUSH2 0x153F JUMP JUMPDEST PUSH2 0x772 PUSH2 0x76B DUP5 DUP10 DUP9 PUSH2 0x159D JUMP JUMPDEST CALLDATASIZE SWAP2 PUSH2 0xA70 JUMP JUMPDEST SWAP1 PUSH2 0x1853 JUMP JUMPDEST ADD PUSH2 0x73B JUMP JUMPDEST SWAP2 SWAP1 SWAP5 PUSH1 0x0 SWAP5 SWAP4 SWAP5 JUMPDEST DUP6 DUP2 LT PUSH2 0x790 JUMPI STOP JUMPDEST DUP1 PUSH2 0x7C4 PUSH2 0x7A4 PUSH2 0x758 PUSH1 0x1 SWAP5 DUP11 DUP8 PUSH2 0x152A JUMP JUMPDEST PUSH2 0x7AF DUP4 DUP12 DUP10 PUSH2 0x152A JUMP JUMPDEST CALLDATALOAD PUSH2 0x7BE PUSH2 0x76B DUP6 DUP12 DUP11 PUSH2 0x159D JUMP JUMPDEST SWAP2 PUSH2 0x187B JUMP JUMPDEST ADD PUSH2 0x787 JUMP JUMPDEST POP DUP2 ISZERO DUP1 PUSH2 0x728 JUMPI POP DUP2 DUP6 EQ PUSH2 0x728 JUMP JUMPDEST PUSH1 0x0 DUP1 PUSH32 0xFFFFFFFFFFFFFFFFFFFFFFFFFFFFFFFFFFFFFFFFFFFFFFFFFFFFFFFFFFFFFFFC CALLDATASIZE ADD SLT PUSH2 0x89B JUMPI PUSH20 0xFFFFFFFFFFFFFFFFFFFFFFFFFFFFFFFFFFFFFFFF PUSH32 0x0 AND DUP2 DUP2 EXTCODESIZE ISZERO PUSH2 0x89B JUMPI PUSH1 0x24 SWAP2 PUSH1 0x40 MLOAD SWAP3 DUP4 DUP1 SWAP3 PUSH32 0xB760FAF900000000000000000000000000000000000000000000000000000000 DUP3 MSTORE ADDRESS PUSH1 0x4 DUP4 ADD MSTORE CALLVALUE SWAP1 GAS CALL DUP1 ISZERO PUSH2 0x896 JUMPI PUSH2 0x88A JUMPI POP DUP1 RETURN JUMPDEST PUSH2 0x893 SWAP1 PUSH2 0x9A4 JUMP JUMPDEST DUP1 RETURN JUMPDEST PUSH2 0x15B8 JUMP JUMPDEST DUP1 REVERT JUMPDEST CALLVALUE PUSH2 0x21B JUMPI PUSH1 0x0 PUSH1 0x40 PUSH32 0xFFFFFFFFFFFFFFFFFFFFFFFFFFFFFFFFFFFFFFFFFFFFFFFFFFFFFFFFFFFFFFFC CALLDATASIZE ADD SLT PUSH2 0x89B JUMPI PUSH1 0x4 CALLDATALOAD PUSH2 0x8DB DUP2 PUSH2 0x220 JUMP JUMPDEST PUSH2 0x8E3 PUSH2 0x1892 JUMP JUMPDEST DUP2 PUSH20 0xFFFFFFFFFFFFFFFFFFFFFFFFFFFFFFFFFFFFFFFF DUP1 PUSH32 0x0 AND SWAP3 DUP4 EXTCODESIZE ISZERO PUSH2 0x971 JUMPI PUSH1 0x44 SWAP1 DUP4 PUSH1 0x40 MLOAD SWAP6 DUP7 SWAP5 DUP6 SWAP4 PUSH32 0x205C287800000000000000000000000000000000000000000000000000000000 DUP6 MSTORE AND PUSH1 0x4 DUP5 ADD MSTORE PUSH1 0x24 CALLDATALOAD PUSH1 0x24 DUP5 ADD MSTORE GAS CALL DUP1 ISZERO PUSH2 0x896 JUMPI PUSH2 0x88A JUMPI POP DUP1 RETURN JUMPDEST DUP3 DUP1 REVERT JUMPDEST PUSH32 0x4E487B7100000000000000000000000000000000000000000000000000000000 PUSH1 0x0 MSTORE PUSH1 0x41 PUSH1 0x4 MSTORE PUSH1 0x24 PUSH1 0x0 REVERT JUMPDEST PUSH8 0xFFFFFFFFFFFFFFFF DUP2 GT PUSH2 0x9B8 JUMPI PUSH1 0x40 MSTORE JUMP JUMPDEST PUSH2 0x975 JUMP JUMPDEST PUSH1 0x20 DUP2 ADD SWAP1 DUP2 LT PUSH8 0xFFFFFFFFFFFFFFFF DUP3 GT OR PUSH2 0x9B8 JUMPI PUSH1 0x40 MSTORE JUMP JUMPDEST PUSH1 0x60 DUP2 ADD SWAP1 DUP2 LT PUSH8 0xFFFFFFFFFFFFFFFF DUP3 GT OR PUSH2 0x9B8 JUMPI PUSH1 0x40 MSTORE JUMP JUMPDEST SWAP1 PUSH1 0x1F PUSH32 0xFFFFFFFFFFFFFFFFFFFFFFFFFFFFFFFFFFFFFFFFFFFFFFFFFFFFFFFFFFFFFFE0 SWAP2 ADD AND DUP2 ADD SWAP1 DUP2 LT PUSH8 0xFFFFFFFFFFFFFFFF DUP3 GT OR PUSH2 0x9B8 JUMPI PUSH1 0x40 MSTORE JUMP JUMPDEST PUSH8 0xFFFFFFFFFFFFFFFF DUP2 GT PUSH2 0x9B8 JUMPI PUSH1 0x1F ADD PUSH32 0xFFFFFFFFFFFFFFFFFFFFFFFFFFFFFFFFFFFFFFFFFFFFFFFFFFFFFFFFFFFFFFE0 AND PUSH1 0x20 ADD SWAP1 JUMP JUMPDEST SWAP3 SWAP2 SWAP3 PUSH2 0xA7C DUP3 PUSH2 0xA36 JUMP JUMPDEST SWAP2 PUSH2 0xA8A PUSH1 0x40 MLOAD SWAP4 DUP5 PUSH2 0x9F5 JUMP JUMPDEST DUP3 SWAP5 DUP2 DUP5 MSTORE DUP2 DUP4 ADD GT PUSH2 0x21B JUMPI DUP3 DUP2 PUSH1 0x20 SWAP4 DUP5 PUSH1 0x0 SWAP7 ADD CALLDATACOPY ADD ADD MSTORE JUMP JUMPDEST PUSH1 0x40 PUSH32 0xFFFFFFFFFFFFFFFFFFFFFFFFFFFFFFFFFFFFFFFFFFFFFFFFFFFFFFFFFFFFFFFC CALLDATASIZE ADD SLT PUSH2 0x21B JUMPI PUSH1 0x4 CALLDATALOAD PUSH2 0xADD DUP2 PUSH2 0x220 JUMP JUMPDEST PUSH1 0x24 CALLDATALOAD PUSH8 0xFFFFFFFFFFFFFFFF DUP2 GT PUSH2 0x21B JUMPI CALLDATASIZE PUSH1 0x23 DUP3 ADD SLT ISZERO PUSH2 0x21B JUMPI PUSH2 0xB0E SWAP1 CALLDATASIZE SWAP1 PUSH1 0x24 DUP2 PUSH1 0x4 ADD CALLDATALOAD SWAP2 ADD PUSH2 0xA70 JUMP JUMPDEST SWAP1 PUSH20 0xFFFFFFFFFFFFFFFFFFFFFFFFFFFFFFFFFFFFFFFF SWAP2 DUP3 PUSH32 0x0 AND SWAP3 PUSH2 0xB55 DUP5 ADDRESS EQ ISZERO PUSH2 0x1380 JUMP JUMPDEST PUSH2 0xB84 PUSH32 0x360894A13BA1A3210667C828492DB98DCA3E2076CC3735A920A3CA505D382BBC SWAP5 DUP3 DUP7 SLOAD AND EQ PUSH2 0x140B JUMP JUMPDEST PUSH2 0xB8C PUSH2 0x1892 JUMP JUMPDEST PUSH32 0x4910FDFA16FED3260ED0E7147F7CC6DA11A60208B5B9406D12A635614FFD9143 SLOAD PUSH1 0xFF AND ISZERO PUSH2 0xBC2 JUMPI POP POP PUSH2 0x19 SWAP2 POP PUSH2 0x1B10 JUMP JUMPDEST PUSH1 0x20 PUSH1 0x4 SWAP2 PUSH1 0x40 SWAP5 SWAP4 SWAP5 MLOAD SWAP3 DUP4 DUP1 SWAP3 PUSH32 0x52D1902D00000000000000000000000000000000000000000000000000000000 DUP3 MSTORE DUP7 AND GAS STATICCALL PUSH1 0x0 SWAP2 DUP2 PUSH2 0xC9E JUMPI JUMPDEST POP PUSH2 0xC8B JUMPI PUSH1 0x40 MLOAD PUSH32 0x8C379A000000000000000000000000000000000000000000000000000000000 DUP2 MSTORE PUSH1 0x20 PUSH1 0x4 DUP3 ADD MSTORE PUSH1 0x2E PUSH1 0x24 DUP3 ADD MSTORE PUSH32 0x45524331393637557067726164653A206E657720696D706C656D656E74617469 PUSH1 0x44 DUP3 ADD MSTORE PUSH32 0x6F6E206973206E6F742055555053000000000000000000000000000000000000 PUSH1 0x64 DUP3 ADD MSTORE PUSH1 0x84 SWAP1 REVERT JUMPDEST PUSH2 0x19 SWAP4 PUSH2 0xC99 SWAP2 EQ PUSH2 0x170F JUMP JUMPDEST PUSH2 0x1AB0 JUMP JUMPDEST PUSH2 0xCB8 SWAP2 SWAP3 POP PUSH1 0x20 RETURNDATASIZE PUSH1 0x20 GT PUSH2 0x658 JUMPI PUSH2 0x649 DUP2 DUP4 PUSH2 0x9F5 JUMP JUMPDEST SWAP1 CODESIZE PUSH2 0xC01 JUMP JUMPDEST CALLVALUE PUSH2 0x21B JUMPI PUSH1 0x0 PUSH32 0xFFFFFFFFFFFFFFFFFFFFFFFFFFFFFFFFFFFFFFFFFFFFFFFFFFFFFFFFFFFFFFFC CALLDATASIZE ADD SLT PUSH2 0x21B JUMPI PUSH20 0xFFFFFFFFFFFFFFFFFFFFFFFFFFFFFFFFFFFFFFFF PUSH32 0x0 AND ADDRESS SUB PUSH2 0xD56 JUMPI PUSH1 0x40 MLOAD PUSH32 0x360894A13BA1A3210667C828492DB98DCA3E2076CC3735A920A3CA505D382BBC DUP2 MSTORE PUSH1 0x20 SWAP1 RETURN JUMPDEST PUSH1 0x84 PUSH1 0x40 MLOAD PUSH32 0x8C379A000000000000000000000000000000000000000000000000000000000 DUP2 MSTORE PUSH1 0x20 PUSH1 0x4 DUP3 ADD MSTORE PUSH1 0x38 PUSH1 0x24 DUP3 ADD MSTORE PUSH32 0x555550535570677261646561626C653A206D757374206E6F742062652063616C PUSH1 0x44 DUP3 ADD MSTORE PUSH32 0x6C6564207468726F7567682064656C656761746563616C6C0000000000000000 PUSH1 0x64 DUP3 ADD MSTORE REVERT JUMPDEST CALLVALUE PUSH2 0x21B JUMPI PUSH1 0x0 PUSH32 0xFFFFFFFFFFFFFFFFFFFFFFFFFFFFFFFFFFFFFFFFFFFFFFFFFFFFFFFFFFFFFFFC CALLDATASIZE ADD SLT PUSH2 0x21B JUMPI PUSH1 0x20 PUSH20 0xFFFFFFFFFFFFFFFFFFFFFFFFFFFFFFFFFFFFFFFF PUSH1 0x0 SLOAD PUSH1 0x10 SHR AND PUSH1 0x40 MLOAD SWAP1 DUP2 MSTORE RETURN JUMPDEST CALLVALUE PUSH2 0x21B JUMPI PUSH1 0x0 PUSH32 0xFFFFFFFFFFFFFFFFFFFFFFFFFFFFFFFFFFFFFFFFFFFFFFFFFFFFFFFFFFFFFFFC CALLDATASIZE ADD SLT PUSH2 0x21B JUMPI PUSH1 0x20 PUSH1 0x40 MLOAD PUSH20 0xFFFFFFFFFFFFFFFFFFFFFFFFFFFFFFFFFFFFFFFF PUSH32 0x0 AND DUP2 MSTORE RETURN JUMPDEST CALLVALUE PUSH2 0x21B JUMPI PUSH1 0x60 PUSH32 0xFFFFFFFFFFFFFFFFFFFFFFFFFFFFFFFFFFFFFFFFFFFFFFFFFFFFFFFFFFFFFFFC CALLDATASIZE ADD SLT PUSH2 0x21B JUMPI PUSH1 0x4 CALLDATALOAD PUSH2 0xED9 DUP2 PUSH2 0x220 JUMP JUMPDEST PUSH1 0x44 CALLDATALOAD SWAP1 PUSH8 0xFFFFFFFFFFFFFFFF DUP3 GT PUSH2 0x21B JUMPI PUSH2 0xF08 PUSH2 0xF00 PUSH2 0x19 SWAP4 CALLDATASIZE SWAP1 PUSH1 0x4 ADD PUSH2 0x23E JUMP JUMPDEST PUSH2 0x76B PUSH2 0x179A JUMP JUMPDEST SWAP1 PUSH1 0x24 CALLDATALOAD SWAP1 PUSH2 0x187B JUMP JUMPDEST CALLVALUE PUSH2 0x21B JUMPI PUSH1 0xA0 PUSH32 0xFFFFFFFFFFFFFFFFFFFFFFFFFFFFFFFFFFFFFFFFFFFFFFFFFFFFFFFFFFFFFFFC CALLDATASIZE ADD SLT PUSH2 0x21B JUMPI PUSH2 0xF4C PUSH1 0x4 CALLDATALOAD PUSH2 0x220 JUMP JUMPDEST PUSH2 0xF57 PUSH1 0x24 CALLDATALOAD PUSH2 0x220 JUMP JUMPDEST PUSH8 0xFFFFFFFFFFFFFFFF PUSH1 0x44 CALLDATALOAD DUP2 DUP2 GT PUSH2 0x21B JUMPI PUSH2 0xF78 SWAP1 CALLDATASIZE SWAP1 PUSH1 0x4 ADD PUSH2 0x65F JUMP JUMPDEST POP POP PUSH1 0x64 CALLDATALOAD DUP2 DUP2 GT PUSH2 0x21B JUMPI PUSH2 0xF92 SWAP1 CALLDATASIZE SWAP1 PUSH1 0x4 ADD PUSH2 0x65F JUMP JUMPDEST POP POP PUSH1 0x84 CALLDATALOAD SWAP1 DUP2 GT PUSH2 0x21B JUMPI PUSH2 0xFAC SWAP1 CALLDATASIZE SWAP1 PUSH1 0x4 ADD PUSH2 0x23E JUMP JUMPDEST POP POP PUSH1 0x40 MLOAD PUSH32 0xBC197C8100000000000000000000000000000000000000000000000000000000 DUP2 MSTORE PUSH1 0x20 SWAP1 RETURN JUMPDEST CALLVALUE PUSH2 0x21B JUMPI PUSH1 0x0 PUSH32 0xFFFFFFFFFFFFFFFFFFFFFFFFFFFFFFFFFFFFFFFFFFFFFFFFFFFFFFFFFFFFFFFC CALLDATASIZE ADD SLT PUSH2 0x21B JUMPI PUSH1 0x40 MLOAD PUSH32 0x70A0823100000000000000000000000000000000000000000000000000000000 DUP2 MSTORE ADDRESS PUSH1 0x4 DUP3 ADD MSTORE PUSH1 0x20 DUP2 PUSH1 0x24 DUP2 PUSH20 0xFFFFFFFFFFFFFFFFFFFFFFFFFFFFFFFFFFFFFFFF PUSH32 0x0 AND GAS STATICCALL DUP1 ISZERO PUSH2 0x896 JUMPI PUSH1 0x20 SWAP2 PUSH1 0x0 SWAP2 PUSH2 0x108D JUMPI JUMPDEST POP PUSH1 0x40 MLOAD SWAP1 DUP2 MSTORE RETURN JUMPDEST PUSH2 0x10A4 SWAP2 POP DUP3 RETURNDATASIZE DUP5 GT PUSH2 0x658 JUMPI PUSH2 0x649 DUP2 DUP4 PUSH2 0x9F5 JUMP JUMPDEST CODESIZE PUSH2 0x1084 JUMP JUMPDEST CALLVALUE PUSH2 0x21B JUMPI PUSH1 0x20 PUSH32 0xFFFFFFFFFFFFFFFFFFFFFFFFFFFFFFFFFFFFFFFFFFFFFFFFFFFFFFFFFFFFFFFC CALLDATASIZE ADD SLT PUSH2 0x21B JUMPI PUSH1 0x4 CALLDATALOAD PUSH2 0x10E5 DUP2 PUSH2 0x220 JUMP JUMPDEST PUSH2 0x1147 PUSH1 0x0 SLOAD SWAP2 PUSH2 0x110D PUSH1 0xFF DUP5 PUSH1 0x8 SHR AND ISZERO DUP1 SWAP5 DUP2 SWAP6 PUSH2 0x11FF JUMPI JUMPDEST DUP2 ISZERO PUSH2 0x11DF JUMPI JUMPDEST POP PUSH2 0x15D3 JUMP JUMPDEST DUP3 PUSH2 0x113E PUSH1 0x1 PUSH32 0xFFFFFFFFFFFFFFFFFFFFFFFFFFFFFFFFFFFFFFFFFFFFFFFFFFFFFFFFFFFFFF00 PUSH1 0x0 SLOAD AND OR PUSH1 0x0 SSTORE JUMP JUMPDEST PUSH2 0x11A9 JUMPI PUSH2 0x1925 JUMP JUMPDEST PUSH2 0x114D JUMPI STOP JUMPDEST PUSH2 0x117A PUSH32 0xFFFFFFFFFFFFFFFFFFFFFFFFFFFFFFFFFFFFFFFFFFFFFFFFFFFFFFFFFFFF00FF PUSH1 0x0 SLOAD AND PUSH1 0x0 SSTORE JUMP JUMPDEST PUSH1 0x40 MLOAD PUSH1 0x1 DUP2 MSTORE PUSH32 0x7F26B83FF96E1F2B6A682F133852F6798A09C465DA95921460CEFB3847402498 SWAP1 PUSH1 0x20 SWAP1 LOG1 STOP JUMPDEST PUSH2 0x11DA PUSH2 0x100 PUSH32 0xFFFFFFFFFFFFFFFFFFFFFFFFFFFFFFFFFFFFFFFFFFFFFFFFFFFFFFFFFFFF00FF PUSH1 0x0 SLOAD AND OR PUSH1 0x0 SSTORE JUMP JUMPDEST PUSH2 0x1925 JUMP JUMPDEST ADDRESS EXTCODESIZE ISZERO SWAP2 POP DUP2 PUSH2 0x11F1 JUMPI JUMPDEST POP CODESIZE PUSH2 0x1107 JUMP JUMPDEST PUSH1 0x1 SWAP2 POP PUSH1 0xFF AND EQ CODESIZE PUSH2 0x11EA JUMP JUMPDEST PUSH1 0x1 PUSH1 0xFF DUP3 AND LT SWAP2 POP PUSH2 0x1100 JUMP JUMPDEST CALLVALUE PUSH2 0x21B JUMPI PUSH1 0x0 PUSH32 0xFFFFFFFFFFFFFFFFFFFFFFFFFFFFFFFFFFFFFFFFFFFFFFFFFFFFFFFFFFFFFFFC CALLDATASIZE ADD SLT PUSH2 0x21B JUMPI PUSH1 0x40 MLOAD PUSH32 0x35567E1A00000000000000000000000000000000000000000000000000000000 DUP2 MSTORE ADDRESS PUSH1 0x4 DUP3 ADD MSTORE PUSH1 0x0 PUSH1 0x24 DUP3 ADD MSTORE PUSH1 0x20 DUP2 PUSH1 0x44 DUP2 PUSH20 0xFFFFFFFFFFFFFFFFFFFFFFFFFFFFFFFFFFFFFFFF PUSH32 0x0 AND GAS STATICCALL DUP1 ISZERO PUSH2 0x896 JUMPI PUSH2 0x3B8 SWAP2 PUSH1 0x0 SWAP2 PUSH2 0x12D0 JUMPI POP PUSH1 0x40 MLOAD SWAP1 DUP2 MSTORE SWAP1 DUP2 SWAP1 PUSH1 0x20 DUP3 ADD SWAP1 JUMP JUMPDEST PUSH2 0x12E9 SWAP2 POP PUSH1 0x20 RETURNDATASIZE PUSH1 0x20 GT PUSH2 0x658 JUMPI PUSH2 0x649 DUP2 DUP4 PUSH2 0x9F5 JUMP JUMPDEST CODESIZE PUSH2 0x3A7 JUMP JUMPDEST CALLVALUE PUSH2 0x21B JUMPI PUSH1 0xA0 PUSH32 0xFFFFFFFFFFFFFFFFFFFFFFFFFFFFFFFFFFFFFFFFFFFFFFFFFFFFFFFFFFFFFFFC CALLDATASIZE ADD SLT PUSH2 0x21B JUMPI PUSH2 0x1329 PUSH1 0x4 CALLDATALOAD PUSH2 0x220 JUMP JUMPDEST PUSH2 0x1334 PUSH1 0x24 CALLDATALOAD PUSH2 0x220 JUMP JUMPDEST PUSH1 0x84 CALLDATALOAD PUSH8 0xFFFFFFFFFFFFFFFF DUP2 GT PUSH2 0x21B JUMPI PUSH2 0x1354 SWAP1 CALLDATASIZE SWAP1 PUSH1 0x4 ADD PUSH2 0x23E JUMP JUMPDEST POP POP PUSH1 0x20 PUSH1 0x40 MLOAD PUSH32 0xF23A6E6100000000000000000000000000000000000000000000000000000000 DUP2 MSTORE RETURN JUMPDEST ISZERO PUSH2 0x1387 JUMPI JUMP JUMPDEST PUSH1 0x84 PUSH1 0x40 MLOAD PUSH32 0x8C379A000000000000000000000000000000000000000000000000000000000 DUP2 MSTORE PUSH1 0x20 PUSH1 0x4 DUP3 ADD MSTORE PUSH1 0x2C PUSH1 0x24 DUP3 ADD MSTORE PUSH32 0x46756E6374696F6E206D7573742062652063616C6C6564207468726F75676820 PUSH1 0x44 DUP3 ADD MSTORE PUSH32 0x64656C656761746563616C6C0000000000000000000000000000000000000000 PUSH1 0x64 DUP3 ADD MSTORE REVERT JUMPDEST ISZERO PUSH2 0x1412 JUMPI JUMP JUMPDEST PUSH1 0x84 PUSH1 0x40 MLOAD PUSH32 0x8C379A000000000000000000000000000000000000000000000000000000000 DUP2 MSTORE PUSH1 0x20 PUSH1 0x4 DUP3 ADD MSTORE PUSH1 0x2C PUSH1 0x24 DUP3 ADD MSTORE PUSH32 0x46756E6374696F6E206D7573742062652063616C6C6564207468726F75676820 PUSH1 0x44 DUP3 ADD MSTORE PUSH32 0x6163746976652070726F78790000000000000000000000000000000000000000 PUSH1 0x64 DUP3 ADD MSTORE REVERT JUMPDEST ISZERO PUSH2 0x149D JUMPI JUMP JUMPDEST PUSH1 0x64 PUSH1 0x40 MLOAD PUSH32 0x8C379A000000000000000000000000000000000000000000000000000000000 DUP2 MSTORE PUSH1 0x20 PUSH1 0x4 DUP3 ADD MSTORE PUSH1 0x13 PUSH1 0x24 DUP3 ADD MSTORE PUSH32 0x77726F6E67206172726179206C656E6774687300000000000000000000000000 PUSH1 0x44 DUP3 ADD MSTORE REVERT JUMPDEST PUSH32 0x4E487B7100000000000000000000000000000000000000000000000000000000 PUSH1 0x0 MSTORE PUSH1 0x32 PUSH1 0x4 MSTORE PUSH1 0x24 PUSH1 0x0 REVERT JUMPDEST SWAP2 SWAP1 DUP2 LT ISZERO PUSH2 0x153A JUMPI PUSH1 0x5 SHL ADD SWAP1 JUMP JUMPDEST PUSH2 0x14FB JUMP JUMPDEST CALLDATALOAD PUSH2 0x1549 DUP2 PUSH2 0x220 JUMP JUMPDEST SWAP1 JUMP JUMPDEST SWAP1 CALLDATALOAD SWAP1 PUSH32 0xFFFFFFFFFFFFFFFFFFFFFFFFFFFFFFFFFFFFFFFFFFFFFFFFFFFFFFFFFFFFFFE1 DUP2 CALLDATASIZE SUB ADD DUP3 SLT ISZERO PUSH2 0x21B JUMPI ADD DUP1 CALLDATALOAD SWAP1 PUSH8 0xFFFFFFFFFFFFFFFF DUP3 GT PUSH2 0x21B JUMPI PUSH1 0x20 ADD SWAP2 DUP2 CALLDATASIZE SUB DUP4 SGT PUSH2 0x21B JUMPI JUMP JUMPDEST SWAP1 DUP3 LT ISZERO PUSH2 0x153A JUMPI PUSH2 0x15B4 SWAP2 PUSH1 0x5 SHL DUP2 ADD SWAP1 PUSH2 0x154C JUMP JUMPDEST SWAP1 SWAP2 JUMP JUMPDEST PUSH1 0x40 MLOAD RETURNDATASIZE PUSH1 0x0 DUP3 RETURNDATACOPY RETURNDATASIZE SWAP1 REVERT JUMPDEST SWAP1 DUP2 PUSH1 0x20 SWAP2 SUB SLT PUSH2 0x21B JUMPI MLOAD SWAP1 JUMP JUMPDEST ISZERO PUSH2 0x15DA JUMPI JUMP JUMPDEST PUSH1 0x84 PUSH1 0x40 MLOAD PUSH32 0x8C379A000000000000000000000000000000000000000000000000000000000 DUP2 MSTORE PUSH1 0x20 PUSH1 0x4 DUP3 ADD MSTORE PUSH1 0x2E PUSH1 0x24 DUP3 ADD MSTORE PUSH32 0x496E697469616C697A61626C653A20636F6E747261637420697320616C726561 PUSH1 0x44 DUP3 ADD MSTORE PUSH32 0x647920696E697469616C697A6564000000000000000000000000000000000000 PUSH1 0x64 DUP3 ADD MSTORE REVERT JUMPDEST SWAP1 PUSH32 0x19457468657265756D205369676E6564204D6573736167653A0A333200000000 PUSH1 0x0 MSTORE PUSH1 0x1C MSTORE PUSH1 0x3C PUSH1 0x0 KECCAK256 PUSH2 0x16CF PUSH2 0x16C7 PUSH20 0xFFFFFFFFFFFFFFFFFFFFFFFFFFFFFFFFFFFFFFFF SWAP3 PUSH2 0x16C1 PUSH2 0x76B DUP6 PUSH1 0x0 SLOAD PUSH1 0x10 SHR AND SWAP7 PUSH2 0x100 DUP2 ADD SWAP1 PUSH2 0x154C JUMP JUMPDEST SWAP1 PUSH2 0x1BFC JUMP JUMPDEST SWAP2 SWAP1 SWAP2 PUSH2 0x1C69 JUMP JUMPDEST AND SUB PUSH2 0x16DA JUMPI PUSH1 0x0 SWAP1 JUMP JUMPDEST PUSH1 0x1 SWAP1 JUMP JUMPDEST RETURNDATASIZE ISZERO PUSH2 0x170A JUMPI RETURNDATASIZE SWAP1 PUSH2 0x16F0 DUP3 PUSH2 0xA36 JUMP JUMPDEST SWAP2 PUSH2 0x16FE PUSH1 0x40 MLOAD SWAP4 DUP5 PUSH2 0x9F5 JUMP JUMPDEST DUP3 MSTORE RETURNDATASIZE PUSH1 0x0 PUSH1 0x20 DUP5 ADD RETURNDATACOPY JUMP JUMPDEST PUSH1 0x60 SWAP1 JUMP JUMPDEST ISZERO PUSH2 0x1716 JUMPI JUMP JUMPDEST PUSH1 0x84 PUSH1 0x40 MLOAD PUSH32 0x8C379A000000000000000000000000000000000000000000000000000000000 DUP2 MSTORE PUSH1 0x20 PUSH1 0x4 DUP3 ADD MSTORE PUSH1 0x29 PUSH1 0x24 DUP3 ADD MSTORE PUSH32 0x45524331393637557067726164653A20756E737570706F727465642070726F78 PUSH1 0x44 DUP3 ADD MSTORE PUSH32 0x6961626C65555549440000000000000000000000000000000000000000000000 PUSH1 0x64 DUP3 ADD MSTORE REVERT JUMPDEST PUSH20 0xFFFFFFFFFFFFFFFFFFFFFFFFFFFFFFFFFFFFFFFF DUP1 PUSH32 0x0 AND CALLER EQ SWAP1 DUP2 ISZERO PUSH2 0x1842 JUMPI JUMPDEST POP ISZERO PUSH2 0x17E4 JUMPI JUMP JUMPDEST PUSH1 0x64 PUSH1 0x40 MLOAD PUSH32 0x8C379A000000000000000000000000000000000000000000000000000000000 DUP2 MSTORE PUSH1 0x20 PUSH1 0x4 DUP3 ADD MSTORE PUSH1 0x20 PUSH1 0x24 DUP3 ADD MSTORE PUSH32 0x6163636F756E743A206E6F74204F776E6572206F7220456E747279506F696E74 PUSH1 0x44 DUP3 ADD MSTORE REVERT JUMPDEST SWAP1 POP PUSH1 0x0 SLOAD PUSH1 0x10 SHR AND CALLER EQ CODESIZE PUSH2 0x17DC JUMP JUMPDEST PUSH1 0x0 SWAP2 DUP3 SWAP2 DUP3 PUSH1 0x20 DUP4 MLOAD SWAP4 ADD SWAP2 GAS CALL PUSH2 0x186A PUSH2 0x16DF JUMP JUMPDEST SWAP1 ISZERO PUSH2 0x1873 JUMPI POP JUMP JUMPDEST PUSH1 0x20 DUP2 MLOAD SWAP2 ADD REVERT JUMPDEST SWAP2 PUSH1 0x0 SWAP3 DUP4 SWAP3 PUSH1 0x20 DUP4 MLOAD SWAP4 ADD SWAP2 GAS CALL PUSH2 0x186A PUSH2 0x16DF JUMP JUMPDEST PUSH20 0xFFFFFFFFFFFFFFFFFFFFFFFFFFFFFFFFFFFFFFFF PUSH1 0x0 SLOAD PUSH1 0x10 SHR AND CALLER EQ DUP1 ISZERO PUSH2 0x191C JUMPI JUMPDEST ISZERO PUSH2 0x18BE JUMPI JUMP JUMPDEST PUSH1 0x64 PUSH1 0x40 MLOAD PUSH32 0x8C379A000000000000000000000000000000000000000000000000000000000 DUP2 MSTORE PUSH1 0x20 PUSH1 0x4 DUP3 ADD MSTORE PUSH1 0xA PUSH1 0x24 DUP3 ADD MSTORE PUSH32 0x6F6E6C79206F776E657200000000000000000000000000000000000000000000 PUSH1 0x44 DUP3 ADD MSTORE REVERT JUMPDEST POP ADDRESS CALLER EQ PUSH2 0x18B7 JUMP JUMPDEST PUSH32 0xFFFFFFFFFFFFFFFFFFFF0000000000000000000000000000000000000000FFFF PUSH22 0xFFFFFFFFFFFFFFFFFFFFFFFFFFFFFFFFFFFFFFFF0000 PUSH1 0x0 SLOAD SWAP3 PUSH1 0x10 SHL AND SWAP2 AND OR DUP1 PUSH1 0x0 SSTORE PUSH20 0xFFFFFFFFFFFFFFFFFFFFFFFFFFFFFFFFFFFFFFFF DUP1 SWAP2 PUSH1 0x10 SHR AND SWAP1 PUSH32 0x0 AND PUSH32 0x47E55C76E7A6F1FD8996A1DA8008C1EA29699CCA35E7BCD057F2DEC313B6E5DE PUSH1 0x0 DUP1 LOG3 JUMP JUMPDEST SWAP1 PUSH2 0x19DB DUP3 PUSH2 0x1B10 JUMP JUMPDEST PUSH20 0xFFFFFFFFFFFFFFFFFFFFFFFFFFFFFFFFFFFFFFFF DUP3 AND PUSH32 0xBC7CD75A20EE27FD9ADEBAB32041F755214DBC6BFFA90CC0225B39DA2E5C2D3B PUSH1 0x0 DUP1 LOG2 DUP1 MLOAD ISZERO DUP1 ISZERO SWAP1 PUSH2 0x1AA8 JUMPI JUMPDEST PUSH2 0x1A2A JUMPI POP POP JUMP JUMPDEST PUSH2 0x1AA5 SWAP2 PUSH1 0x0 DUP1 PUSH1 0x40 MLOAD SWAP4 PUSH2 0x1A3E DUP6 PUSH2 0x9D9 JUMP JUMPDEST PUSH1 0x27 DUP6 MSTORE PUSH32 0x416464726573733A206C6F772D6C6576656C2064656C65676174652063616C6C PUSH1 0x20 DUP7 ADD MSTORE PUSH32 0x206661696C656400000000000000000000000000000000000000000000000000 PUSH1 0x40 DUP7 ADD MSTORE PUSH1 0x20 DUP2 MLOAD SWAP2 ADD DUP5 GAS DELEGATECALL PUSH2 0x1A9F PUSH2 0x16DF JUMP JUMPDEST SWAP2 PUSH2 0x1EE6 JUMP JUMPDEST POP JUMP JUMPDEST POP PUSH1 0x0 PUSH2 0x1A22 JUMP JUMPDEST SWAP1 PUSH2 0x1ABA DUP3 PUSH2 0x1B10 JUMP JUMPDEST PUSH20 0xFFFFFFFFFFFFFFFFFFFFFFFFFFFFFFFFFFFFFFFF DUP3 AND PUSH32 0xBC7CD75A20EE27FD9ADEBAB32041F755214DBC6BFFA90CC0225B39DA2E5C2D3B PUSH1 0x0 DUP1 LOG2 DUP1 MLOAD ISZERO DUP1 ISZERO SWAP1 PUSH2 0x1B08 JUMPI PUSH2 0x1A2A JUMPI POP POP JUMP JUMPDEST POP PUSH1 0x1 PUSH2 0x1A22 JUMP JUMPDEST DUP1 EXTCODESIZE ISZERO PUSH2 0x1B78 JUMPI PUSH20 0xFFFFFFFFFFFFFFFFFFFFFFFFFFFFFFFFFFFFFFFF PUSH32 0x360894A13BA1A3210667C828492DB98DCA3E2076CC3735A920A3CA505D382BBC SWAP2 AND PUSH32 0xFFFFFFFFFFFFFFFFFFFFFFFF0000000000000000000000000000000000000000 DUP3 SLOAD AND OR SWAP1 SSTORE JUMP JUMPDEST PUSH1 0x84 PUSH1 0x40 MLOAD PUSH32 0x8C379A000000000000000000000000000000000000000000000000000000000 DUP2 MSTORE PUSH1 0x20 PUSH1 0x4 DUP3 ADD MSTORE PUSH1 0x2D PUSH1 0x24 DUP3 ADD MSTORE PUSH32 0x455243313936373A206E657720696D706C656D656E746174696F6E206973206E PUSH1 0x44 DUP3 ADD MSTORE PUSH32 0x6F74206120636F6E747261637400000000000000000000000000000000000000 PUSH1 0x64 DUP3 ADD MSTORE REVERT JUMPDEST SWAP1 PUSH1 0x41 DUP2 MLOAD EQ PUSH1 0x0 EQ PUSH2 0x1C26 JUMPI PUSH2 0x15B4 SWAP2 PUSH1 0x20 DUP3 ADD MLOAD SWAP1 PUSH1 0x60 PUSH1 0x40 DUP5 ADD MLOAD SWAP4 ADD MLOAD PUSH1 0x0 BYTE SWAP1 PUSH2 0x1DF2 JUMP JUMPDEST POP POP PUSH1 0x0 SWAP1 PUSH1 0x2 SWAP1 JUMP JUMPDEST PUSH1 0x5 GT ISZERO PUSH2 0x1C3A JUMPI JUMP JUMPDEST PUSH32 0x4E487B7100000000000000000000000000000000000000000000000000000000 PUSH1 0x0 MSTORE PUSH1 0x21 PUSH1 0x4 MSTORE PUSH1 0x24 PUSH1 0x0 REVERT JUMPDEST PUSH2 0x1C72 DUP2 PUSH2 0x1C30 JUMP JUMPDEST DUP1 PUSH2 0x1C7A JUMPI POP JUMP JUMPDEST PUSH2 0x1C83 DUP2 PUSH2 0x1C30 JUMP JUMPDEST PUSH1 0x1 DUP2 SUB PUSH2 0x1CEA JUMPI PUSH1 0x40 MLOAD PUSH32 0x8C379A000000000000000000000000000000000000000000000000000000000 DUP2 MSTORE PUSH1 0x20 PUSH1 0x4 DUP3 ADD MSTORE PUSH1 0x18 PUSH1 0x24 DUP3 ADD MSTORE PUSH32 0x45434453413A20696E76616C6964207369676E61747572650000000000000000 PUSH1 0x44 DUP3 ADD MSTORE PUSH1 0x64 SWAP1 REVERT JUMPDEST PUSH2 0x1CF3 DUP2 PUSH2 0x1C30 JUMP JUMPDEST PUSH1 0x2 DUP2 SUB PUSH2 0x1D5A JUMPI PUSH1 0x40 MLOAD PUSH32 0x8C379A000000000000000000000000000000000000000000000000000000000 DUP2 MSTORE PUSH1 0x20 PUSH1 0x4 DUP3 ADD MSTORE PUSH1 0x1F PUSH1 0x24 DUP3 ADD MSTORE PUSH32 0x45434453413A20696E76616C6964207369676E6174757265206C656E67746800 PUSH1 0x44 DUP3 ADD MSTORE PUSH1 0x64 SWAP1 REVERT JUMPDEST DUP1 PUSH2 0x1D66 PUSH1 0x3 SWAP3 PUSH2 0x1C30 JUMP JUMPDEST EQ PUSH2 0x1D6D JUMPI JUMP JUMPDEST PUSH1 0x40 MLOAD PUSH32 0x8C379A000000000000000000000000000000000000000000000000000000000 DUP2 MSTORE PUSH1 0x20 PUSH1 0x4 DUP3 ADD MSTORE PUSH1 0x22 PUSH1 0x24 DUP3 ADD MSTORE PUSH32 0x45434453413A20696E76616C6964207369676E6174757265202773272076616C PUSH1 0x44 DUP3 ADD MSTORE PUSH32 0x7565000000000000000000000000000000000000000000000000000000000000 PUSH1 0x64 DUP3 ADD MSTORE PUSH1 0x84 SWAP1 REVERT JUMPDEST SWAP3 SWAP2 SWAP1 PUSH32 0x7FFFFFFFFFFFFFFFFFFFFFFFFFFFFFFF5D576E7357A4501DDFE92F46681B20A0 DUP4 GT PUSH2 0x1E75 JUMPI SWAP2 PUSH1 0x80 SWAP5 SWAP4 SWAP2 PUSH1 0xFF PUSH1 0x20 SWAP5 PUSH1 0x40 MLOAD SWAP5 DUP6 MSTORE AND DUP5 DUP5 ADD MSTORE PUSH1 0x40 DUP4 ADD MSTORE PUSH1 0x60 DUP3 ADD MSTORE PUSH1 0x0 SWAP4 DUP5 SWAP2 DUP3 DUP1 MSTORE PUSH1 0x1 GAS STATICCALL ISZERO PUSH2 0x896 JUMPI DUP2 MLOAD PUSH20 0xFFFFFFFFFFFFFFFFFFFFFFFFFFFFFFFFFFFFFFFF DUP2 AND ISZERO PUSH2 0x1E6F JUMPI SWAP2 SWAP1 JUMP JUMPDEST POP PUSH1 0x1 SWAP1 JUMP JUMPDEST POP POP POP POP PUSH1 0x0 SWAP1 PUSH1 0x3 SWAP1 JUMP JUMPDEST ISZERO PUSH2 0x1E88 JUMPI JUMP JUMPDEST PUSH1 0x64 PUSH1 0x40 MLOAD PUSH32 0x8C379A000000000000000000000000000000000000000000000000000000000 DUP2 MSTORE PUSH1 0x20 PUSH1 0x4 DUP3 ADD MSTORE PUSH1 0x1D PUSH1 0x24 DUP3 ADD MSTORE PUSH32 0x416464726573733A2063616C6C20746F206E6F6E2D636F6E7472616374000000 PUSH1 0x44 DUP3 ADD MSTORE REVERT JUMPDEST SWAP2 SWAP3 SWAP1 ISZERO PUSH2 0x1F06 JUMPI POP DUP2 MLOAD ISZERO PUSH2 0x1EFA JUMPI POP SWAP1 JUMP JUMPDEST PUSH2 0x1549 SWAP1 EXTCODESIZE ISZERO ISZERO PUSH2 0x1E81 JUMP JUMPDEST DUP3 MLOAD SWAP1 SWAP2 POP ISZERO PUSH2 0x1F19 JUMPI POP DUP1 MLOAD SWAP1 PUSH1 0x20 ADD REVERT JUMPDEST PUSH1 0x40 MLOAD SWAP1 PUSH32 0x8C379A000000000000000000000000000000000000000000000000000000000 DUP3 MSTORE DUP2 PUSH1 0x20 DUP1 PUSH1 0x4 DUP4 ADD MSTORE DUP3 MLOAD SWAP3 DUP4 PUSH1 0x24 DUP5 ADD MSTORE PUSH1 0x0 JUMPDEST DUP5 DUP2 LT PUSH2 0x1F96 JUMPI POP POP POP PUSH32 0xFFFFFFFFFFFFFFFFFFFFFFFFFFFFFFFFFFFFFFFFFFFFFFFFFFFFFFFFFFFFFFE0 PUSH1 0x1F DUP4 PUSH1 0x0 PUSH1 0x44 DUP1 SWAP7 DUP7 ADD ADD MSTORE ADD AND DUP2 ADD SUB ADD SWAP1 REVERT JUMPDEST DUP2 DUP2 ADD DUP4 ADD MLOAD DUP7 DUP3 ADD PUSH1 0x44 ADD MSTORE DUP6 SWAP4 POP DUP3 ADD PUSH2 0x1F55 JUMP INVALID LOG2 PUSH5 0x6970667358 0x22 SLT KECCAK256 PUSH10 0x392A2190D57D3EFC1C92 0xAF SWAP15 CREATE2 0xAE 0x5C ADDMOD 0x2F PUSH14 0x5904D3FB0E8F85D44A4848F4AF64 PUSH20 0x6F6C634300081700330000000000000000000000 "},"methodIdentifiers":{"addDeposit()":"4a58db19","entryPoint()":"b0d691fe","execute(address,uint256,bytes)":"b61d27f6","executeBatch(address[],uint256[],bytes[])":"47e1da2a","getDeposit()":"c399ec88","getNonce()":"d087d288","initialize(address)":"c4d66de8","onERC1155BatchReceived(address,address,uint256[],uint256[],bytes)":"bc197c81","onERC1155Received(address,address,uint256,uint256,bytes)":"f23a6e61","onERC721Received(address,address,uint256,bytes)":"150b7a02","owner()":"8da5cb5b","proxiableUUID()":"52d1902d","supportsInterface(bytes4)":"01ffc9a7","upgradeTo(address)":"3659cfe6","upgradeToAndCall(address,bytes)":"4f1ef286","validateUserOp((address,uint256,bytes,bytes,bytes32,uint256,bytes32,bytes,bytes),bytes32,uint256)":"19822f7c","withdrawDepositTo(address,uint256)":"4d44560d"}}}}}