{
  "_format": "hh-sol-artifact-1",
  "contractName": "TestExecAccount",
  "sourceName": "contracts/test/TestExecAccount.sol",
  "abi": [
    {
      "inputs": [
        {
          "internalType": "contract IEntryPoint",
          "name": "anEntryPoint",
          "type": "address"
        }
      ],
      "stateMutability": "nonpayable",
      "type": "constructor"
    },
    {
      "inputs": [
        {
          "internalType": "address",
          "name": "target",
          "type": "address"
        }
      ],
      "name": "AddressEmptyCode",
      "type": "error"
    },
    {
      "inputs": [],
      "name": "ECDSAInvalidSignature",
      "type": "error"
    },
    {
      "inputs": [
        {
          "internalType": "uint256",
          "name": "length",
          "type": "uint256"
        }
      ],
      "name": "ECDSAInvalidSignatureLength",
      "type": "error"
    },
    {
      "inputs": [
        {
          "internalType": "bytes32",
          "name": "s",
          "type": "bytes32"
        }
      ],
      "name": "ECDSAInvalidSignatureS",
      "type": "error"
    },
    {
      "inputs": [
        {
          "internalType": "address",
          "name": "implementation",
          "type": "address"
        }
      ],
      "name": "ERC1967InvalidImplementation",
      "type": "error"
    },
    {
      "inputs": [],
      "name": "ERC1967NonPayable",
      "type": "error"
    },
    {
      "inputs": [],
      "name": "FailedInnerCall",
      "type": "error"
    },
    {
      "inputs": [],
      "name": "InvalidInitialization",
      "type": "error"
    },
    {
      "inputs": [],
      "name": "NotInitializing",
      "type": "error"
    },
    {
      "inputs": [],
      "name": "UUPSUnauthorizedCallContext",
      "type": "error"
    },
    {
      "inputs": [
        {
          "internalType": "bytes32",
          "name": "slot",
          "type": "bytes32"
        }
      ],
      "name": "UUPSUnsupportedProxiableUUID",
      "type": "error"
    },
    {
      "anonymous": false,
      "inputs": [
        {
          "components": [
            {
              "internalType": "address",
              "name": "sender",
              "type": "address"
            },
            {
              "internalType": "uint256",
              "name": "nonce",
              "type": "uint256"
            },
            {
              "internalType": "bytes",
              "name": "initCode",
              "type": "bytes"
            },
            {
              "internalType": "bytes",
              "name": "callData",
              "type": "bytes"
            },
            {
              "internalType": "bytes32",
              "name": "accountGasLimits",
              "type": "bytes32"
            },
            {
              "internalType": "uint256",
              "name": "preVerificationGas",
              "type": "uint256"
            },
            {
              "internalType": "bytes32",
              "name": "gasFees",
              "type": "bytes32"
            },
            {
              "internalType": "bytes",
              "name": "paymasterAndData",
              "type": "bytes"
            },
            {
              "internalType": "bytes",
              "name": "signature",
              "type": "bytes"
            }
          ],
          "indexed": false,
          "internalType": "struct PackedUserOperation",
          "name": "userOp",
          "type": "tuple"
        },
        {
          "indexed": false,
          "internalType": "bytes",
          "name": "innerCallRet",
          "type": "bytes"
        }
      ],
      "name": "Executed",
      "type": "event"
    },
    {
      "anonymous": false,
      "inputs": [
        {
          "indexed": false,
          "internalType": "uint64",
          "name": "version",
          "type": "uint64"
        }
      ],
      "name": "Initialized",
      "type": "event"
    },
    {
      "anonymous": false,
      "inputs": [
        {
          "indexed": true,
          "internalType": "contract IEntryPoint",
          "name": "entryPoint",
          "type": "address"
        },
        {
          "indexed": true,
          "internalType": "address",
          "name": "owner",
          "type": "address"
        }
      ],
      "name": "SimpleAccountInitialized",
      "type": "event"
    },
    {
      "anonymous": false,
      "inputs": [
        {
          "indexed": true,
          "internalType": "address",
          "name": "implementation",
          "type": "address"
        }
      ],
      "name": "Upgraded",
      "type": "event"
    },
    {
      "inputs": [],
      "name": "UPGRADE_INTERFACE_VERSION",
      "outputs": [
        {
          "internalType": "string",
          "name": "",
          "type": "string"
        }
      ],
      "stateMutability": "view",
      "type": "function"
    },
    {
      "inputs": [],
      "name": "addDeposit",
      "outputs": [],
      "stateMutability": "payable",
      "type": "function"
    },
    {
      "inputs": [],
      "name": "entryPoint",
      "outputs": [
        {
          "internalType": "contract IEntryPoint",
          "name": "",
          "type": "address"
        }
      ],
      "stateMutability": "view",
      "type": "function"
    },
    {
      "inputs": [
        {
          "internalType": "address",
          "name": "dest",
          "type": "address"
        },
        {
          "internalType": "uint256",
          "name": "value",
          "type": "uint256"
        },
        {
          "internalType": "bytes",
          "name": "func",
          "type": "bytes"
        }
      ],
      "name": "execute",
      "outputs": [],
      "stateMutability": "nonpayable",
      "type": "function"
    },
    {
      "inputs": [
        {
          "internalType": "address[]",
          "name": "dest",
          "type": "address[]"
        },
        {
          "internalType": "uint256[]",
          "name": "value",
          "type": "uint256[]"
        },
        {
          "internalType": "bytes[]",
          "name": "func",
          "type": "bytes[]"
        }
      ],
      "name": "executeBatch",
      "outputs": [],
      "stateMutability": "nonpayable",
      "type": "function"
    },
    {
      "inputs": [
        {
          "components": [
            {
              "internalType": "address",
              "name": "sender",
              "type": "address"
            },
            {
              "internalType": "uint256",
              "name": "nonce",
              "type": "uint256"
            },
            {
              "internalType": "bytes",
              "name": "initCode",
              "type": "bytes"
            },
            {
              "internalType": "bytes",
              "name": "callData",
              "type": "bytes"
            },
            {
              "internalType": "bytes32",
              "name": "accountGasLimits",
              "type": "bytes32"
            },
            {
              "internalType": "uint256",
              "name": "preVerificationGas",
              "type": "uint256"
            },
            {
              "internalType": "bytes32",
              "name": "gasFees",
              "type": "bytes32"
            },
            {
              "internalType": "bytes",
              "name": "paymasterAndData",
              "type": "bytes"
            },
            {
              "internalType": "bytes",
              "name": "signature",
              "type": "bytes"
            }
          ],
          "internalType": "struct PackedUserOperation",
          "name": "userOp",
          "type": "tuple"
        },
        {
          "internalType": "bytes32",
          "name": "",
          "type": "bytes32"
        }
      ],
      "name": "executeUserOp",
      "outputs": [],
      "stateMutability": "nonpayable",
      "type": "function"
    },
    {
      "inputs": [],
      "name": "getDeposit",
      "outputs": [
        {
          "internalType": "uint256",
          "name": "",
          "type": "uint256"
        }
      ],
      "stateMutability": "view",
      "type": "function"
    },
    {
      "inputs": [],
      "name": "getNonce",
      "outputs": [
        {
          "internalType": "uint256",
          "name": "",
          "type": "uint256"
        }
      ],
      "stateMutability": "view",
      "type": "function"
    },
    {
      "inputs": [
        {
          "internalType": "address",
          "name": "anOwner",
          "type": "address"
        }
      ],
      "name": "initialize",
      "outputs": [],
      "stateMutability": "nonpayable",
      "type": "function"
    },
    {
      "inputs": [
        {
          "internalType": "address",
          "name": "",
          "type": "address"
        },
        {
          "internalType": "address",
          "name": "",
          "type": "address"
        },
        {
          "internalType": "uint256[]",
          "name": "",
          "type": "uint256[]"
        },
        {
          "internalType": "uint256[]",
          "name": "",
          "type": "uint256[]"
        },
        {
          "internalType": "bytes",
          "name": "",
          "type": "bytes"
        }
      ],
      "name": "onERC1155BatchReceived",
      "outputs": [
        {
          "internalType": "bytes4",
          "name": "",
          "type": "bytes4"
        }
      ],
      "stateMutability": "pure",
      "type": "function"
    },
    {
      "inputs": [
        {
          "internalType": "address",
          "name": "",
          "type": "address"
        },
        {
          "internalType": "address",
          "name": "",
          "type": "address"
        },
        {
          "internalType": "uint256",
          "name": "",
          "type": "uint256"
        },
        {
          "internalType": "uint256",
          "name": "",
          "type": "uint256"
        },
        {
          "internalType": "bytes",
          "name": "",
          "type": "bytes"
        }
      ],
      "name": "onERC1155Received",
      "outputs": [
        {
          "internalType": "bytes4",
          "name": "",
          "type": "bytes4"
        }
      ],
      "stateMutability": "pure",
      "type": "function"
    },
    {
      "inputs": [
        {
          "internalType": "address",
          "name": "",
          "type": "address"
        },
        {
          "internalType": "address",
          "name": "",
          "type": "address"
        },
        {
          "internalType": "uint256",
          "name": "",
          "type": "uint256"
        },
        {
          "internalType": "bytes",
          "name": "",
          "type": "bytes"
        }
      ],
      "name": "onERC721Received",
      "outputs": [
        {
          "internalType": "bytes4",
          "name": "",
          "type": "bytes4"
        }
      ],
      "stateMutability": "pure",
      "type": "function"
    },
    {
      "inputs": [],
      "name": "owner",
      "outputs": [
        {
          "internalType": "address",
          "name": "",
          "type": "address"
        }
      ],
      "stateMutability": "view",
      "type": "function"
    },
    {
      "inputs": [],
      "name": "proxiableUUID",
      "outputs": [
        {
          "internalType": "bytes32",
          "name": "",
          "type": "bytes32"
        }
      ],
      "stateMutability": "view",
      "type": "function"
    },
    {
      "inputs": [
        {
          "internalType": "bytes4",
          "name": "interfaceId",
          "type": "bytes4"
        }
      ],
      "name": "supportsInterface",
      "outputs": [
        {
          "internalType": "bool",
          "name": "",
          "type": "bool"
        }
      ],
      "stateMutability": "view",
      "type": "function"
    },
    {
      "inputs": [
        {
          "internalType": "address",
          "name": "newImplementation",
          "type": "address"
        },
        {
          "internalType": "bytes",
          "name": "data",
          "type": "bytes"
        }
      ],
      "name": "upgradeToAndCall",
      "outputs": [],
      "stateMutability": "payable",
      "type": "function"
    },
    {
      "inputs": [
        {
          "components": [
            {
              "internalType": "address",
              "name": "sender",
              "type": "address"
            },
            {
              "internalType": "uint256",
              "name": "nonce",
              "type": "uint256"
            },
            {
              "internalType": "bytes",
              "name": "initCode",
              "type": "bytes"
            },
            {
              "internalType": "bytes",
              "name": "callData",
              "type": "bytes"
            },
            {
              "internalType": "bytes32",
              "name": "accountGasLimits",
              "type": "bytes32"
            },
            {
              "internalType": "uint256",
              "name": "preVerificationGas",
              "type": "uint256"
            },
            {
              "internalType": "bytes32",
              "name": "gasFees",
              "type": "bytes32"
            },
            {
              "internalType": "bytes",
              "name": "paymasterAndData",
              "type": "bytes"
            },
            {
              "internalType": "bytes",
              "name": "signature",
              "type": "bytes"
            }
          ],
          "internalType": "struct PackedUserOperation",
          "name": "userOp",
          "type": "tuple"
        },
        {
          "internalType": "bytes32",
          "name": "userOpHash",
          "type": "bytes32"
        },
        {
          "internalType": "uint256",
          "name": "missingAccountFunds",
          "type": "uint256"
        }
      ],
      "name": "validateUserOp",
      "outputs": [
        {
          "internalType": "uint256",
          "name": "validationData",
          "type": "uint256"
        }
      ],
      "stateMutability": "nonpayable",
      "type": "function"
    },
    {
      "inputs": [
        {
          "internalType": "address payable",
          "name": "withdrawAddress",
          "type": "address"
        },
        {
          "internalType": "uint256",
          "name": "amount",
          "type": "uint256"
        }
      ],
      "name": "withdrawDepositTo",
      "outputs": [],
      "stateMutability": "nonpayable",
      "type": "function"
    },
    {
      "stateMutability": "payable",
      "type": "receive"
    }
  ],
  "bytecode": "0x60c0604052306080523480156200001557600080fd5b506040516200243f3803806200243f83398101604081905262000038916200010c565b6001600160a01b03811660a052806200005062000058565b50506200013e565b7ff0c57e16840df040f15088dc2f81fe391c3923bec73e23a9662efc9c229c6a00805468010000000000000000900460ff1615620000a95760405163f92ee8a960e01b815260040160405180910390fd5b80546001600160401b0390811614620001095780546001600160401b0319166001600160401b0390811782556040519081527fc7f505b2f371ae2175ee4913f4499e1f2633a7b5936321eed1cdaeb6115181d29060200160405180910390a15b50565b6000602082840312156200011f57600080fd5b81516001600160a01b03811681146200013757600080fd5b9392505050565b60805160a05161229c620001a36000396000818161035b0152818161072b015281816107d901528181610ac001528181610cfd01528181610d4401528181610f0401526113b80152600081816110cd015281816110f60152611317015261229c6000f3fe60806040526004361061012d5760003560e01c80638dd7712f116100a5578063bc197c8111610074578063c4d66de811610059578063c4d66de8146103fc578063d087d2881461041c578063f23a6e611461043157600080fd5b8063bc197c811461039f578063c399ec88146103e757600080fd5b80638dd7712f146102d6578063ad3cb1cc146102f6578063b0d691fe1461034c578063b61d27f61461037f57600080fd5b80634a58db19116100fc5780634f1ef286116100e15780634f1ef2861461025c57806352d1902d1461026f5780638da5cb5b1461028457600080fd5b80634a58db19146102345780634d44560d1461023c57600080fd5b806301ffc9a714610139578063150b7a021461016e57806319822f7c146101e457806347e1da2a1461021257600080fd5b3661013457005b600080fd5b34801561014557600080fd5b50610159610154366004611935565b610477565b60405190151581526020015b60405180910390f35b34801561017a57600080fd5b506101b36101893660046119f2565b7f150b7a020000000000000000000000000000000000000000000000000000000095945050505050565b6040517fffffffff000000000000000000000000000000000000000000000000000000009091168152602001610165565b3480156101f057600080fd5b506102046101ff366004611a7e565b61055c565b604051908152602001610165565b34801561021e57600080fd5b5061023261022d366004611b11565b610582565b005b610232610729565b34801561024857600080fd5b50610232610257366004611bab565b6107cf565b61023261026a366004611cb1565b61087e565b34801561027b57600080fd5b5061020461089d565b34801561029057600080fd5b506000546102b19073ffffffffffffffffffffffffffffffffffffffff1681565b60405173ffffffffffffffffffffffffffffffffffffffff9091168152602001610165565b3480156102e257600080fd5b506102326102f1366004611d01565b6108cc565b34801561030257600080fd5b5061033f6040518060400160405280600581526020017f352e302e3000000000000000000000000000000000000000000000000000000081525081565b6040516101659190611db4565b34801561035857600080fd5b507f00000000000000000000000000000000000000000000000000000000000000006102b1565b34801561038b57600080fd5b5061023261039a366004611dc7565b610a2b565b3480156103ab57600080fd5b506101b36103ba366004611e23565b7fbc197c810000000000000000000000000000000000000000000000000000000098975050505050505050565b3480156103f357600080fd5b50610204610a7a565b34801561040857600080fd5b50610232610417366004611ee2565b610b31565b34801561042857600080fd5b50610204610cb0565b34801561043d57600080fd5b506101b361044c366004611eff565b7ff23a6e61000000000000000000000000000000000000000000000000000000009695505050505050565b60007fffffffff0000000000000000000000000000000000000000000000000000000082167f150b7a0200000000000000000000000000000000000000000000000000000000148061050a57507fffffffff0000000000000000000000000000000000000000000000000000000082167f4e2312e000000000000000000000000000000000000000000000000000000000145b8061055657507fffffffff0000000000000000000000000000000000000000000000000000000082167f01ffc9a700000000000000000000000000000000000000000000000000000000145b92915050565b6000610566610d2c565b6105708484610dcd565b905061057b82610e81565b9392505050565b61058a610eec565b84811480156105a057508215806105a057508281145b61060b576040517f08c379a000000000000000000000000000000000000000000000000000000000815260206004820152601360248201527f77726f6e67206172726179206c656e677468730000000000000000000000000060448201526064015b60405180910390fd5b60008390036106b75760005b858110156106b1576106a987878381811061063457610634611f69565b90506020020160208101906106499190611ee2565b600085858581811061065d5761065d611f69565b905060200281019061066f9190611f98565b8080601f016020809104026020016040519081016040528093929190818152602001838380828437600092019190915250610fad92505050565b600101610617565b50610721565b60005b8581101561071f576107178787838181106106d7576106d7611f69565b90506020020160208101906106ec9190611ee2565b8686848181106106fe576106fe611f69565b9050602002013585858581811061065d5761065d611f69565b6001016106ba565b505b505050505050565b7f00000000000000000000000000000000000000000000000000000000000000006040517fb760faf900000000000000000000000000000000000000000000000000000000815230600482015273ffffffffffffffffffffffffffffffffffffffff919091169063b760faf99034906024016000604051808303818588803b1580156107b457600080fd5b505af11580156107c8573d6000803e3d6000fd5b5050505050565b6107d761102a565b7f00000000000000000000000000000000000000000000000000000000000000006040517f205c287800000000000000000000000000000000000000000000000000000000815273ffffffffffffffffffffffffffffffffffffffff848116600483015260248201849052919091169063205c287890604401600060405180830381600087803b15801561086a57600080fd5b505af1158015610721573d6000803e3d6000fd5b6108866110b5565b61088f826111b9565b61089982826111c1565b5050565b60006108a76112ff565b507f360894a13ba1a3210667c828492db98dca3e2076cc3735a920a3ca505d382bbc90565b6108d4610eec565b3660006108e46060850185611f98565b6108f2916004908290611ffd565b9092509050606081156109eb5760008061090e84860186611cb1565b9150915060008273ffffffffffffffffffffffffffffffffffffffff16826040516109399190612027565b6000604051808303816000865af19150503d8060008114610976576040519150601f19603f3d011682016040523d82523d6000602084013e61097b565b606091505b5094509050806109e7576040517f08c379a000000000000000000000000000000000000000000000000000000000815260206004820152601160248201527f696e6e65722063616c6c206661696c65640000000000000000000000000000006044820152606401610602565b5050505b7fd3fddfd1276d1cc278f10907710a44474a32f917b2fcfa198f46ca7689215e2f8582604051610a1c9291906120f0565b60405180910390a15050505050565b610a33610eec565b610a74848484848080601f016020809104026020016040519081016040528093929190818152602001838380828437600092019190915250610fad92505050565b50505050565b6040517f70a0823100000000000000000000000000000000000000000000000000000000815230600482015260009073ffffffffffffffffffffffffffffffffffffffff7f000000000000000000000000000000000000000000000000000000000000000016906370a08231906024015b602060405180830381865afa158015610b08573d6000803e3d6000fd5b505050506040513d601f19601f82011682018060405250810190610b2c919061221e565b905090565b7ff0c57e16840df040f15088dc2f81fe391c3923bec73e23a9662efc9c229c6a00805468010000000000000000810460ff16159067ffffffffffffffff16600081158015610b7c5750825b905060008267ffffffffffffffff166001148015610b995750303b155b905081158015610ba7575080155b15610bde576040517ff92ee8a900000000000000000000000000000000000000000000000000000000815260040160405180910390fd5b84547fffffffffffffffffffffffffffffffffffffffffffffffff00000000000000001660011785558315610c3f5784547fffffffffffffffffffffffffffffffffffffffffffffff00ffffffffffffffff16680100000000000000001785555b610c488661136e565b83156107215784547fffffffffffffffffffffffffffffffffffffffffffffff00ffffffffffffffff168555604051600181527fc7f505b2f371ae2175ee4913f4499e1f2633a7b5936321eed1cdaeb6115181d29060200160405180910390a1505050505050565b6040517f35567e1a0000000000000000000000000000000000000000000000000000000081523060048201526000602482018190529073ffffffffffffffffffffffffffffffffffffffff7f000000000000000000000000000000000000000000000000000000000000000016906335567e1a90604401610aeb565b3373ffffffffffffffffffffffffffffffffffffffff7f00000000000000000000000000000000000000000000000000000000000000001614610dcb576040517f08c379a000000000000000000000000000000000000000000000000000000000815260206004820152601c60248201527f6163636f756e743a206e6f742066726f6d20456e747279506f696e74000000006044820152606401610602565b565b7f19457468657265756d205369676e6564204d6573736167653a0a3332000000006000908152601c829052603c8120610e4881610e0e610100870187611f98565b8080601f01602080910402602001604051908101604052809392919081815260200183838082843760009201919091525061140292505050565b60005473ffffffffffffffffffffffffffffffffffffffff908116911614610e74576001915050610556565b5060009392505050565b50565b8015610e7e5760405160009033907fffffffffffffffffffffffffffffffffffffffffffffffffffffffffffffffff90849084818181858888f193505050503d80600081146107c8576040519150601f19603f3d011682016040523d82523d6000602084013e6107c8565b3373ffffffffffffffffffffffffffffffffffffffff7f0000000000000000000000000000000000000000000000000000000000000000161480610f47575060005473ffffffffffffffffffffffffffffffffffffffff1633145b610dcb576040517f08c379a000000000000000000000000000000000000000000000000000000000815260206004820181905260248201527f6163636f756e743a206e6f74204f776e6572206f7220456e747279506f696e746044820152606401610602565b6000808473ffffffffffffffffffffffffffffffffffffffff168484604051610fd69190612027565b60006040518083038185875af1925050503d8060008114611013576040519150601f19603f3d011682016040523d82523d6000602084013e611018565b606091505b5091509150816107c857805160208201fd5b60005473ffffffffffffffffffffffffffffffffffffffff1633148061104f57503330145b610dcb576040517f08c379a000000000000000000000000000000000000000000000000000000000815260206004820152600a60248201527f6f6e6c79206f776e6572000000000000000000000000000000000000000000006044820152606401610602565b3073ffffffffffffffffffffffffffffffffffffffff7f000000000000000000000000000000000000000000000000000000000000000016148061118257507f000000000000000000000000000000000000000000000000000000000000000073ffffffffffffffffffffffffffffffffffffffff166111697f360894a13ba1a3210667c828492db98dca3e2076cc3735a920a3ca505d382bbc5473ffffffffffffffffffffffffffffffffffffffff1690565b73ffffffffffffffffffffffffffffffffffffffff1614155b15610dcb576040517fe07c8dba00000000000000000000000000000000000000000000000000000000815260040160405180910390fd5b610e7e61102a565b8173ffffffffffffffffffffffffffffffffffffffff166352d1902d6040518163ffffffff1660e01b8152600401602060405180830381865afa925050508015611246575060408051601f3d9081017fffffffffffffffffffffffffffffffffffffffffffffffffffffffffffffffe01682019092526112439181019061221e565b60015b611294576040517f4c9c8ce300000000000000000000000000000000000000000000000000000000815273ffffffffffffffffffffffffffffffffffffffff83166004820152602401610602565b7f360894a13ba1a3210667c828492db98dca3e2076cc3735a920a3ca505d382bbc81146112f0576040517faa1d49a400000000000000000000000000000000000000000000000000000000815260048101829052602401610602565b6112fa838361142c565b505050565b3073ffffffffffffffffffffffffffffffffffffffff7f00000000000000000000000000000000000000000000000000000000000000001614610dcb576040517fe07c8dba00000000000000000000000000000000000000000000000000000000815260040160405180910390fd5b600080547fffffffffffffffffffffffff00000000000000000000000000000000000000001673ffffffffffffffffffffffffffffffffffffffff838116918217835560405191927f0000000000000000000000000000000000000000000000000000000000000000909116917f47e55c76e7a6f1fd8996a1da8008c1ea29699cca35e7bcd057f2dec313b6e5de9190a350565b600080600080611412868661148f565b92509250925061142282826114dc565b5090949350505050565b611435826115e0565b60405173ffffffffffffffffffffffffffffffffffffffff8316907fbc7cd75a20ee27fd9adebab32041f755214dbc6bffa90cc0225b39da2e5c2d3b90600090a2805115611487576112fa82826116af565b610899611732565b600080600083516041036114c95760208401516040850151606086015160001a6114bb8882858561176a565b9550955095505050506114d5565b50508151600091506002905b9250925092565b60008260038111156114f0576114f0612237565b036114f9575050565b600182600381111561150d5761150d612237565b03611544576040517ff645eedf00000000000000000000000000000000000000000000000000000000815260040160405180910390fd5b600282600381111561155857611558612237565b03611592576040517ffce698f700000000000000000000000000000000000000000000000000000000815260048101829052602401610602565b60038260038111156115a6576115a6612237565b03610899576040517fd78bce0c00000000000000000000000000000000000000000000000000000000815260048101829052602401610602565b8073ffffffffffffffffffffffffffffffffffffffff163b600003611649576040517f4c9c8ce300000000000000000000000000000000000000000000000000000000815273ffffffffffffffffffffffffffffffffffffffff82166004820152602401610602565b7f360894a13ba1a3210667c828492db98dca3e2076cc3735a920a3ca505d382bbc80547fffffffffffffffffffffffff00000000000000000000000000000000000000001673ffffffffffffffffffffffffffffffffffffffff92909216919091179055565b60606000808473ffffffffffffffffffffffffffffffffffffffff16846040516116d99190612027565b600060405180830381855af49150503d8060008114611714576040519150601f19603f3d011682016040523d82523d6000602084013e611719565b606091505b5091509150611729858383611864565b95945050505050565b3415610dcb576040517fb398979f00000000000000000000000000000000000000000000000000000000815260040160405180910390fd5b600080807f7fffffffffffffffffffffffffffffff5d576e7357a4501ddfe92f46681b20a08411156117a5575060009150600390508261185a565b604080516000808252602082018084528a905260ff891692820192909252606081018790526080810186905260019060a0016020604051602081039080840390855afa1580156117f9573d6000803e3d6000fd5b50506040517fffffffffffffffffffffffffffffffffffffffffffffffffffffffffffffffe0015191505073ffffffffffffffffffffffffffffffffffffffff81166118505750600092506001915082905061185a565b9250600091508190505b9450945094915050565b60608261187957611874826118f3565b61057b565b815115801561189d575073ffffffffffffffffffffffffffffffffffffffff84163b155b156118ec576040517f9996b31500000000000000000000000000000000000000000000000000000000815273ffffffffffffffffffffffffffffffffffffffff85166004820152602401610602565b508061057b565b8051156119035780518082602001fd5b6040517f1425ea4200000000000000000000000000000000000000000000000000000000815260040160405180910390fd5b60006020828403121561194757600080fd5b81357fffffffff000000000000000000000000000000000000000000000000000000008116811461057b57600080fd5b73ffffffffffffffffffffffffffffffffffffffff81168114610e7e57600080fd5b80356119a481611977565b919050565b60008083601f8401126119bb57600080fd5b50813567ffffffffffffffff8111156119d357600080fd5b6020830191508360208285010111156119eb57600080fd5b9250929050565b600080600080600060808688031215611a0a57600080fd5b8535611a1581611977565b94506020860135611a2581611977565b935060408601359250606086013567ffffffffffffffff811115611a4857600080fd5b611a54888289016119a9565b969995985093965092949392505050565b60006101208284031215611a7857600080fd5b50919050565b600080600060608486031215611a9357600080fd5b833567ffffffffffffffff811115611aaa57600080fd5b611ab686828701611a65565b9660208601359650604090950135949350505050565b60008083601f840112611ade57600080fd5b50813567ffffffffffffffff811115611af657600080fd5b6020830191508360208260051b85010111156119eb57600080fd5b60008060008060008060608789031215611b2a57600080fd5b863567ffffffffffffffff80821115611b4257600080fd5b611b4e8a838b01611acc565b90985096506020890135915080821115611b6757600080fd5b611b738a838b01611acc565b90965094506040890135915080821115611b8c57600080fd5b50611b9989828a01611acc565b979a9699509497509295939492505050565b60008060408385031215611bbe57600080fd5b8235611bc981611977565b946020939093013593505050565b7f4e487b7100000000000000000000000000000000000000000000000000000000600052604160045260246000fd5b600082601f830112611c1757600080fd5b813567ffffffffffffffff80821115611c3257611c32611bd7565b604051601f83017fffffffffffffffffffffffffffffffffffffffffffffffffffffffffffffffe0908116603f01168101908282118183101715611c7857611c78611bd7565b81604052838152866020858801011115611c9157600080fd5b836020870160208301376000602085830101528094505050505092915050565b60008060408385031215611cc457600080fd5b8235611ccf81611977565b9150602083013567ffffffffffffffff811115611ceb57600080fd5b611cf785828601611c06565b9150509250929050565b60008060408385031215611d1457600080fd5b823567ffffffffffffffff811115611d2b57600080fd5b611d3785828601611a65565b95602094909401359450505050565b60005b83811015611d61578181015183820152602001611d49565b50506000910152565b60008151808452611d82816020860160208601611d46565b601f017fffffffffffffffffffffffffffffffffffffffffffffffffffffffffffffffe0169290920160200192915050565b60208152600061057b6020830184611d6a565b60008060008060608587031215611ddd57600080fd5b8435611de881611977565b935060208501359250604085013567ffffffffffffffff811115611e0b57600080fd5b611e17878288016119a9565b95989497509550505050565b60008060008060008060008060a0898b031215611e3f57600080fd5b8835611e4a81611977565b97506020890135611e5a81611977565b9650604089013567ffffffffffffffff80821115611e7757600080fd5b611e838c838d01611acc565b909850965060608b0135915080821115611e9c57600080fd5b611ea88c838d01611acc565b909650945060808b0135915080821115611ec157600080fd5b50611ece8b828c016119a9565b999c989b5096995094979396929594505050565b600060208284031215611ef457600080fd5b813561057b81611977565b60008060008060008060a08789031215611f1857600080fd5b8635611f2381611977565b95506020870135611f3381611977565b94506040870135935060608701359250608087013567ffffffffffffffff811115611f5d57600080fd5b611b9989828a016119a9565b7f4e487b7100000000000000000000000000000000000000000000000000000000600052603260045260246000fd5b60008083357fffffffffffffffffffffffffffffffffffffffffffffffffffffffffffffffe1843603018112611fcd57600080fd5b83018035915067ffffffffffffffff821115611fe857600080fd5b6020019150368190038213156119eb57600080fd5b6000808585111561200d57600080fd5b8386111561201a57600080fd5b5050820193919092039150565b60008251612039818460208701611d46565b9190910192915050565b60008083357fffffffffffffffffffffffffffffffffffffffffffffffffffffffffffffffe184360301811261207857600080fd5b830160208101925035905067ffffffffffffffff81111561209857600080fd5b8036038213156119eb57600080fd5b8183528181602085013750600060208284010152600060207fffffffffffffffffffffffffffffffffffffffffffffffffffffffffffffffe0601f840116840101905092915050565b6040815261211e6040820161210485611999565b73ffffffffffffffffffffffffffffffffffffffff169052565b6020830135606082015260006121376040850185612043565b61012080608086015261214f610160860183856120a7565b925061215e6060880188612043565b92507fffffffffffffffffffffffffffffffffffffffffffffffffffffffffffffffc0808786030160a08801526121968585846120a7565b9450608089013560c088015260a089013560e0880152610100935060c0890135848801526121c760e08a018a612043565b92508188870301848901526121dd8684836120a7565b9550506121ec848a018a612043565b94509250808786030161014088015250506122088383836120a7565b9250505082810360208401526117298185611d6a565b60006020828403121561223057600080fd5b5051919050565b7f4e487b7100000000000000000000000000000000000000000000000000000000600052602160045260246000fdfea2646970667358221220f5ee12cb94f9e9baa4788c78c184cedc582b228a87bc2f62b3877044029eb24c64736f6c63430008170033",
  "linkReferences": {},
  "deployedLinkReferences": {}
}