{
  "_format": "hh-sol-artifact-1",
  "contractName": "TestSignatureAggregator",
  "sourceName": "contracts/test/TestSignatureAggregator.sol",
  "abi": [
    {
      "inputs": [
        {
          "internalType": "contract IEntryPoint",
          "name": "entryPoint",
          "type": "address"
        },
        {
          "internalType": "uint32",
          "name": "delay",
          "type": "uint32"
        }
      ],
      "name": "addStake",
      "outputs": [],
      "stateMutability": "payable",
      "type": "function"
    },
    {
      "inputs": [
        {
          "components": [
            {
              "internalType": "address",
              "name": "sender",
              "type": "address"
            },
            {
              "internalType": "uint256",
              "name": "nonce",
              "type": "uint256"
            },
            {
              "internalType": "bytes",
              "name": "initCode",
              "type": "bytes"
            },
            {
              "internalType": "bytes",
              "name": "callData",
              "type": "bytes"
            },
            {
              "internalType": "bytes32",
              "name": "accountGasLimits",
              "type": "bytes32"
            },
            {
              "internalType": "uint256",
              "name": "preVerificationGas",
              "type": "uint256"
            },
            {
              "internalType": "bytes32",
              "name": "gasFees",
              "type": "bytes32"
            },
            {
              "internalType": "bytes",
              "name": "paymasterAndData",
              "type": "bytes"
            },
            {
              "internalType": "bytes",
              "name": "signature",
              "type": "bytes"
            }
          ],
          "internalType": "struct PackedUserOperation[]",
          "name": "userOps",
          "type": "tuple[]"
        }
      ],
      "name": "aggregateSignatures",
      "outputs": [
        {
          "internalType": "bytes",
          "name": "aggregatedSignature",
          "type": "bytes"
        }
      ],
      "stateMutability": "pure",
      "type": "function"
    },
    {
      "inputs": [
        {
          "components": [
            {
              "internalType": "address",
              "name": "sender",
              "type": "address"
            },
            {
              "internalType": "uint256",
              "name": "nonce",
              "type": "uint256"
            },
            {
              "internalType": "bytes",
              "name": "initCode",
              "type": "bytes"
            },
            {
              "internalType": "bytes",
              "name": "callData",
              "type": "bytes"
            },
            {
              "internalType": "bytes32",
              "name": "accountGasLimits",
              "type": "bytes32"
            },
            {
              "internalType": "uint256",
              "name": "preVerificationGas",
              "type": "uint256"
            },
            {
              "internalType": "bytes32",
              "name": "gasFees",
              "type": "bytes32"
            },
            {
              "internalType": "bytes",
              "name": "paymasterAndData",
              "type": "bytes"
            },
            {
              "internalType": "bytes",
              "name": "signature",
              "type": "bytes"
            }
          ],
          "internalType": "struct PackedUserOperation[]",
          "name": "userOps",
          "type": "tuple[]"
        },
        {
          "internalType": "bytes",
          "name": "signature",
          "type": "bytes"
        }
      ],
      "name": "validateSignatures",
      "outputs": [],
      "stateMutability": "pure",
      "type": "function"
    },
    {
      "inputs": [
        {
          "components": [
            {
              "internalType": "address",
              "name": "sender",
              "type": "address"
            },
            {
              "internalType": "uint256",
              "name": "nonce",
              "type": "uint256"
            },
            {
              "internalType": "bytes",
              "name": "initCode",
              "type": "bytes"
            },
            {
              "internalType": "bytes",
              "name": "callData",
              "type": "bytes"
            },
            {
              "internalType": "bytes32",
              "name": "accountGasLimits",
              "type": "bytes32"
            },
            {
              "internalType": "uint256",
              "name": "preVerificationGas",
              "type": "uint256"
            },
            {
              "internalType": "bytes32",
              "name": "gasFees",
              "type": "bytes32"
            },
            {
              "internalType": "bytes",
              "name": "paymasterAndData",
              "type": "bytes"
            },
            {
              "internalType": "bytes",
              "name": "signature",
              "type": "bytes"
            }
          ],
          "internalType": "struct PackedUserOperation",
          "name": "",
          "type": "tuple"
        }
      ],
      "name": "validateUserOpSignature",
      "outputs": [
        {
          "internalType": "bytes",
          "name": "",
          "type": "bytes"
        }
      ],
      "stateMutability": "pure",
      "type": "function"
    }
  ],
  "bytecode": "0x608060405234801561001057600080fd5b506106ae806100206000396000f3fe60806040526004361061003f5760003560e01c8063062a422b146100445780632dd811331461008857806345171159146100aa578063ae574a43146100bd575b600080fd5b34801561005057600080fd5b5061007261005f366004610388565b5060408051602081019091526000815290565b60405161007f91906103cb565b60405180910390f35b34801561009457600080fd5b506100a86100a3366004610484565b6100dd565b005b6100a86100b836600461051b565b61028d565b3480156100c957600080fd5b506100726100d8366004610576565b610318565b6000805b8481101561012a5760008686838181106100fd576100fd6105b8565b905060200281019061010f91906105e7565b60200135905061011f8184610625565b9250506001016100e1565b50602082146101c0576040517f08c379a000000000000000000000000000000000000000000000000000000000815260206004820152602b60248201527f546573745369676e617475726556616c696461746f723a20736967206d75737460448201527f2062652075696e7432353600000000000000000000000000000000000000000060648201526084015b60405180910390fd5b60006101ce8385018561065f565b9050818114610285576040517f08c379a000000000000000000000000000000000000000000000000000000000815260206004820152604160248201527f546573745369676e617475726556616c696461746f723a20616767726567617460448201527f6564207369676e6174757265206d69736d6174636820286e6f6e63652073756d60648201527f2900000000000000000000000000000000000000000000000000000000000000608482015260a4016101b7565b505050505050565b6040517f0396cb6000000000000000000000000000000000000000000000000000000000815263ffffffff8216600482015273ffffffffffffffffffffffffffffffffffffffff831690630396cb609034906024016000604051808303818588803b1580156102fb57600080fd5b505af115801561030f573d6000803e3d6000fd5b50505050505050565b60606000805b8381101561036257848482818110610338576103386105b8565b905060200281019061034a91906105e7565b610358906020013583610625565b915060010161031e565b506040805160208101839052016040516020818303038152906040529150505b92915050565b60006020828403121561039a57600080fd5b813567ffffffffffffffff8111156103b157600080fd5b820161012081850312156103c457600080fd5b9392505050565b60006020808352835180602085015260005b818110156103f9578581018301518582016040015282016103dd565b5060006040828601015260407fffffffffffffffffffffffffffffffffffffffffffffffffffffffffffffffe0601f8301168501019250505092915050565b60008083601f84011261044a57600080fd5b50813567ffffffffffffffff81111561046257600080fd5b6020830191508360208260051b850101111561047d57600080fd5b9250929050565b6000806000806040858703121561049a57600080fd5b843567ffffffffffffffff808211156104b257600080fd5b6104be88838901610438565b909650945060208701359150808211156104d757600080fd5b818701915087601f8301126104eb57600080fd5b8135818111156104fa57600080fd5b88602082850101111561050c57600080fd5b95989497505060200194505050565b6000806040838503121561052e57600080fd5b823573ffffffffffffffffffffffffffffffffffffffff8116811461055257600080fd5b9150602083013563ffffffff8116811461056b57600080fd5b809150509250929050565b6000806020838503121561058957600080fd5b823567ffffffffffffffff8111156105a057600080fd5b6105ac85828601610438565b90969095509350505050565b7f4e487b7100000000000000000000000000000000000000000000000000000000600052603260045260246000fd5b600082357ffffffffffffffffffffffffffffffffffffffffffffffffffffffffffffffee183360301811261061b57600080fd5b9190910192915050565b80820180821115610382577f4e487b7100000000000000000000000000000000000000000000000000000000600052601160045260246000fd5b60006020828403121561067157600080fd5b503591905056fea264697066735822122053492158cfd80b0dd10c57fbdd12d570789121091558625808d74c12caa3a76064736f6c63430008170033",
  "linkReferences": {},
  "deployedLinkReferences": {}
}