{
  "_format": "hh-sol-artifact-1",
  "contractName": "TestUniswap",
  "sourceName": "contracts/test/TestUniswap.sol",
  "abi": [
    {
      "inputs": [
        {
          "internalType": "contract TestWrappedNativeToken",
          "name": "_weth",
          "type": "address"
        }
      ],
      "stateMutability": "nonpayable",
      "type": "constructor"
    },
    {
      "anonymous": false,
      "inputs": [
        {
          "indexed": false,
          "internalType": "uint256",
          "name": "amountIn",
          "type": "uint256"
        },
        {
          "indexed": false,
          "internalType": "uint256",
          "name": "amountOut",
          "type": "uint256"
        },
        {
          "indexed": false,
          "internalType": "address",
          "name": "tokenIn",
          "type": "address"
        },
        {
          "indexed": false,
          "internalType": "address",
          "name": "tokenOut",
          "type": "address"
        }
      ],
      "name": "StubUniswapExchangeEvent",
      "type": "event"
    },
    {
      "inputs": [
        {
          "components": [
            {
              "internalType": "address",
              "name": "tokenIn",
              "type": "address"
            },
            {
              "internalType": "address",
              "name": "tokenOut",
              "type": "address"
            },
            {
              "internalType": "uint24",
              "name": "fee",
              "type": "uint24"
            },
            {
              "internalType": "address",
              "name": "recipient",
              "type": "address"
            },
            {
              "internalType": "uint256",
              "name": "deadline",
              "type": "uint256"
            },
            {
              "internalType": "uint256",
              "name": "amountIn",
              "type": "uint256"
            },
            {
              "internalType": "uint256",
              "name": "amountOutMinimum",
              "type": "uint256"
            },
            {
              "internalType": "uint160",
              "name": "sqrtPriceLimitX96",
              "type": "uint160"
            }
          ],
          "internalType": "struct ISwapRouter.ExactInputSingleParams",
          "name": "params",
          "type": "tuple"
        }
      ],
      "name": "exactInputSingle",
      "outputs": [
        {
          "internalType": "uint256",
          "name": "",
          "type": "uint256"
        }
      ],
      "stateMutability": "nonpayable",
      "type": "function"
    },
    {
      "inputs": [
        {
          "components": [
            {
              "internalType": "address",
              "name": "tokenIn",
              "type": "address"
            },
            {
              "internalType": "address",
              "name": "tokenOut",
              "type": "address"
            },
            {
              "internalType": "uint24",
              "name": "fee",
              "type": "uint24"
            },
            {
              "internalType": "address",
              "name": "recipient",
              "type": "address"
            },
            {
              "internalType": "uint256",
              "name": "deadline",
              "type": "uint256"
            },
            {
              "internalType": "uint256",
              "name": "amountOut",
              "type": "uint256"
            },
            {
              "internalType": "uint256",
              "name": "amountInMaximum",
              "type": "uint256"
            },
            {
              "internalType": "uint160",
              "name": "sqrtPriceLimitX96",
              "type": "uint160"
            }
          ],
          "internalType": "struct ISwapRouter.ExactOutputSingleParams",
          "name": "params",
          "type": "tuple"
        }
      ],
      "name": "exactOutputSingle",
      "outputs": [
        {
          "internalType": "uint256",
          "name": "",
          "type": "uint256"
        }
      ],
      "stateMutability": "nonpayable",
      "type": "function"
    },
    {
      "inputs": [
        {
          "internalType": "uint256",
          "name": "amountMinimum",
          "type": "uint256"
        },
        {
          "internalType": "address",
          "name": "recipient",
          "type": "address"
        }
      ],
      "name": "unwrapWETH9",
      "outputs": [],
      "stateMutability": "payable",
      "type": "function"
    },
    {
      "inputs": [],
      "name": "weth",
      "outputs": [
        {
          "internalType": "contract TestWrappedNativeToken",
          "name": "",
          "type": "address"
        }
      ],
      "stateMutability": "view",
      "type": "function"
    },
    {
      "stateMutability": "payable",
      "type": "receive"
    }
  ],
  "bytecode": "0x608060405234801561001057600080fd5b506040516108de3803806108de83398101604081905261002f91610054565b600080546001600160a01b0319166001600160a01b0392909216919091179055610084565b60006020828403121561006657600080fd5b81516001600160a01b038116811461007d57600080fd5b9392505050565b61084b806100936000396000f3fe6080604052600436106100435760003560e01c80633fc8cef31461004f578063414bf389146100a657806349404b7c146100d4578063db3e2198146100e957600080fd5b3661004a57005b600080fd5b34801561005b57600080fd5b5060005461007c9073ffffffffffffffffffffffffffffffffffffffff1681565b60405173ffffffffffffffffffffffffffffffffffffffff90911681526020015b60405180910390f35b3480156100b257600080fd5b506100c66100c13660046106eb565b610109565b60405190815260200161009d565b6100e76100e2366004610738565b610325565b005b3480156100f557600080fd5b506100c66101043660046106eb565b6104fc565b60008061011b60c08401356005610793565b90507f29a1b057b49189ad91f5d92216fc55e37caf33e398f9e914469523c9aa5f6a0360a08401358261015160208701876107ac565b61016160408801602089016107ac565b60408051948552602085019390935273ffffffffffffffffffffffffffffffffffffffff91821684840152166060830152519081900360800190a16101a960208401846107ac565b6040517f23b872dd00000000000000000000000000000000000000000000000000000000815233600482015230602482015260a0850135604482015273ffffffffffffffffffffffffffffffffffffffff91909116906323b872dd906064016020604051808303816000875af1158015610227573d6000803e3d6000fd5b505050506040513d601f19601f8201168201806040525081019061024b91906107c7565b5061025c60408401602085016107ac565b73ffffffffffffffffffffffffffffffffffffffff1663a9059cbb61028760808601606087016107ac565b6040517fffffffff0000000000000000000000000000000000000000000000000000000060e084901b16815273ffffffffffffffffffffffffffffffffffffffff9091166004820152602481018490526044015b6020604051808303816000875af11580156102fa573d6000803e3d6000fd5b505050506040513d601f19601f8201168201806040525081019061031e91906107c7565b5092915050565b600080546040517f70a0823100000000000000000000000000000000000000000000000000000000815230600482015273ffffffffffffffffffffffffffffffffffffffff909116906370a0823190602401602060405180830381865afa158015610394573d6000803e3d6000fd5b505050506040513d601f19601f820116820180604052508101906103b891906107e9565b905082811015610428576040517f08c379a000000000000000000000000000000000000000000000000000000000815260206004820152601260248201527f496e73756666696369656e742057455448390000000000000000000000000000604482015260640160405180910390fd5b80156104f7576000546040517f2e1a7d4d0000000000000000000000000000000000000000000000000000000081526004810183905273ffffffffffffffffffffffffffffffffffffffff90911690632e1a7d4d90602401600060405180830381600087803b15801561049a57600080fd5b505af11580156104ae573d6000803e3d6000fd5b505060405173ffffffffffffffffffffffffffffffffffffffff8516925083156108fc02915083906000818181858888f193505050501580156104f5573d6000803e3d6000fd5b505b505050565b60008061050e600560c0850135610802565b90507f29a1b057b49189ad91f5d92216fc55e37caf33e398f9e914469523c9aa5f6a038160a085013561054460208701876107ac565b61055460408801602089016107ac565b60408051948552602085019390935273ffffffffffffffffffffffffffffffffffffffff91821684840152166060830152519081900360800190a161059c60208401846107ac565b6040517f23b872dd0000000000000000000000000000000000000000000000000000000081523360048201523060248201526044810183905273ffffffffffffffffffffffffffffffffffffffff91909116906323b872dd906064016020604051808303816000875af1158015610617573d6000803e3d6000fd5b505050506040513d601f19601f8201168201806040525081019061063b91906107c7565b5061064c60408401602085016107ac565b73ffffffffffffffffffffffffffffffffffffffff1663a9059cbb61067760808601606087016107ac565b6040517fffffffff0000000000000000000000000000000000000000000000000000000060e084901b16815273ffffffffffffffffffffffffffffffffffffffff909116600482015260a086013560248201526044016102db565b600061010082840312156106e557600080fd5b50919050565b600061010082840312156106fe57600080fd5b61070883836106d2565b9392505050565b803573ffffffffffffffffffffffffffffffffffffffff8116811461073357600080fd5b919050565b6000806040838503121561074b57600080fd5b8235915061075b6020840161070f565b90509250929050565b7f4e487b7100000000000000000000000000000000000000000000000000000000600052601160045260246000fd5b808201808211156107a6576107a6610764565b92915050565b6000602082840312156107be57600080fd5b6107088261070f565b6000602082840312156107d957600080fd5b8151801515811461070857600080fd5b6000602082840312156107fb57600080fd5b5051919050565b818103818111156107a6576107a661076456fea2646970667358221220a1748d19a15a82cf05d7dfe3f56cb8ca7e6b666315536b2ea5639165ec74a86f64736f6c63430008170033",
  "linkReferences": {},
  "deployedLinkReferences": {}
}