{
  "_format": "hh-sol-artifact-1",
  "contractName": "SimpleAccount",
  "sourceName": "contracts/samples/SimpleAccount.sol",
  "abi": [
    {
      "inputs": [
        {
          "internalType": "contract IEntryPoint",
          "name": "anEntryPoint",
          "type": "address"
        }
      ],
      "stateMutability": "nonpayable",
      "type": "constructor"
    },
    {
      "anonymous": false,
      "inputs": [
        {
          "indexed": false,
          "internalType": "address",
          "name": "previousAdmin",
          "type": "address"
        },
        {
          "indexed": false,
          "internalType": "address",
          "name": "newAdmin",
          "type": "address"
        }
      ],
      "name": "AdminChanged",
      "type": "event"
    },
    {
      "anonymous": false,
      "inputs": [
        {
          "indexed": true,
          "internalType": "address",
          "name": "beacon",
          "type": "address"
        }
      ],
      "name": "BeaconUpgraded",
      "type": "event"
    },
    {
      "anonymous": false,
      "inputs": [
        {
          "indexed": false,
          "internalType": "uint8",
          "name": "version",
          "type": "uint8"
        }
      ],
      "name": "Initialized",
      "type": "event"
    },
    {
      "anonymous": false,
      "inputs": [
        {
          "indexed": true,
          "internalType": "contract IEntryPoint",
          "name": "entryPoint",
          "type": "address"
        },
        {
          "indexed": true,
          "internalType": "address",
          "name": "owner",
          "type": "address"
        }
      ],
      "name": "SimpleAccountInitialized",
      "type": "event"
    },
    {
      "anonymous": false,
      "inputs": [
        {
          "indexed": true,
          "internalType": "address",
          "name": "implementation",
          "type": "address"
        }
      ],
      "name": "Upgraded",
      "type": "event"
    },
    {
      "inputs": [],
      "name": "addDeposit",
      "outputs": [],
      "stateMutability": "payable",
      "type": "function"
    },
    {
      "inputs": [],
      "name": "entryPoint",
      "outputs": [
        {
          "internalType": "contract IEntryPoint",
          "name": "",
          "type": "address"
        }
      ],
      "stateMutability": "view",
      "type": "function"
    },
    {
      "inputs": [
        {
          "internalType": "address",
          "name": "dest",
          "type": "address"
        },
        {
          "internalType": "uint256",
          "name": "value",
          "type": "uint256"
        },
        {
          "internalType": "bytes",
          "name": "func",
          "type": "bytes"
        }
      ],
      "name": "execute",
      "outputs": [],
      "stateMutability": "nonpayable",
      "type": "function"
    },
    {
      "inputs": [
        {
          "internalType": "address[]",
          "name": "dest",
          "type": "address[]"
        },
        {
          "internalType": "uint256[]",
          "name": "value",
          "type": "uint256[]"
        },
        {
          "internalType": "bytes[]",
          "name": "func",
          "type": "bytes[]"
        }
      ],
      "name": "executeBatch",
      "outputs": [],
      "stateMutability": "nonpayable",
      "type": "function"
    },
    {
      "inputs": [],
      "name": "getDeposit",
      "outputs": [
        {
          "internalType": "uint256",
          "name": "",
          "type": "uint256"
        }
      ],
      "stateMutability": "view",
      "type": "function"
    },
    {
      "inputs": [],
      "name": "getNonce",
      "outputs": [
        {
          "internalType": "uint256",
          "name": "",
          "type": "uint256"
        }
      ],
      "stateMutability": "view",
      "type": "function"
    },
    {
      "inputs": [
        {
          "internalType": "address",
          "name": "anOwner",
          "type": "address"
        }
      ],
      "name": "initialize",
      "outputs": [],
      "stateMutability": "nonpayable",
      "type": "function"
    },
    {
      "inputs": [
        {
          "internalType": "address",
          "name": "",
          "type": "address"
        },
        {
          "internalType": "address",
          "name": "",
          "type": "address"
        },
        {
          "internalType": "uint256[]",
          "name": "",
          "type": "uint256[]"
        },
        {
          "internalType": "uint256[]",
          "name": "",
          "type": "uint256[]"
        },
        {
          "internalType": "bytes",
          "name": "",
          "type": "bytes"
        }
      ],
      "name": "onERC1155BatchReceived",
      "outputs": [
        {
          "internalType": "bytes4",
          "name": "",
          "type": "bytes4"
        }
      ],
      "stateMutability": "pure",
      "type": "function"
    },
    {
      "inputs": [
        {
          "internalType": "address",
          "name": "",
          "type": "address"
        },
        {
          "internalType": "address",
          "name": "",
          "type": "address"
        },
        {
          "internalType": "uint256",
          "name": "",
          "type": "uint256"
        },
        {
          "internalType": "uint256",
          "name": "",
          "type": "uint256"
        },
        {
          "internalType": "bytes",
          "name": "",
          "type": "bytes"
        }
      ],
      "name": "onERC1155Received",
      "outputs": [
        {
          "internalType": "bytes4",
          "name": "",
          "type": "bytes4"
        }
      ],
      "stateMutability": "pure",
      "type": "function"
    },
    {
      "inputs": [
        {
          "internalType": "address",
          "name": "",
          "type": "address"
        },
        {
          "internalType": "address",
          "name": "",
          "type": "address"
        },
        {
          "internalType": "uint256",
          "name": "",
          "type": "uint256"
        },
        {
          "internalType": "bytes",
          "name": "",
          "type": "bytes"
        }
      ],
      "name": "onERC721Received",
      "outputs": [
        {
          "internalType": "bytes4",
          "name": "",
          "type": "bytes4"
        }
      ],
      "stateMutability": "pure",
      "type": "function"
    },
    {
      "inputs": [],
      "name": "owner",
      "outputs": [
        {
          "internalType": "address",
          "name": "",
          "type": "address"
        }
      ],
      "stateMutability": "view",
      "type": "function"
    },
    {
      "inputs": [],
      "name": "proxiableUUID",
      "outputs": [
        {
          "internalType": "bytes32",
          "name": "",
          "type": "bytes32"
        }
      ],
      "stateMutability": "view",
      "type": "function"
    },
    {
      "inputs": [
        {
          "internalType": "bytes4",
          "name": "interfaceId",
          "type": "bytes4"
        }
      ],
      "name": "supportsInterface",
      "outputs": [
        {
          "internalType": "bool",
          "name": "",
          "type": "bool"
        }
      ],
      "stateMutability": "view",
      "type": "function"
    },
    {
      "inputs": [
        {
          "internalType": "address",
          "name": "newImplementation",
          "type": "address"
        }
      ],
      "name": "upgradeTo",
      "outputs": [],
      "stateMutability": "nonpayable",
      "type": "function"
    },
    {
      "inputs": [
        {
          "internalType": "address",
          "name": "newImplementation",
          "type": "address"
        },
        {
          "internalType": "bytes",
          "name": "data",
          "type": "bytes"
        }
      ],
      "name": "upgradeToAndCall",
      "outputs": [],
      "stateMutability": "payable",
      "type": "function"
    },
    {
      "inputs": [
        {
          "components": [
            {
              "internalType": "address",
              "name": "sender",
              "type": "address"
            },
            {
              "internalType": "uint256",
              "name": "nonce",
              "type": "uint256"
            },
            {
              "internalType": "bytes",
              "name": "initCode",
              "type": "bytes"
            },
            {
              "internalType": "bytes",
              "name": "callData",
              "type": "bytes"
            },
            {
              "internalType": "bytes32",
              "name": "accountGasLimits",
              "type": "bytes32"
            },
            {
              "internalType": "uint256",
              "name": "preVerificationGas",
              "type": "uint256"
            },
            {
              "internalType": "bytes32",
              "name": "gasFees",
              "type": "bytes32"
            },
            {
              "internalType": "bytes",
              "name": "paymasterAndData",
              "type": "bytes"
            },
            {
              "internalType": "bytes",
              "name": "signature",
              "type": "bytes"
            }
          ],
          "internalType": "struct PackedUserOperation",
          "name": "userOp",
          "type": "tuple"
        },
        {
          "internalType": "bytes32",
          "name": "userOpHash",
          "type": "bytes32"
        },
        {
          "internalType": "uint256",
          "name": "missingAccountFunds",
          "type": "uint256"
        }
      ],
      "name": "validateUserOp",
      "outputs": [
        {
          "internalType": "uint256",
          "name": "validationData",
          "type": "uint256"
        }
      ],
      "stateMutability": "nonpayable",
      "type": "function"
    },
    {
      "inputs": [
        {
          "internalType": "address payable",
          "name": "withdrawAddress",
          "type": "address"
        },
        {
          "internalType": "uint256",
          "name": "amount",
          "type": "uint256"
        }
      ],
      "name": "withdrawDepositTo",
      "outputs": [],
      "stateMutability": "nonpayable",
      "type": "function"
    },
    {
      "stateMutability": "payable",
      "type": "receive"
    }
  ],
  "bytecode": "0x60c03461016157601f6200216038819003918201601f19168301916001600160401b038311848410176101665780849260209460405283398101031261016157516001600160a01b0381168103610161573060805260a05260005460ff8160081c1661010c5760ff808216106100d1575b604051611fe390816200017d82396080518181816104a701528181610b280152610d05015260a0518181816103670152818161081d015281816108fc01528181610e7a015281816110510152818161128c015281816117b2015261198a0152f35b60ff90811916176000557f7f26b83ff96e1f2b6a682f133852f6798a09c465da95921460cefb3847402498602060405160ff8152a138610070565b60405162461bcd60e51b815260206004820152602760248201527f496e697469616c697a61626c653a20636f6e747261637420697320696e697469604482015266616c697a696e6760c81b6064820152608490fd5b600080fd5b634e487b7160e01b600052604160045260246000fdfe6080604052600436101561001b575b361561001957600080fd5b005b60003560e01c806301ffc9a71461012b578063150b7a021461012657806319822f7c146101215780633659cfe61461011c57806347e1da2a146101175780634a58db19146101125780634d44560d1461010d5780634f1ef2861461010857806352d1902d146101035780638da5cb5b146100fe578063b0d691fe146100f9578063b61d27f6146100f4578063bc197c81146100ef578063c399ec88146100ea578063c4d66de8146100e5578063d087d288146100e05763f23a6e610361000e576112ef565b61120d565b6110aa565b610fd9565b610f12565b610e9e565b610e2f565b610dda565b610cbf565b610aa7565b61089e565b6107db565b610690565b610453565b6102fd565b61026c565b3461021b5760207ffffffffffffffffffffffffffffffffffffffffffffffffffffffffffffffffc36011261021b576004357fffffffff00000000000000000000000000000000000000000000000000000000811680910361021b57807f150b7a0200000000000000000000000000000000000000000000000000000000602092149081156101f1575b81156101c7575b506040519015158152f35b7f01ffc9a700000000000000000000000000000000000000000000000000000000915014386101bc565b7f4e2312e000000000000000000000000000000000000000000000000000000000811491506101b5565b600080fd5b73ffffffffffffffffffffffffffffffffffffffff81160361021b57565b9181601f8401121561021b5782359167ffffffffffffffff831161021b576020838186019501011161021b57565b3461021b5760807ffffffffffffffffffffffffffffffffffffffffffffffffffffffffffffffffc36011261021b576102a6600435610220565b6102b1602435610220565b60643567ffffffffffffffff811161021b576102d190369060040161023e565b505060206040517f150b7a02000000000000000000000000000000000000000000000000000000008152f35b3461021b577ffffffffffffffffffffffffffffffffffffffffffffffffffffffffffffffffc60608136011261021b576004359067ffffffffffffffff821161021b5761012090823603011261021b5760443573ffffffffffffffffffffffffffffffffffffffff7f00000000000000000000000000000000000000000000000000000000000000001633036103f5576103a06103b8926024359060040161165e565b90806103bc575b506040519081529081906020820190565b0390f35b600080808093337ffffffffffffffffffffffffffffffffffffffffffffffffffffffffffffffffff1506103ee6116df565b50386103a7565b60646040517f08c379a000000000000000000000000000000000000000000000000000000000815260206004820152601c60248201527f6163636f756e743a206e6f742066726f6d20456e747279506f696e74000000006044820152fd5b3461021b5760207ffffffffffffffffffffffffffffffffffffffffffffffffffffffffffffffffc36011261021b5760043561048e81610220565b73ffffffffffffffffffffffffffffffffffffffff90817f000000000000000000000000000000000000000000000000000000000000000016916104d483301415611380565b6105037f360894a13ba1a3210667c828492db98dca3e2076cc3735a920a3ca505d382bbc93828554161461140b565b61050b611892565b60405190610518826109bd565b600082527f4910fdfa16fed3260ed0e7147f7cc6da11a60208b5b9406d12a635614ffd91435460ff16156105525750506100199150611b10565b6020600491604094939451928380927f52d1902d00000000000000000000000000000000000000000000000000000000825286165afa6000918161062e575b5061061b576040517f08c379a000000000000000000000000000000000000000000000000000000000815260206004820152602e60248201527f45524331393637557067726164653a206e657720696d706c656d656e7461746960448201527f6f6e206973206e6f7420555550530000000000000000000000000000000000006064820152608490fd5b61001993610629911461170f565b6119d1565b61065191925060203d602011610658575b61064981836109f5565b8101906115c4565b9038610591565b503d61063f565b9181601f8401121561021b5782359167ffffffffffffffff831161021b576020808501948460051b01011161021b57565b3461021b5760607ffffffffffffffffffffffffffffffffffffffffffffffffffffffffffffffffc36011261021b5767ffffffffffffffff60043581811161021b576106e090369060040161065f565b60249291923582811161021b576106fb90369060040161065f565b9260443590811161021b5761071490369060040161065f565b93909161071f61179a565b848414806107ca575b61073190611496565b8161077e57505060005b82811061074457005b8061077861075d610758600194878a61152a565b61153f565b61077261076b84898861159d565b3691610a70565b90611853565b0161073b565b91909460009493945b85811061079057005b806107c46107a46107586001948a8761152a565b6107af838b8961152a565b356107be61076b858b8a61159d565b9161187b565b01610787565b508115806107285750818514610728565b6000807ffffffffffffffffffffffffffffffffffffffffffffffffffffffffffffffffc36011261089b5773ffffffffffffffffffffffffffffffffffffffff7f00000000000000000000000000000000000000000000000000000000000000001681813b1561089b57602491604051928380927fb760faf900000000000000000000000000000000000000000000000000000000825230600483015234905af180156108965761088a575080f35b610893906109a4565b80f35b6115b8565b80fd5b3461021b57600060407ffffffffffffffffffffffffffffffffffffffffffffffffffffffffffffffffc36011261089b576004356108db81610220565b6108e3611892565b8173ffffffffffffffffffffffffffffffffffffffff807f00000000000000000000000000000000000000000000000000000000000000001692833b15610971576044908360405195869485937f205c287800000000000000000000000000000000000000000000000000000000855216600484015260243560248401525af180156108965761088a575080f35b8280fd5b7f4e487b7100000000000000000000000000000000000000000000000000000000600052604160045260246000fd5b67ffffffffffffffff81116109b857604052565b610975565b6020810190811067ffffffffffffffff8211176109b857604052565b6060810190811067ffffffffffffffff8211176109b857604052565b90601f7fffffffffffffffffffffffffffffffffffffffffffffffffffffffffffffffe0910116810190811067ffffffffffffffff8211176109b857604052565b67ffffffffffffffff81116109b857601f017fffffffffffffffffffffffffffffffffffffffffffffffffffffffffffffffe01660200190565b929192610a7c82610a36565b91610a8a60405193846109f5565b82948184528183011161021b578281602093846000960137010152565b60407ffffffffffffffffffffffffffffffffffffffffffffffffffffffffffffffffc36011261021b57600435610add81610220565b60243567ffffffffffffffff811161021b573660238201121561021b57610b0e903690602481600401359101610a70565b9073ffffffffffffffffffffffffffffffffffffffff91827f00000000000000000000000000000000000000000000000000000000000000001692610b5584301415611380565b610b847f360894a13ba1a3210667c828492db98dca3e2076cc3735a920a3ca505d382bbc94828654161461140b565b610b8c611892565b7f4910fdfa16fed3260ed0e7147f7cc6da11a60208b5b9406d12a635614ffd91435460ff1615610bc25750506100199150611b10565b6020600491604094939451928380927f52d1902d00000000000000000000000000000000000000000000000000000000825286165afa60009181610c9e575b50610c8b576040517f08c379a000000000000000000000000000000000000000000000000000000000815260206004820152602e60248201527f45524331393637557067726164653a206e657720696d706c656d656e7461746960448201527f6f6e206973206e6f7420555550530000000000000000000000000000000000006064820152608490fd5b61001993610c99911461170f565b611ab0565b610cb891925060203d6020116106585761064981836109f5565b9038610c01565b3461021b5760007ffffffffffffffffffffffffffffffffffffffffffffffffffffffffffffffffc36011261021b5773ffffffffffffffffffffffffffffffffffffffff7f0000000000000000000000000000000000000000000000000000000000000000163003610d56576040517f360894a13ba1a3210667c828492db98dca3e2076cc3735a920a3ca505d382bbc8152602090f35b60846040517f08c379a000000000000000000000000000000000000000000000000000000000815260206004820152603860248201527f555550535570677261646561626c653a206d757374206e6f742062652063616c60448201527f6c6564207468726f7567682064656c656761746563616c6c00000000000000006064820152fd5b3461021b5760007ffffffffffffffffffffffffffffffffffffffffffffffffffffffffffffffffc36011261021b57602073ffffffffffffffffffffffffffffffffffffffff60005460101c16604051908152f35b3461021b5760007ffffffffffffffffffffffffffffffffffffffffffffffffffffffffffffffffc36011261021b57602060405173ffffffffffffffffffffffffffffffffffffffff7f0000000000000000000000000000000000000000000000000000000000000000168152f35b3461021b5760607ffffffffffffffffffffffffffffffffffffffffffffffffffffffffffffffffc36011261021b57600435610ed981610220565b6044359067ffffffffffffffff821161021b57610f08610f0061001993369060040161023e565b61076b61179a565b906024359061187b565b3461021b5760a07ffffffffffffffffffffffffffffffffffffffffffffffffffffffffffffffffc36011261021b57610f4c600435610220565b610f57602435610220565b67ffffffffffffffff60443581811161021b57610f7890369060040161065f565b505060643581811161021b57610f9290369060040161065f565b505060843590811161021b57610fac90369060040161023e565b50506040517fbc197c81000000000000000000000000000000000000000000000000000000008152602090f35b3461021b5760007ffffffffffffffffffffffffffffffffffffffffffffffffffffffffffffffffc36011261021b576040517f70a0823100000000000000000000000000000000000000000000000000000000815230600482015260208160248173ffffffffffffffffffffffffffffffffffffffff7f0000000000000000000000000000000000000000000000000000000000000000165afa80156108965760209160009161108d575b50604051908152f35b6110a49150823d84116106585761064981836109f5565b38611084565b3461021b5760207ffffffffffffffffffffffffffffffffffffffffffffffffffffffffffffffffc36011261021b576004356110e581610220565b6111476000549161110d60ff8460081c1615809481956111ff575b81156111df575b506115d3565b8261113e60017fffffffffffffffffffffffffffffffffffffffffffffffffffffffffffffff006000541617600055565b6111a957611925565b61114d57005b61117a7fffffffffffffffffffffffffffffffffffffffffffffffffffffffffffff00ff60005416600055565b604051600181527f7f26b83ff96e1f2b6a682f133852f6798a09c465da95921460cefb384740249890602090a1005b6111da6101007fffffffffffffffffffffffffffffffffffffffffffffffffffffffffffff00ff6000541617600055565b611925565b303b159150816111f1575b5038611107565b6001915060ff1614386111ea565b600160ff8216109150611100565b3461021b5760007ffffffffffffffffffffffffffffffffffffffffffffffffffffffffffffffffc36011261021b576040517f35567e1a0000000000000000000000000000000000000000000000000000000081523060048201526000602482015260208160448173ffffffffffffffffffffffffffffffffffffffff7f0000000000000000000000000000000000000000000000000000000000000000165afa8015610896576103b8916000916112d057506040519081529081906020820190565b6112e9915060203d6020116106585761064981836109f5565b386103a7565b3461021b5760a07ffffffffffffffffffffffffffffffffffffffffffffffffffffffffffffffffc36011261021b57611329600435610220565b611334602435610220565b60843567ffffffffffffffff811161021b5761135490369060040161023e565b505060206040517ff23a6e61000000000000000000000000000000000000000000000000000000008152f35b1561138757565b60846040517f08c379a000000000000000000000000000000000000000000000000000000000815260206004820152602c60248201527f46756e6374696f6e206d7573742062652063616c6c6564207468726f7567682060448201527f64656c656761746563616c6c00000000000000000000000000000000000000006064820152fd5b1561141257565b60846040517f08c379a000000000000000000000000000000000000000000000000000000000815260206004820152602c60248201527f46756e6374696f6e206d7573742062652063616c6c6564207468726f7567682060448201527f6163746976652070726f787900000000000000000000000000000000000000006064820152fd5b1561149d57565b60646040517f08c379a000000000000000000000000000000000000000000000000000000000815260206004820152601360248201527f77726f6e67206172726179206c656e67746873000000000000000000000000006044820152fd5b7f4e487b7100000000000000000000000000000000000000000000000000000000600052603260045260246000fd5b919081101561153a5760051b0190565b6114fb565b3561154981610220565b90565b9035907fffffffffffffffffffffffffffffffffffffffffffffffffffffffffffffffe18136030182121561021b570180359067ffffffffffffffff821161021b5760200191813603831361021b57565b9082101561153a576115b49160051b81019061154c565b9091565b6040513d6000823e3d90fd5b9081602091031261021b575190565b156115da57565b60846040517f08c379a000000000000000000000000000000000000000000000000000000000815260206004820152602e60248201527f496e697469616c697a61626c653a20636f6e747261637420697320616c72656160448201527f647920696e697469616c697a65640000000000000000000000000000000000006064820152fd5b907f19457468657265756d205369676e6564204d6573736167653a0a333200000000600052601c52603c6000206116cf6116c773ffffffffffffffffffffffffffffffffffffffff926116c161076b8560005460101c169661010081019061154c565b90611bfc565b919091611c69565b16036116da57600090565b600190565b3d1561170a573d906116f082610a36565b916116fe60405193846109f5565b82523d6000602084013e565b606090565b1561171657565b60846040517f08c379a000000000000000000000000000000000000000000000000000000000815260206004820152602960248201527f45524331393637557067726164653a20756e737570706f727465642070726f7860448201527f6961626c655555494400000000000000000000000000000000000000000000006064820152fd5b73ffffffffffffffffffffffffffffffffffffffff807f0000000000000000000000000000000000000000000000000000000000000000163314908115611842575b50156117e457565b60646040517f08c379a000000000000000000000000000000000000000000000000000000000815260206004820152602060248201527f6163636f756e743a206e6f74204f776e6572206f7220456e747279506f696e746044820152fd5b905060005460101c163314386117dc565b600091829182602083519301915af161186a6116df565b90156118735750565b602081519101fd5b916000928392602083519301915af161186a6116df565b73ffffffffffffffffffffffffffffffffffffffff60005460101c163314801561191c575b156118be57565b60646040517f08c379a000000000000000000000000000000000000000000000000000000000815260206004820152600a60248201527f6f6e6c79206f776e6572000000000000000000000000000000000000000000006044820152fd5b503033146118b7565b7fffffffffffffffffffff0000000000000000000000000000000000000000ffff75ffffffffffffffffffffffffffffffffffffffff00006000549260101b169116178060005573ffffffffffffffffffffffffffffffffffffffff809160101c16907f0000000000000000000000000000000000000000000000000000000000000000167f47e55c76e7a6f1fd8996a1da8008c1ea29699cca35e7bcd057f2dec313b6e5de600080a3565b906119db82611b10565b73ffffffffffffffffffffffffffffffffffffffff82167fbc7cd75a20ee27fd9adebab32041f755214dbc6bffa90cc0225b39da2e5c2d3b600080a2805115801590611aa8575b611a2a575050565b611aa59160008060405193611a3e856109d9565b602785527f416464726573733a206c6f772d6c6576656c2064656c65676174652063616c6c60208601527f206661696c6564000000000000000000000000000000000000000000000000006040860152602081519101845af4611a9f6116df565b91611ee6565b50565b506000611a22565b90611aba82611b10565b73ffffffffffffffffffffffffffffffffffffffff82167fbc7cd75a20ee27fd9adebab32041f755214dbc6bffa90cc0225b39da2e5c2d3b600080a2805115801590611b0857611a2a575050565b506001611a22565b803b15611b785773ffffffffffffffffffffffffffffffffffffffff7f360894a13ba1a3210667c828492db98dca3e2076cc3735a920a3ca505d382bbc91167fffffffffffffffffffffffff0000000000000000000000000000000000000000825416179055565b60846040517f08c379a000000000000000000000000000000000000000000000000000000000815260206004820152602d60248201527f455243313936373a206e657720696d706c656d656e746174696f6e206973206e60448201527f6f74206120636f6e7472616374000000000000000000000000000000000000006064820152fd5b906041815114600014611c26576115b4916020820151906060604084015193015160001a90611df2565b5050600090600290565b60051115611c3a57565b7f4e487b7100000000000000000000000000000000000000000000000000000000600052602160045260246000fd5b611c7281611c30565b80611c7a5750565b611c8381611c30565b60018103611cea576040517f08c379a000000000000000000000000000000000000000000000000000000000815260206004820152601860248201527f45434453413a20696e76616c6964207369676e617475726500000000000000006044820152606490fd5b611cf381611c30565b60028103611d5a576040517f08c379a000000000000000000000000000000000000000000000000000000000815260206004820152601f60248201527f45434453413a20696e76616c6964207369676e6174757265206c656e677468006044820152606490fd5b80611d66600392611c30565b14611d6d57565b6040517f08c379a000000000000000000000000000000000000000000000000000000000815260206004820152602260248201527f45434453413a20696e76616c6964207369676e6174757265202773272076616c60448201527f75650000000000000000000000000000000000000000000000000000000000006064820152608490fd5b9291907f7fffffffffffffffffffffffffffffff5d576e7357a4501ddfe92f46681b20a08311611e755791608094939160ff602094604051948552168484015260408301526060820152600093849182805260015afa1561089657815173ffffffffffffffffffffffffffffffffffffffff811615611e6f579190565b50600190565b50505050600090600390565b15611e8857565b60646040517f08c379a000000000000000000000000000000000000000000000000000000000815260206004820152601d60248201527f416464726573733a2063616c6c20746f206e6f6e2d636f6e74726163740000006044820152fd5b91929015611f065750815115611efa575090565b611549903b1515611e81565b825190915015611f195750805190602001fd5b604051907f08c379a000000000000000000000000000000000000000000000000000000000825281602080600483015282519283602484015260005b848110611f96575050507fffffffffffffffffffffffffffffffffffffffffffffffffffffffffffffffe0601f836000604480968601015201168101030190fd5b818101830151868201604401528593508201611f5556fea264697066735822122069392a2190d57d3efc1c92af9ef5ae5c082f6d5904d3fb0e8f85d44a4848f4af64736f6c63430008170033",
  "linkReferences": {},
  "deployedLinkReferences": {}
}